:020000040800F2
:1000000000C00020ED270008A91D0008AF1D000852
:10001000B51D0008BB1D0008C11D00080000000040
:10002000000000000000000000000000C71D0008E4
:10003000D31D000800000000DF1D0008EB1D0008B4
:10004000352800083528000835280008352800081C
:10005000352800083528000835280008352800080C
:1000600035280008352800083528000835280008FC
:1000700035280008352800083528000835280008EC
:1000800035280008352800083528000835280008DC
:1000900035280008352800083528000835280008CC
:1000A00035280008352800083528000835280008BC
:1000B00035280008352800083528000835280008AC
:1000C000352800083528000835280008352800089C
:1000D000352800083528000835280008352800088C
:1000E000352800083528000835280008352800087C
:1000F000352800083528000835280008352800086C
:10010000352800083528000835280008352800085B
:10011000352800083528000835280008352800084B
:10012000352800083528000835280008352800083B
:1001300000000000000000000000000000000000BF
:1001400000000000000000000000000000000000AF
:10015000000000000000000000000000000000009F
:10016000000000000000000000000000000000008F
:10017000000000000000000000000000000000007F
:10018000000000000000000000000000000000006F
:10019000000000000000000000000000000000005F
:1001A000000000000000000000000000000000004F
:1001B000000000000000000000000000000000003F
:1001C000000000000000000000000000000000002F
:1001D000000000000000000000000000000000001F
:0401E0005FF8E0F1F3
:1001E40010B5054C237833B9044B13B10448AFF36D
:1001F40000800123237010BD0C00002000000000CB
:10020400084A000808B5034B1BB103490348AFF380
:10021400008008BD0000000010000020084A00080B
:1002240081F0004102E000BF83F0004330B54FEAA3
:1002340041044FEA430594EA050F08BF90EA020F10
:100244001FBF54EA000C55EA020C7FEA645C7FEAA3
:10025400655C00F0E2804FEA5454D4EB5555B8BFC6
:100264006D420CDD2C4480EA020281EA030382EA37
:10027400000083EA010180EA020281EA0303362DC9
:1002840088BF30BD11F0004F4FEA01314FF4801C9C
:100294004CEA113102D0404261EB410113F0004FAE
:1002A4004FEA03334CEA133302D0524263EB430365
:1002B40094EA050F00F0A780A4F10104D5F1200E03
:1002C4000DDB02FA0EFC22FA05F2801841F100015E
:1002D40003FA0EF2801843FA05F359410EE0A5F132
:1002E40020050EF1200E012A03FA0EFC28BF4CF063
:1002F400020C43FA05F3C01851EBE37101F0004519
:1003040007D54FF0000EDCF1000C7EEB00006EEB25
:100314000101B1F5801F1BD3B1F5001F0CD34908AF
:100324005FEA30004FEA3C0C04F101044FEA445206
:1003340012F5800F80F09A80BCF1004F08BF5FEA8D
:10034400500C50F1000041EB045141EA050130BD6D
:100354005FEA4C0C404141EB0101013C28BFB1F57F
:10036400801FE9D291F0000F04BF01460020B1FACA
:1003740081F308BF2033A3F10B03B3F120020CDA9D
:100384000C3208DD02F1140CC2F10C0201FA0CF07B
:1003940021FA02F10CE002F11402D8BFC2F1200CE0
:1003A40001FA02F120FA0CFCDCBF41EA0C01904096
:1003B400E41AA2BF01EB0451294330BD6FEA0404DF
:1003C4001F3C1CDA0C340EDC04F11404C4F12002CA
:1003D40020FA04F001FA02F340EA030021FA04F3DC
:1003E40045EA030130BDC4F10C04C4F1200220FA33
:1003F40002F001FA04F340EA0300294630BD21FA71
:1004040004F0294630BD94F0000F83F4801306BF36
:1004140081F480110134013D4EE77FEA645C18BF2A
:100424007FEA655C29D094EA050F08BF90EA020FC1
:1004340005D054EA000C04BF1946104630BD91EAB9
:10044400030F1EBF0021002030BD5FEA545C05D1BC
:100454004000494128BF41F0004130BD14F58004FB
:100464003CBF01F5801130BD01F0004545F0FE416F
:1004740041F470014FF0000030BD7FEA645C1ABFA4
:10048400194610467FEA655C1CBF0B46024650EADB
:10049400013406BF52EA033591EA030F41F4002107
:1004A40030BD00BF90F0000F04BF0021704730B58D
:1004B4004FF4806404F132044FF000054FF0000162
:1004C40050E700BF90F0000F04BF0021704730B523
:1004D4004FF4806404F1320410F0004548BF4042F8
:1004E4004FF000013EE700BF42004FEAE2014FEA4D
:1004F40031014FEA02701FBF12F07F4393F07F4F28
:1005040081F06051704732F07F4208BF704793F02A
:100514007F4F04BF41F40021704730B54FF460743D
:1005240001F0004521F000411CE700BF50EA010240
:1005340008BF704730B54FF000050AE050EA0102E9
:1005440008BF704730B511F0004502D5404261EB59
:1005540041014FF4806404F132045FEA915C3FF49A
:10056400D8AE4FF003025FEADC0C18BF03325FEA37
:10057400DC0C18BF033202EBDC02C2F1200300FAE8
:1005840003FC20FA02F001FA03FE40EA0E0021FA0D
:1005940002F11444BDE600BF4FEA4102B2F1E04368
:1005A40024BFB3F5001CDCF1FE5C0DD901F0004C56
:1005B4004FEAC0024CEA5070B2F1004F40EB8300A6
:1005C40008BF20F00100704711F0804F21D113F1D2
:1005D4003872BCBF01F00040704741F480114FEA0B
:1005E4005252C2F11802C2F1200C10FA0CF320FA94
:1005F40002F018BF40F001004FEAC1234FEAD323B1
:1006040003FA0CFC40EA0C0023FA02F34FEA43031A
:10061400CCE77FEA625307D150EA01331EBF4FF0A3
:10062400FE4040F44000704701F0004040F0FE40BE
:1006340040F40000704700BF80F0004002E000BFBB
:1006440081F0004142001FBF5FEA410392EA030FB9
:100654007FEA226C7FEA236C6AD04FEA1262D2EB03
:100664001363C1BFD218414048404140B8BF5B4208
:10067400192B88BF704710F0004F40F4000020F0A1
:100684007F4018BF404211F0004F41F4000121F0B7
:100694007F4118BF494292EA030F3FD0A2F1010201
:1006A40041FA03FC10EB0C00C3F1200301FA03F13F
:1006B40000F0004302D5494260EB4000B0F5000F62
:1006C40013D3B0F1807F06D340084FEA310102F121
:1006D4000102FE2A51D2B1F1004F40EBC25008BFD3
:1006E40020F0010040EA03007047490040EB00009D
:1006F400013A28BFB0F5000FEDD2B0FA80FCACF19E
:10070400080CB2EB0C0200FA0CF0AABF00EBC250CA
:1007140052421843BCBFD0401843704792F0000FB8
:1007240081F4000106BF80F400000132013BB5E70B
:100734004FEA41037FEA226C18BF7FEA236C21D081
:1007440092EA030F04D092F0000F08BF08467047E6
:1007540090EA010F1CBF0020704712F07F4F04D1B4
:10076400400028BF40F00040704712F100723CBFC7
:1007740000F50000704700F0004343F0FE4040F4F1
:10078400000070477FEA226216BF08467FEA2363AF
:100794000146420206BF5FEA412390EA010F40F49A
:1007A400800070474FF0000304E000BF10F00043E6
:1007B40048BF40425FEA000C08BF704743F09643CD
:1007C40001464FF000001CE050EA010208BF7047E8
:1007D4004FF000030AE000BF50EA010208BF70476F
:1007E40011F0004302D5404261EB41015FEA010C84
:1007F40002BF84460146002043F0B64308BFA3F17C
:100804008053A3F50003BCFA8CF2083AA3EBC2535D
:1008140010DB01FA02FC634400FA02FCC2F120027C
:10082400BCF1004F20FA02F243EB020008BF20F0B3
:100834000100704702F1200201FA02FCC2F1200219
:1008440050EA4C0021FA02F243EB020008BF20EA0E
:10085400DC7070474FF0FF0C1CEAD0521EBF1CEA3C
:10086400D15392EA0C0F93EA0C0F6FD01A4480EA2A
:10087400010C400218BF5FEA41211ED04FF0006313
:1008840043EA501043EA5111A0FB01310CF000403F
:10089400B1F5000F3EBF490041EAD3715B0040EA65
:1008A400010062F17F02FD2A1DD8B3F1004F40EB35
:1008B400C25008BF20F00100704790F0000F0CF008
:1008C400004C08BF49024CEA502040EA51207F3ACC
:1008D400C2BFD2F1FF0340EAC250704740F40000A7
:1008E4004FF00003013A5DDC12F1190FDCBF00F098
:1008F40000407047C2F10002410021FA02F1C2F146
:10090400200200FA02FC5FEA310040F1000053EAE1
:100914004C0308BF20EADC70704792F0000F00F02F
:10092400004C02BF400010F4000F013AF9D040EA35
:100934000C0093F0000F01F0004C02BF490011F4C9
:10094400000F013BF9D041EA0C018FE70CEAD153C7
:1009540092EA0C0F18BF93EA0C0F0AD030F0004C47
:1009640018BF31F0004CD8D180EA010000F00040FB
:10097400704790F0000F17BF90F0004F084691F0B9
:10098400000F91F0004F14D092EA0C0F01D14202F3
:100994000FD193EA0C0F03D14B0218BF084608D1BC
:1009A40080EA010000F0004040F0FE4040F4000006
:1009B400704740F0FE4040F4400070474FF0FF0C99
:1009C4001CEAD0521EBF1CEAD15392EA0C0F93EAE0
:1009D4000C0F69D0A2EB030280EA010C49024FEA32
:1009E400402037D04FF0805343EA111143EA1013EB
:1009F4000CF000408B4238BF5B0042F17D024FF4A3
:100A0400000C8B4224BF5B1A40EA0C00B3EB510F7D
:100A140024BFA3EB510340EA5C00B3EB910F24BF66
:100A2400A3EB910340EA9C00B3EBD10F24BFA3EBEB
:100A3400D10340EADC001B0118BF5FEA1C1CE0D1B3
:100A4400FD2A3FF650AF8B4240EBC25008BF20F066
:100A5400010070470CF0004C4CEA50207F32C2BFBA
:100A6400D2F1FF0340EAC250704740F400004FF057
:100A74000003013A37E792F0000F00F0004C02BF88
:100A8400400010F4000F013AF9D040EA0C0093F052
:100A9400000F01F0004C02BF490011F4000F013BAC
:100AA400F9D041EA0C0195E70CEAD15392EA0C0F14
:100AB40008D142027FF47DAF93EA0C0F7FF470AF4C
:100AC400084676E793EA0C0F04D14B023FF44CAF8F
:100AD40008466EE730F0004C18BF31F0004CCAD124
:100AE40030F000427FF45CAF31F000437FF43CAF60
:100AF4005FE700BF4FF0FF3C06E000BF4FF0010C82
:100B040002E000BF4FF0010C4DF804CD4FEA400263
:100B14004FEA41037FEA226C18BF7FEA236C11D0AD
:100B240001B052EA530C18BF90EA010F58BFB2EB60
:100B3400030088BFC81738BF6FEAE17018BF40F0E0
:100B4400010070477FEA226C02D15FEA402C05D194
:100B54007FEA236CE4D15FEA412CE1D05DF8040B19
:100B6400704700BF844608466146FFE70FB5FFF7AC
:100B7400C9FF002848BF10F1000F0FBD4DF808ED64
:100B8400FFF7F4FF0CBF012000205DF808FB00BF55
:100B94004DF808EDFFF7EAFF34BF012000205DF8AF
:100BA40008FB00BF4DF808EDFFF7E0FF94BF0120FC
:100BB40000205DF808FB00BF4DF808EDFFF7D2FFF9
:100BC40094BF012000205DF808FB00BF4DF808ED3C
:100BD400FFF7C8FF34BF012000205DF808FB00BF09
:100BE4004FEA4002B2F1FE4F0FD34FF09E03B3EB36
:100BF40012620DD94FEA002343F0004310F0004F76
:100C040023FA02F018BF404270474FF000007047CB
:100C140012F1610F01D1420205D110F0004008BF6A
:100C24006FF0004070474FF00000704780B500AF90
:100C3400094B1B780133DAB2074B1A70064B1B7849
:100C4400142B07D9044B00221A704FF400510348A7
:100C540002F01DF900BF80BD2C00002000100140EF
:100C640080B500AF322000F069F800F0B1FC00F06C
:100C740061F900F0B5FD00BF80BD000080B500AF94
:100C840000F054FC012000F081F90346002B16D03B
:100C9400322000F053F80E4B1B68002B09D10022C0
:100CA40000214FF4FA7000F083FB094B01221A6013
:100CB40005E0012000F0F6F9054B00221A60FFF769
:100CC400B5FF00F07BF80A2001F016FE00BF80BDDE
:100CD4002800002080B483B000AF0346FB80044AA0
:100CE400FB88138000BF0C37BD4680BC704700BF33
:100CF4002E00002080B400AF024B1B881846BD466E
:100D040080BC70472E00002080B483B000AF03463F
:100D1400FB71044AFB79137000BF0C37BD4680BCDD
:100D2400704700BF3000002080B400AF024B1B7836
:100D34001846BD4680BC70473000002080B582B0A4
:100D440000AF0346FB80FB88012B0BD10120FFF78A
:100D5400DBFF0020FFF7BEFF01222021154802F02F
:100D64007EF822E0FB88002B0BD10020FFF7CCFF9C
:100D74000020FFF7AFFF002220210E4802F06FF899
:100D840013E0FB88092B10D90220FFF7BDFFFB8875
:100D9400094AA2FB0323DB089BB21846FFF79AFF1C
:100DA40001222021034802F05AF800BF0837BD464B
:100DB40080BD00BF00100140CDCCCCCC80B500AFCD
:100DC400FFF7B2FF0346022B13D1FFF793FF03464D
:100DD400002B06D0084B1B88013B9AB2064B1A80A5
:100DE40007E000222021054802F039F80020FFF72F
:100DF4008BFF00BF80BD00BF2E000020001001400B
:100E040080B485B000AF0346FB710023FB81FB79FE
:100E1400032B29D801A252F823F000BF310E000899
:100E2400430E0008510E00085F0E00084FF0804387
:100E34005B6AFB814FF0804300225A6215E00E4B3F
:100E44005B6AFB810C4B00225A620EE00B4B5B6A1F
:100E5400FB810A4B00225A6207E0094B5B6AFB8163
:100E6400074B00225A6200E000BFB7F90E30184663
:100E74001437BD4680BC704700080040000C004099
:100E84000004004080B483B000AF78600B4B1A6854
:100E94007B681A607B680433094A12681A607B68AD
:100EA4000833084A12681A607B680C33064A1268D1
:100EB4001A6000BF0C37BD4680BC70473400002068
:100EC400380000203C0000204000002080B500AF26
:100ED4000020FFF795FF03461A46124B1B689B1A26
:100EE400104A13600120FFF78BFF03461A460E4B8E
:100EF4001B6813440C4A13600220FFF781FF03466A
:100F04001A460A4B1B681344084A13600320FFF770
:100F140077FF03461A46064B1B689B1A044A136064
:100F240000BF80BD34000020380000203C000020B9
:100F34004000002080B500AF0421084802F0DEFD27
:100F44000421074802F0DAFD0421064802F0D6FD28
:100F54000421054802F0D2FD00BF80BD84010020B9
:100F6400CC010020140200205C02002080B500AFF8
:100F74000421054801F05CFF0346002B01D1012345
:100F840000E00023184680BD0014014080B582B003
:100F940000AF0346FB71FFF7E9FF0346012B0ED1B7
:100FA4000E4B1B881A46FB7901335B009A4209DA1F
:100FB4000A4B1B8801339AB2084B1A8002E0074B94
:100FC40000221A80054B1B88022B01D1012300E06B
:100FD400002318460837BD4680BD00BF44000020EA
:100FE40090B585B000AF0446084611461A4623461C
:100FF400FB800346BB800B467B8013463B804FF44B
:10100400FA63FB81B7F90620B7F90E305B429A42C6
:101014000BDBB7F90620B7F90E309A4205DCB7F9B5
:1010240006301946002000F047FBB7F90420B7F951
:101034000E305B429A420BDBB7F90420B7F90E304D
:101044009A4205DCB7F904301946012000F034FB5C
:10105400B7F90220B7F90E305B429A420BDBB7F9BD
:101064000220B7F90E309A4205DCB7F9023019466E
:10107400022000F021FBB7F90020B7F90E305B42E3
:101084009A420BDBB7F90020B7F90E309A4205DC1F
:10109400B7F900301946032000F00EFB00BF1437E7
:1010A400BD4690BD80B582B000AF0346FB710023FE
:1010B40000220021002000F011F8042000F0B8FC08
:1010C400FB79184600F0ACFA034B00221A7000BFFB
:1010D4000837BD4680BD00BF7800002090B585B0BC
:1010E40000AF0446084611461A462346FB800346D1
:1010F400BB800B467B8013463B80184B01221A7041
:10110400174AFB881384164ABB885384144A7B8885
:101114009384134A3B88D3840023FB7316E0FB7B40
:101124000F4A103332F913301846FFF7CBF9024651
:101134000B4610461946FFF72FFA0246FB7B114671
:10114400184600F001FDFB7B0133FB73FB7B032B93
:10115400E5D900BF00BF1437BD4690BD780000201C
:101164008400002080B588B000AF786000F0EEF80D
:1011740000F0E2F8F861664B1B68642202FB03F39B
:101184001846FFF713FB0346F9691846FFF762FB9D
:10119400034660491846FFF711FC0346BB615C4BEC
:1011A4005B68642202FB03F31846FFF7FFFA034669
:1011B400F9691846FFF74EFB034656491846FFF7F0
:1011C400FDFB03467B61524B9B68642202FB03F3E5
:1011D4001846FFF7EBFA0346F9691846FFF73AFB9E
:1011E40003464C491846FFF7E9FB03463B61484B6D
:1011F400DB68642202FB03F31846FFF7D7FA0346C1
:10120400F9691846FFF726FB034642491846FFF7DB
:10121400D5FB0346FB6000F085F8B8607969B869CE
:10122400FFF710FA034639691846FFF70BFA03462D
:10123400F9681846FFF706FA03464FF0814118464D
:10124400FFF7BCFB03461846FFF7CAFC03461AB275
:101254007B681A807969B869FFF7F2F9034639693E
:101264001846FFF7EDF90346F9681846FFF7EAF95F
:10127400034683F000434FF081411846FFF79EFB7D
:1012840003461846FFF7ACFC03461AB27B685A8043
:101294007969B869FFF7D6F9034639691846FFF743
:1012A400CFF90346F9681846FFF7CAF9034683F0F5
:1012B40000434FF081411846FFF780FB0346B968AD
:1012C4001846FFF77BFB034613491846FFF7C2FA9B
:1012D40003461846FFF784FC03461AB27B689A80DB
:1012E4000E4B1B78002B0ED00D4ABB6913600C4AC1
:1012F4007B6953600A4A3B699360094AFB68D3607F
:10130400074800F06DFB00BF2037BD4680BD00BF1D
:10131400680000200000A54400007A447800002002
:101324008400002080B400AF024B1846BD4680BC48
:10133400704700BF148E244380B400AF024B18469C
:10134400BD4680BC704700BFF8334C4380B582B0C3
:1013540000AFFFF7BBFD1348FFF794FD0023FB71BB
:1013640017E0FB790F4A52F82310FB790E4A52F822
:101374002320FB798A1A0D4941F82320FA79FB7955
:10138400084951F82220084941F82320FB79013308
:10139400FB71FB79032BE4D900BF00BF0837BD46BE
:1013A40080BD00BF480000205800002068000020D5
:1013B40080B58AB000AF0346FB800B46BB80134662
:1013C4007B80FFF7AFFF7861B7F904305B421846C2
:1013D400FFF7ECF903463B61B7F906301846FFF70F
:1013E400E5F90346FB60B7F902305B421846FFF7A4
:1013F400DDF903464B491846FFF7E0FA0346194660
:101404007869FFF727FA0346BB60B7F90630002B6B
:101414000BD1B7F90430002B07D1B7F90230002BF8
:1014240003D10120FFF73EFE79E03969F868FFF740
:1014340009F90346B9681846FFF704F90346184644
:10144400FFF7CEFB03467B623969F868FFF7F8F8CB
:101454000346B9681846FFF7F5F803461846FFF740
:10146400BFFB03463B623969F868FFF7E9F80346B6
:10147400B9681846FFF7E4F803461846FFF7B0FBCF
:101484000346FB613969F868FFF7DCF80346B9687D
:101494001846FFF7D5F803461846FFF7A1FB0346A5
:1014A400BB617B6AB3F57A7F02DD4FF47A737B62AA
:1014B4007B6A13F57A7F01DA1B4B7B623B6AB3F5D7
:1014C4007A7F02DD4FF47A733B623B6A13F57A7FCD
:1014D40001DA154B3B62FB69B3F57A7F02DD4FF409
:1014E4007A73FB61FB6913F57A7F01DA0E4BFB61BA
:1014F400BB69B3F57A7F02DD4FF47A73BB61BB69D4
:1015040013F57A7F01DA084BBB617B6A18B23B6A38
:1015140019B2FB691AB2BB691BB2FFF7DFFD2837AA
:10152400BD4680BD00007A4418FCFFFFF8B500AF4B
:101534001448FFF717FE144B1B78002B20D0134BD5
:101544001B691846FFF74CFB03461CB20F4B5B6943
:101554001846FFF745FB03461DB20C4B9B69184622
:10156400FFF73EFB03461EB2084BDB691846FFF744
:1015740037FB03461BB2324629462046FFF730FDAF
:1015840000BFF8BD7C00002078000020840000200B
:1015940080B483B000AF0346FB80B7F90630002B5C
:1015A40005DDFB8803F5C8639BB21BB20AE0B7F9FB
:1015B4000630002B05DAFB88A3F5C8639BB21BB287
:1015C40000E0002318460C37BD4680BC704700007D
:1015D40080B500AF0021104802F034F904210E4810
:1015E40002F07CFF08210C4802F078FF0C210A4825
:1015F40002F028F90021094802F024F904210748DF
:1016040002F020F90821054802F01CF90C210348D6
:1016140002F018F900BF80BD3C010020A4020020A4
:1016240080B483B000AF0346FB71FB79002B01D07B
:101634000123FB71FB794FF4616203FB02F21C4B43
:101644005A63FB794FF4616203FB02F2184B9A630D
:10165400FB794FF4616203FB02F2154BDA63FB7909
:101664004FF4616203FB02F2114B1A64FB794FF4ED
:10167400616203FB02F20F4B1A64FB794FF461625F
:1016840003FB02F20B4B5A63FB794FF4616203FBD9
:1016940002F2084B9A63FB794FF4616203FB02F296
:1016A400044BDA6300BF0C37BD4680BC704700BFF3
:1016B40000340140002C014080B584B000AF0346E3
:1016C4000A46FB711346BB80B7F904301846FFF78E
:1016D4005FFF0346FB81B7F90E30B3F5616F02DBA0
:1016E4004FF46163FB81B7F90E3013F5616F02DCCF
:1016F4004FF2F013FB81FB79032B67D801A252F858
:1017040023F000BF191700084B1700087D170008C5
:10171400A7170008FB895B429BB2FB81B7F90E3027
:10172400002B07DB2C4AB7F90E3053632A4B0022F7
:101734009A634CE0284B00225A63B7F90E305A42A0
:10174400254B9A6343E0FB895B429BB2FB81B7F96B
:101754000E30002B07DB204AB7F90E30D3631E4B43
:1017640000221A6433E01C4B0022DA63B7F90E300E
:101774005A42194B1A642AE0B7F90E30002B07DBE2
:10178400164AB7F90E301364144B00225A631EE054
:10179400124B00221A64B7F90E305A420F4B5A63A7
:1017A40015E0B7F90E30002B07DB0C4AB7F90E3001
:1017B40093630A4B0022DA6309E0084B00229A6320
:1017C400B7F90E305A42054BDA6300E000BF00BFA0
:1017D4001037BD4680BD00BF00340140002C0140DD
:1017E40080B483B000AF00237B6062E035497A683F
:1017F4001346DB0013449B000B444FF000021A60B5
:1018040030497A681346DB0013449B000B440433CD
:101814004FF000021A602B497A681346DB00134428
:101824009B000B4414334FF000021A6025497A6878
:101834001346DB0013449B000B4418334FF00002A3
:101844001A6020497A681346DB0013449B000B445A
:101854001C334FF000021A601A497A681346DB0001
:1018640013449B000B4420334FF000021A601549C7
:101874007A681346DB0013449B000B440833124A76
:101884001A6010497A681346DB0013449B000B442A
:101894000C330E4A1A600B497A681346DB00134472
:1018A4009B000B4410334FF07C521A607B68013369
:1018B4007B607B68032B99DD00BF00BF0C37BD46FE
:1018C40080BC7047AC000020CDCC4C3F8FC2753D2E
:1018D4002DE9F04182B000AF786039607B681B6805
:1018E40039681846FEF7ACFE03461A467B685A610F
:1018F4007B685C687B689D687B685A697B68DB6988
:1019040019461046FEF79CFE034619462846FEF784
:10191400A1FF03461D467B68DA687B685B6919464C
:101924001046FEF797FF034619462846FEF78AFE3F
:10193400034698467B681D697B685E697B68DB6942
:1019440019461846FEF77EFE034619463046FEF752
:1019540077FE03461A467B689B6919461046FEF7D4
:1019640071FE034619462846FEF774FF03461946DE
:101974004046FEF767FE034619462046FEF762FE20
:1019840003461A467B685A607B68DA697B689A6109
:101994007B685A697B68DA617B685B680E49184624
:1019A400FFF714F90346002B02D07B680A4A5A60F9
:1019B4007B685B6809491846FFF7EAF80346002B81
:1019C40002D07B68054A5A607B685B681846083712
:1019D400BD46BDE8F08100BF00006145000061C55F
:1019E40080B584B000AF78600023FB6016E0FA682D
:1019F4001346DB0013449B000C4A98187B68FA6872
:101A040053F822301946FFF763FF01467B68FA68F2
:101A1400043243F82210FB680133FB60FB68032B9C
:101A2400E5DD00BF00BF1037BD4680BDAC0000201F
:101A340080B485B000AF0346FB71FB79042B7BD8DF
:101A4400FB79042B40D10023FB6039E03D49FA685F
:101A54001346DB0013449B000B4404334FF0000295
:101A64001A603849FA681346DB0013449B000B44A0
:101A740014334FF000021A603249FA681346DB004F
:101A840013449B000B4418334FF000021A602D4995
:101A9400FA681346DB0013449B000B441C334FF0DD
:101AA40000021A602749FA681346DB0013449B00BE
:101AB4000B4420334FF000021A60FB680133FB60D3
:101AC400FB68032BC2DD38E0FA791E491346DB00BC
:101AD40013449B000B4404334FF000021A60FA795C
:101AE40018491346DB0013449B000B4414334FF096
:101AF40000021A60FA7913491346DB0013449B0071
:101B04000B4418334FF000021A60FA790D4913465A
:101B1400DB0013449B000B441C334FF000021A609B
:101B2400FA7908491346DB0013449B000B44203325
:101B34004FF000021A6000E000BF1437BD4680BCBD
:101B4400704700BFAC00002080B485B000AF0346EE
:101B54003960FB71FB79042B1FD8FB79042B12D15C
:101B64000023FB600BE00F49FA681346DB001344C3
:101B74009B000B443A681A60FB680133FB60FB6806
:101B8400032BF0DD0AE0FA7906491346DB0013441F
:101B94009B000B443A681A6000E000BF1437BD464E
:101BA40080BC7047AC00002080B588B000AF07F15E
:101BB400100300221A605A609A60DA602A4B9B690B
:101BC400294A43F010039361274B9B6903F01003E8
:101BD400FB60FB68244B9B69234A43F02003936119
:101BE400214B9B6903F02003BB60BB681E4B9B69C0
:101BF4001D4A43F0040393611B4B9B6903F00403E8
:101C04007B607B68184B9B69174A43F00803936118
:101C1400154B9B6903F008033B603B68002242F2CA
:101C24002001124801F01BF942F220033B61012319
:101C34007B610023BB610223FB6107F1100319469A
:101C44000A4800F061FF04233B6100237B61012308
:101C5400BB6107F110031946054800F055FF00BFAA
:101C64002037BD4680BD00BF001002400010014077
:101C74000014014080B500AF00F0DCFD00F015F861
:101C8400FFF792FF00F080F900F0D2F900F024FA97
:101C940000F076FA00F0B4F800F0C6FA00F02EFD79
:101CA400FEF7DEFFFEF7EAFFFCE780B590B000AF79
:101CB40007F1180328220021184602F09BFE3B1D61
:101CC40000221A605A609A60DA601A610123BB61CB
:101CD4004FF48033FB6100233B620123BB62022388
:101CE4007B634FF48033BB634FF4E013FB6307F172
:101CF4001803184601F0E4F80346002B01D000F065
:101D040019F80F237B600223BB600023FB604FF4B0
:101D140080633B6100237B613B1D0221184601F077
:101D240051FB0346002B01D000F004F800BF4037FC
:101D3400BD4680BD80B400AF72B600BFFEE70000B0
:101D440080B485B000AF154B9B69144A43F001037E
:101D54009361124B9B6903F00103BB60BB680F4B9B
:101D6400DB690E4A43F08053D3610C4BDB6903F00B
:101D740080537B607B680A4B5B68FB60FB6823F0E5
:101D8400E063FB60FB6843F00073FB60044AFB689C
:101D9400536000BF1437BD4680BC7047001002403A
:101DA4000000014080B400AFFEE780B400AFFEE75E
:101DB40080B400AFFEE780B400AFFEE780B400AFAC
:101DC400FEE780B400AF00BFBD4680BC704780B45E
:101DD40000AF00BFBD4680BC704780B400AF00BFF9
:101DE400BD4680BC704780B500AF00F069FD00BF00
:101DF40080BD80B400AF00BFBD4680BC704700000A
:101E040080B596B000AF07F1480300221A605A600B
:101E14009A60DA6007F1400300221A605A6007F101
:101E2400240300221A605A609A60DA601A615A61C7
:101E34009A613B1D20220021184602F0DBFD504B25
:101E4400504A1A604E4B00225A604D4B00229A6051
:101E54004B4B40F60F62DA60494B00221A61484B43
:101E640000225A61464B80229A61454801F042FCA7
:101E74000346002B01D0FFF75DFF4FF48053BB6492
:101E840007F1480319463E4801F084FF0346002B3E
:101E940001D0FFF74FFF3A4801F07BFC0346002BCB
:101EA40001D0FFF747FF00233B6400237B6407F165
:101EB40040031946324802F0BDFB0346002B01D013
:101EC400FFF738FF60237B620023BB620023FB62C1
:101ED40000233B6300237B630023BB630023FB637A
:101EE40007F1240300221946254801F095FE034614
:101EF400002B01D0FFF71EFF07F12403042219462B
:101F04001F4801F089FE0346002B01D0FFF712FFA2
:101F140007F1240308221946194801F07DFE0346FF
:101F2400002B01D0FFF706FF07F124030C2219460A
:101F3400134801F071FE0346002B01D0FFF7FAFEAF
:101F440000237B600023BB600023FB6000233B6114
:101F540000237B614FF40053BB6100233B623B1DB4
:101F64001946074802F0D2FB0346002B01D0FFF7C5
:101F7400E1FE034800F03EFB00BF5837BD4680BD7C
:101F84003C010020002C014080B58CB000AF07F16B
:101F94000C0324220021184602F02CFD3B1D0022D4
:101FA4001A605A60214B4FF080421A601F4B002286
:101FB4005A601E4B00229A601C4B4FF6FF72DA6087
:101FC4001A4B00221A61194B00229A610323FB6009
:101FD40000233B6101237B610023BB610023FB6180
:101FE40000233B6201237B620023BB620023FB626C
:101FF40007F10C0319460D4801F0DEFC0346002BE3
:1020040001D0FFF797FE00237B600023BB603B1DDC
:102014001946064802F00EFB0346002B01D0FFF7D9
:1020240089FE00BF3037BD4680BD00BF840100205B
:1020340080B58CB000AF07F10C03242200211846B0
:1020440002F0D8FC3B1D00221A605A60204B214A42
:102054001A601F4B00225A601D4B00229A601C4BD1
:102064004FF6FF72DA601A4B00221A61184B0022F5
:102074009A610323FB6000233B6101237B610023FE
:10208400BB610023FB6100233B6201237B620023CD
:10209400BB620023FB6207F10C0319460C4801F0F4
:1020A4008BFC0346002B01D0FFF744FE00237B602A
:1020B4000023BB603B1D1946054802F0BBFA0346EA
:1020C400002B01D0FFF736FE00BF3037BD4680BD80
:1020D400CC0100200004004080B58CB000AF07F1B3
:1020E4000C0324220021184602F084FC3B1D00222C
:1020F4001A605A60204B214A1A601F4B00225A6012
:102104001D4B00229A601C4B4FF6FF72DA601A4B8B
:1021140000221A61184B00229A610323FB600023FA
:102124003B6101237B610023BB610023FB6100232E
:102134003B6201237B620023BB620023FB6207F145
:102144000C0319460C4801F037FC0346002B01D060
:10215400FFF7F0FD00237B600023BB603B1D1946A5
:10216400054802F067FA0346002B01D0FFF7E2FDB1
:1021740000BF3037BD4680BD140200200008004077
:1021840080B58CB000AF07F10C032422002118465F
:1021940002F030FC3B1D00221A605A60204B214A99
:1021A4001A601F4B00225A601D4B00229A601C4B80
:1021B4004FF6FF72DA601A4B00221A61184B0022A4
:1021C4009A610323FB6000233B6101237B610023AD
:1021D400BB610023FB6100233B6201237B6200237C
:1021E400BB620023FB6207F10C0319460C4801F0A3
:1021F400E3FB0346002B01D0FFF79CFD00237B602B
:102204000023BB603B1D1946054802F013FA034640
:10221400002B01D0FFF78EFD00BF3037BD4680BDD7
:102224005C020020000C004080B596B000AF07F1BE
:10223400480300221A605A609A60DA6007F140038A
:1022440000221A605A6007F1240300221A605A60BF
:102254009A60DA601A615A619A613B1D202200215A
:10226400184602F0C7FB504B504A1A604E4B0022EE
:102274005A604D4B00229A604B4B40F60F62DA6075
:10228400494B00221A61484B00225A61464B802276
:102294009A61454801F02EFA0346002B01D0FFF75E
:1022A40049FD4FF48053BB6407F1480319463E4887
:1022B40001F070FD0346002B01D0FFF73BFD3A48C7
:1022C40001F067FA0346002B01D0FFF733FD00232A
:1022D4003B6400237B6407F140031946324802F053
:1022E400A9F90346002B01D0FFF724FD60237B628C
:1022F4000023BB620023FB6200233B6300237B6358
:102304000023BB630023FB6307F124030022194667
:10231400254801F081FC0346002B01D0FFF70AFD9C
:1023240007F12403042219461F4801F075FC0346F3
:10233400002B01D0FFF7FEFC07F124030822194605
:10234400194801F069FC0346002B01D0FFF7F2FCA9
:1023540007F124030C221946134801F05DFC0346DF
:10236400002B01D0FFF7E6FC00237B600023BB6059
:102374000023FB6000233B6100237B614FF4005387
:10238400BB6100233B623B1D1946074802F0BEF9BE
:102394000346002B01D0FFF7CDFC034800F02AF9D7
:1023A40000BF5837BD4680BDA40200200034014060
:1023B40080B485B000AF78607B681B68124A934292
:1023C4000CD1124B9B69114A43F4006393610F4B88
:1023D4009B6903F40063FB60FB6810E07B681B6887
:1023E4000B4A93420BD1094B9B69084A43F40053AF
:1023F4009361064B9B6903F40053BB60BB6800BF49
:102404001437BD4680BC7047002C014000100240C8
:102414000034014080B590B000AF786007F12C0320
:1024240000221A605A609A60DA607B681B68B3F114
:10243400804F4FD1684BDB69674A43F00103D36196
:10244400654BDB6903F00103BB62BB6A624B9B69AA
:10245400614A43F0040393615F4B9B6903F00403F7
:102464007B627B6A5C4B9B695B4A43F00803936124
:10247400594B9B6903F008033B623B6A4FF40043EA
:10248400FB6200233B6301237B6307F12C031946A2
:10249400524800F039FB0823FB6200233B6301230D
:1024A4007B6307F12C0319464D4800F02DFB4D4B7F
:1024B4005B68FB63FB6B23F44073FB63FB6B43F0D0
:1024C400E063FB63FB6B43F48073FB63454AFB6B84
:1024D40053607CE07B681B68434A934224D13E4BA3
:1024E400DB693D4A43F00203D3613B4BDB6903F0F4
:1024F4000203FB61FB69384B9B69374A43F00403D1
:102504009361354B9B6903F00403BB61BB69C02332
:10251400FB6200233B6301237B6307F12C03194611
:102524002E4800F0F1FA52E07B681B682F4A934270
:1025340024D1294BDB69284A43F00403D361264B99
:10254400DB6903F004037B617B69234B9B69224AAB
:1025540043F008039361204B9B6903F008033B613C
:102564003B69C023FB6200233B6301237B6307F1C8
:102574002C0319461A4800F0C7FA28E07B681B6848
:102584001B4A934223D1144BDB69134A43F00803DB
:10259400D361114BDB6903F00803FB60FB680E4B4E
:1025A4009B690D4A43F0040393610B4B9B6903F051
:1025B4000403BB60BB680323FB6200233B6301236A
:1025C4007B6307F12C031946044800F09DFA00BF11
:1025D4004037BD4680BD00BF0010024000080140E6
:1025E400000C0140000001400004004000080040CD
:1025F400000C004080B58AB000AF786007F1140386
:1026040000221A605A609A60DA607B681B68344A58
:10261400934243D1334B9B69324A43F0080393619D
:10262400304B9B6903F008033B613B692D4B9B696D
:102634002C4A43F0040393612A4B9B6903F004037F
:10264400FB60FB6803237B610223BB6102233B62C3
:1026540007F114031946244800F056FA4FF41063A6
:102664007B610223BB6102233B6207F11403194619
:102674001E4800F049FA1E4B5B687B627B6A23F0BC
:10268400C0037B627B6A43F0E0637B627B6A43F056
:1026940040037B62164A7B6A53601DE07B681B68BB
:1026A400144A934218D10F4B9B690E4A43F010030E
:1026B40093610C4B9B6903F01003BB60BB684FF440
:1026C40070737B610223BB6102233B6207F1140335
:1026D4001946094800F018FA00BF2837BD4680BDE6
:1026E400002C014000100240000C01400008014091
:1026F40000000140003401400010014080B500AFEB
:10270400114B124A1A60104B4FF4E1325A600E4BCF
:1027140000229A600C4B0022DA600B4B00221A61F3
:10272400094B0C225A61084B00229A61064B002285
:10273400DA61054802F05FF80346002B01D0FFF789
:10274400F9FA00BF80BD00BFEC0200200038014050
:1027540080B588B000AF786007F1100300221A60DA
:102764005A609A60DA607B681B681C4A934231D1D4
:102774001B4B9B691A4A43F480439361184B9B6932
:1027840003F48043FB60FB68154B9B69144A43F0D8
:1027940004039361124B9B6903F00403BB60BB68A1
:1027A4004FF400733B6102237B610323FB6107F158
:1027B400100319460B4800F0A7F94FF480633B61FE
:1027C40000237B610023BB6107F110031946054810
:1027D40000F09AF900BF2037BD4680BD00380140A3
:1027E40000100240000801400C480D490D4A002326
:1027F40002E0D458C4500433C4188C42F9D30A4AB2
:102804000A4C002301E013600432A242FBD3FFF719
:10281400F0FA02F0CBF8FFF72DFA70470000002021
:102824000C000020504A00080C0000203403002053
:10283400FEE7000080B500AF084B1B68074A43F071
:1028440010031360032000F02BF90F2000F008F8A8
:10285400FFF776FA0023184680BD00BF002002402F
:1028640080B582B000AF7860124B1A68124B1B78A7
:1028740019464FF47A73B3FBF1F3B2FBF3F3184642
:1028840000F035F90346002B01D001230EE07B68EC
:102894000F2B0AD8002279684FF0FF3000F00BF9B3
:1028A400064A7B681360002300E0012318460837BA
:1028B400BD4680BD00000020080000200400002068
:1028C40080B400AF054B1B781A46054B1B681344B4
:1028D400034A136000BFBD4680BC70470800002057
:1028E4003003002080B400AF024B1B681846BD467D
:1028F40080BC70473003002080B584B000AF78609E
:10290400FFF7F0FFB8607B68FB60FB68B3F1FF3F43
:1029140005D00A4B1B781A46FB681344FB6000BFC2
:10292400FFF7E0FF0246BB68D31AFA689A42F7D869
:1029340000BF00BF1037BD4680BD00BF08000020A7
:1029440080B485B000AF78607B6803F00703FB6058
:102954000C4BDB68BB60BA684FF6FF031340BB60E7
:10296400FB681A02BB68134343F0BF6343F40033AC
:10297400BB60044ABB68D36000BF1437BD4680BC4B
:10298400704700BF00ED00E080B400AF044BDB688B
:102994001B0A03F007031846BD4680BC704700BFFE
:1029A40000ED00E080B483B000AF03463960FB71F2
:1029B40097F90730002B0ADB3B68DAB20C4997F928
:1029C40007301201D2B20B4483F800230AE03B68BB
:1029D400DAB20849FB7903F00F03043B1201D2B2C7
:1029E4000B441A7600BF0C37BD4680BC704700BF4D
:1029F40000E100E000ED00E080B489B000AFF860D1
:102A0400B9607A60FB6803F00703FB61FB69C3F1FB
:102A14000703042B28BF0423BB61FB690433062B83
:102A240002D9FB69033B00E000237B614FF0FF32D6
:102A3400BB6902FA03F3DA43BB681A407B699A4024
:102A44004FF0FF317B6901FA03F3D9437B680B40F4
:102A5400134318462437BD4680BC704780B582B006
:102A640000AF78607B68013BB3F1807F01D3012321
:102A74000FE00A4A7B68013B53600F214FF0FF309F
:102A8400FFF790FF054B00229A60044B07221A605F
:102A9400002318460837BD4680BD00BF10E000E0A3
:102AA40080B582B000AF78607868FFF749FF00BF57
:102AB4000837BD4680BD80B586B000AF0346B96017
:102AC4007A60FB7300237B61FFF75EFF78617A68AD
:102AD400B9687869FFF790FF024697F90F301146FD
:102AE4001846FFF75FFF00BF1837BD4680BD80B5AD
:102AF40082B000AF78607868FFF7B0FF03461846ED
:102B04000837BD4680BD000080B48BB000AF78604C
:102B1400396000237B6200233B6279E101227B6AF6
:102B240002FA03F3FB613B681B68FA691340BB615B
:102B3400BA69FB699A4240F068813B685B68964ACF
:102B440093425ED0944A934275D8944A934258D0A3
:102B5400924A93426FD8924A934252D0904A9342F7
:102B640069D8904A93424CD08E4A934263D88E4A95
:102B7400934246D08C4A93425DD8122B2AD8122B0A
:102B840059D801A252F823F0072C0008E12B0008C1
:102B9400F32B0008352C00083B2C00083B2C0008C4
:102BA4003B2C00083B2C00083B2C00083B2C000865
:102BB4003B2C00083B2C00083B2C00083B2C000855
:102BC4003B2C00083B2C00083B2C0008E92B000898
:102BD400FD2B0008754A934213D02CE03B68DB6858
:102BE4003B6229E03B68DB6804333B6224E03B68DA
:102BF400DB6808333B621FE03B68DB680C333B62F5
:102C04001AE03B689B68002B02D104233B6213E06B
:102C14003B689B68012B05D108233B627B68FA69FA
:102C24001A6109E008233B627B68FA695A6103E090
:102C340000233B6200E000BFBB69FF2B01D87B6827
:102C440001E07B6804337B61BB69FF2B02D87B6A9C
:102C54009B0002E07B6A083B9B003B617B691A682E
:102C64000F213B6901FA03F3DB431A40396A3B69DC
:102C740001FA03F31A437B691A603B685B6803F04B
:102C84008053002B00F0C180494B9B69484A43F0B4
:102C940001039361464B9B6903F00103BB60BB686E
:102CA400444A7B6A9B08023352F82330FB607B6AF8
:102CB40003F003039B000F2202FA03F3DB43FA68D9
:102CC4001340FB607B683C4A93421FD07B683B4ABD
:102CD400934219D07B683A4A934213D07B68394AAD
:102CE40093420DD07B68384A934207D07B68374AB9
:102CF400934201D105230AE0062308E0042306E0F9
:102D0400032304E0022302E0012300E000237A6AA3
:102D140002F0030292009340FA681343FB602549D2
:102D24007B6A9B080233FA6841F823203B685B689E
:102D340003F48033002B06D0254B1A682449BB6961
:102D440013430B6006E0224B1A68BB69DB4320493E
:102D540013400B603B685B6803F40033002B06D020
:102D64001B4B5A681A49BB6913434B6006E0184B66
:102D74005A68BB69DB43164913404B603B685B6888
:102D840003F48013002B25D0114B9A681049BB69BA
:102D940013438B6025E000BF0000321000003110A7
:102DA4000000221000002110000012100000111079
:102DB400001002400000014000080140000C0140E6
:102DC400001001400014014000180140001C0140A3
:102DD40000040140154B9A68BB69DB431349134057
:102DE4008B603B685B6803F40013002B06D00F4B29
:102DF400DA680E49BB691343CB6006E00B4BDA6813
:102E0400BB69DB4309491340CB607B6A01337B62B6
:102E14003B681A687B6A22FA03F3002B7FF47EAEC8
:102E240000BF00BF2C37BD4680BC70470004014082
:102E340080B485B000AF78600B467B807B689A686D
:102E44007B881340002B02D00123FB7301E0002395
:102E5400FB73FB7B18461437BD4680BC704780B4B7
:102E640083B000AF78600B467B8013467B707B7821
:102E7400002B03D07A887B681A6103E07B881A04EC
:102E84007B681A6100BF0C37BD4680BC704780B4B4
:102E940085B000AF78600B467B807B68DB68FB60A5
:102EA4007A88FB6813401A04FB68D9437B880B407B
:102EB4001A437B681A6100BF1437BD4680BC704753
:102EC40080B586B000AF78607B68002B01D1012308
:102ED40072E27B681B6803F00103002B00F087801B
:102EE400924B5B6803F00C03042B0CD08F4B5B6894
:102EF40003F00C03082B12D18C4B5B6803F4803372
:102F0400B3F5803F0BD1894B1B6803F40033002BCE
:102F14006CD07B685B68002B68D101234CE27B6832
:102F24005B68B3F5803F06D1804B1B687F4A43F44E
:102F3400803313602EE07B685B68002B0CD17B4BE5
:102F44001B687A4A23F480331360784B1B68774AF2
:102F540023F4802313601DE07B685B68B3F5A02F26
:102F64000CD1724B1B68714A43F4802313606F4B7E
:102F74001B686E4A43F4803313600BE06B4B1B6891
:102F84006A4A23F480331360684B1B68674A23F44E
:102F9400802313607B685B68002B13D0FFF7A2FCCF
:102FA400386108E0FFF79EFC02463B69D31A642BA4
:102FB40001D9032300E25D4B1B6803F40033002BAB
:102FC400F0D014E0FFF78EFC386108E0FFF78AFCCC
:102FD40002463B69D31A642B01D90323ECE1534B1A
:102FE4001B6803F40033002BF0D100E000BF7B68C2
:102FF4001B6803F00203002B63D04C4B5B6803F0A7
:103004000C03002B0BD0494B5B6803F00C03082B1B
:103014001CD1464B5B6803F48033002B16D1434B21
:103024001B6803F00203002B05D07B681B69012B8E
:1030340001D00123C0E13D4B1B6823F0F8027B68FB
:103044005B69DB00394913430B603AE07B681B6919
:10305400002B20D0364B01221A60FFF743FC386165
:1030640008E0FFF73FFC02463B69D31A022B01D963
:103074000323A1E12D4B1B6803F00203002BF0D0C6
:103084002A4B1B6823F0F8027B685B69DB00274945
:1030940013430B6015E0264B00221A60FFF722FC55
:1030A400386108E0FFF71EFC02463B69D31A022B85
:1030B40001D9032380E11D4B1B6803F00203002B9D
:1030C400F0D17B681B6803F00803002B3AD07B68BF
:1030D4009B69002B19D0174B01221A60FFF702FCE1
:1030E400386108E0FFF7FEFB02463B69D31A022B66
:1030F40001D9032360E10D4B5B6A03F00203002B4B
:10310400F0D0012000F0D8FA1CE00A4B00221A602B
:10311400FFF7E8FB38610FE0FFF7E4FB02463B6989
:10312400D31A022B08D9032346E100BF0010024042
:103134000000424280044242924B5B6A03F0020365
:10314400002BE9D17B681B6803F00403002B00F01B
:10315400A6800023FB758B4BDB6903F08053002BA7
:103164000DD1884BDB69874A43F08053D361854B8B
:10317400DB6903F08053BB60BB680123FB75824BA2
:103184001B6803F48073002B18D17F4B1B687E4AA5
:1031940043F480731360FFF7A5FB386108E0FFF781
:1031A400A1FB02463B69D31A642B01D9032303E133
:1031B400754B1B6803F48073002BF0D07B68DB68CD
:1031C400012B06D16F4B1B6A6E4A43F00103136255
:1031D4002DE07B68DB68002B0CD16A4B1B6A694AC3
:1031E40023F001031362674B1B6A664A23F004034E
:1031F40013621CE07B68DB68052B0CD1614B1B6AF6
:10320400604A43F0040313625E4B1B6A5D4A43F059
:10321400010313620BE05B4B1B6A5A4A23F0010360
:103224001362584B1B6A574A23F0040313627B68EA
:10323400DB68002B15D0FFF755FB38610AE0FFF778
:1032440051FB02463B69D31A41F28832934201D9B9
:103254000323B1E04B4B1B6A03F00203002BEED0B7
:1032640014E0FFF73FFB38610AE0FFF73BFB02463F
:103274003B69D31A41F28832934201D903239BE07C
:10328400404B1B6A03F00203002BEED1FB7D012BA4
:1032940005D13C4BDB693B4A23F08053D3617B6807
:1032A400DB69002B00F08780364B5B6803F00C036E
:1032B400082B61D07B68DB69022B46D1334B00229B
:1032C4001A60FFF70FFB386108E0FFF70BFB0246BB
:1032D4003B69D31A022B01D903236DE0294B1B68E8
:1032E40003F00073002BF0D17B681B6AB3F5803FB9
:1032F40008D1244B5B6823F400327B689B68214926
:1033040013434B601F4B5B6823F474127B68196A88
:103314007B685B6A0B431B4913434B601B4B0122C5
:103324001A60FFF7DFFA386108E0FFF7DBFA0246BC
:103334003B69D31A022B01D903233DE0114B1B68CF
:1033440003F00073002BF0D035E0104B00221A601C
:10335400FFF7C8FA386108E0FFF7C4FA02463B6990
:10336400D31A022B01D9032326E0064B1B6803F072
:103374000073002BF0D11EE07B68DB69012B07D1C1
:10338400012319E000100240007000406000424236
:103394000B4B5B68FB60FB6803F480327B681B6A41
:1033A4009A4206D1FB6803F470127B685B6A9A4206
:1033B40001D0012300E0002318461837BD4680BD24
:1033C4000010024080B584B000AF786039607B683B
:1033D400002B01D10123D0E06A4B1B6803F00703E3
:1033E4003A689A4210D9674B1B6823F00702654973
:1033F4003B6813430B60634B1B6803F007033A6895
:103404009A4201D00123B8E07B681B6803F00203F1
:10341400002B20D07B681B6803F00403002B05D02D
:10342400594B5B68584A43F4E06353607B681B68FC
:1034340003F00803002B05D0534B5B68524A43F456
:1034440060535360504B5B6823F0F0027B689B68C9
:103454004D4913434B607B681B6803F00103002B49
:1034640040D07B685B68012B07D1474B1B6803F492
:103474000033002B15D101237FE07B685B68022BAE
:1034840007D1414B1B6803F00073002B09D10123C2
:1034940073E03D4B1B6803F00203002B01D10123B1
:1034A4006BE0394B5B6823F003027B685B68364949
:1034B40013434B60FFF716FAF8600AE0FFF712FABD
:1034C4000246FB68D31A41F28832934201D903239E
:1034D40053E02D4B5B6803F00C027B685B689B0038
:1034E4009A42EBD1274B1B6803F007033A689A42D0
:1034F40010D2244B1B6823F0070222493B68134374
:103504000B60204B1B6803F007033A689A4201D012
:10351400012332E07B681B6803F00403002B08D00E
:10352400194B5B6823F4E0627B68DB68164913433C
:103534004B607B681B6803F00803002B09D0124B17
:103544005B6823F460527B681B69DB000E491343FC
:103554004B6000F021F802460B4B5B681B0903F03B
:103564000F030A49CB5C22FA03F3094A1360094B9F
:103574001B681846FFF774F9002318461037BD4638
:1035840080BD00BF0020024000100240304A000805
:10359400000000200400002090B48AB000AF294B42
:1035A4003C1D0FCB84E80F0040F201233B80002335
:1035B400FB610023BB6100237B6200237B6100234A
:1035C4003B62214B5B68FB61FB6903F00C03042B3A
:1035D40002D0082B03D02BE01C4B3B622BE0FB6991
:1035E4009B0C03F00F0328333B4413F8243C7B610A
:1035F400FB6903F48033002B12D0134B5B685B0C24
:1036040003F0010328333B4413F8283CBB617B6976
:103614000E4A03FB02F2BB69B2FBF3F37B6204E0E4
:103624007B690B4A02FB03F37B627B6A3B6202E029
:10363400064B3B6200BF3B6A18462837BD4690BC28
:10364400704700BF204A00080010024000127A00B0
:1036540000093D0080B400AF024B1B681846BD460C
:1036640080BC70470000002080B500AFFFF7F2FF78
:103674000246054B5B681B0A03F007030349CB5C56
:1036840022FA03F3184680BD00100240404A0008A5
:1036940080B500AFFFF7DEFF0246054B5B68DB0A2F
:1036A40003F007030349CB5C22FA03F3184680BDF9
:1036B40000100240404A000880B485B000AF786032
:1036C4000A4B1B680A4AA2FB03235B0A7A6802FBC3
:1036D40003F3FB6000BFFB685A1EFA60002BF9D1AC
:1036E40000BF00BF1437BD4680BC704700000020F7
:1036F400D34D621080B582B000AF78607B68002B38
:1037040001D1012341E07B6893F83D30DBB2002B0B
:1037140006D17B68002283F83C207868FEF748FED7
:103724007B68022283F83D207B681A687B68043337
:103734001946104600F0F2FB7B68012283F846200C
:103744007B68012283F83E207B68012283F83F20B6
:103754007B68012283F840207B68012283F84120A2
:103764007B68012283F842207B68012283F843208E
:103774007B68012283F844207B68012283F845207A
:103784007B68012283F83D20002318460837BD4694
:1037940080BD80B582B000AF78607B68002B01D11A
:1037A400012341E07B6893F83D30DBB2002B06D166
:1037B4007B68002283F83C20786800F039F87B6845
:1037C400022283F83D207B681A687B68043319461B
:1037D400104600F0A3FB7B68012283F846207B6837
:1037E400012283F83E207B68012283F83F207B6816
:1037F400012283F840207B68012283F841207B6802
:10380400012283F842207B68012283F843207B68ED
:10381400012283F844207B68012283F845207B68D9
:10382400012283F83D20002318460837BD4680BD99
:1038340080B483B000AF786000BF0C37BD4680BC55
:103844007047000080B584B000AF786039603B6891
:10385400002B09D17B6893F83E30DBB2012B14BFF7
:1038640001230023DBB222E03B68042B09D17B68EF
:1038740093F83F30DBB2012B14BF01230023DBB2EA
:1038840015E03B68082B09D17B6893F84030DBB224
:10389400012B14BF01230023DBB208E07B6893F8FB
:1038A4004130DBB2012B14BF01230023DBB2002B18
:1038B40001D0012372E03B68002B04D17B68022213
:1038C40083F83E2013E03B68042B04D17B6802227A
:1038D40083F83F200BE03B68082B04D17B6802226D
:1038E40083F8402003E07B68022283F841207B6850
:1038F4001B6801223968184600F0CCFD7B681B6800
:10390400284A934204D07B681B68274A934201D11A
:10391400012300E00023002B07D07B681B685A6C4E
:103924007B681B6842F400425A647B681B681D4A2A
:10393400934218D07B681B681B4A934213D07B6860
:103944001B68B3F1804F0ED07B681B68174A934203
:1039540009D07B681B68164A934204D07B681B68B5
:10396400144A934211D17B681B689B6803F00703D8
:10397400FB60FB68062B10D07B681B681A687B68A9
:103984001B6842F001021A6007E07B681B681A6832
:103994007B681B6842F001021A6000231846103746
:1039A400BD4680BD002C01400034014000040040AD
:1039B40000080040000C004080B586B000AF78607D
:1039C40039607B68002B01D1012393E07B6893F875
:1039D4003D30DBB2002B06D17B68002283F83C200B
:1039E4007868FEF717FD7B68022283F83D207B6828
:1039F4001B689B687A68126823F4804323F00703EA
:103A040093607B681A687B6804331946104600F09B
:103A140085FA7B681B689B687B617B681B689B6974
:103A24003B617B681B681B6AFB603B681B687A69A7
:103A340013437B613B6923F4407323F003033B612D
:103A44003B689A683B689B691B0213433A691343BA
:103A54003B613B6923F4406323F00C033B613B6906
:103A640023F4704323F0F0033B613B68DA683B685E
:103A7400DB691B0213433A6913433B613B681B69CF
:103A84001A013B681B6A1B0313433A6913433B61E6
:103A9400FB6823F02203FB603B685A683B685B6960
:103AA4001B011343FA681343FB607B681B687A6944
:103AB4009A607B681B683A699A617B681B68FA683C
:103AC4001A627B68012283F846207B68012283F80E
:103AD4003E207B68012283F83F207B68012283F823
:103AE40042207B68012283F843207B68012283F80B
:103AF4003D20002318461837BD4680BD80B584B0EC
:103B040000AF786039607B6893F83E30FB737B6864
:103B140093F83F30BB737B6893F842307B737B68C8
:103B240093F843303B733B68002B10D1FB7B012B94
:103B340002D17B7B012B01D0012369E07B68022247
:103B440083F83E207B68022283F8422031E03B6800
:103B5400042B10D1BB7B012B02D13B7B012B01D069
:103B6400012355E07B68022283F83F207B68022210
:103B740083F843201DE0FB7B012B08D1BB7B012B89
:103B840005D17B7B012B02D13B7B012B01D001238F
:103B94003EE07B68022283F83E207B68022283F8A1
:103BA4003F207B68022283F842207B68022283F84C
:103BB40043203B68002B03D03B68042B08D00FE064
:103BC4007B681B6801220021184600F063FC16E0A4
:103BD4007B681B6801220421184600F05BFC0EE0A0
:103BE4007B681B6801220021184600F053FC7B68A7
:103BF4001B6801220421184600F04CFC00BF7B68BE
:103C04001B681A687B681B6842F001021A60002373
:103C140018461037BD4680BD80B584B000AFF8604B
:103C2400B9607A60FB6893F83C30012B01D1022320
:103C3400ACE0FB68012283F83C207B680C2B00F28B
:103C44009F8001A252F823F0813C0008853D0008C2
:103C5400853D0008853D0008C13C0008853D0008FD
:103C6400853D0008853D0008033D0008853D0008AA
:103C7400853D0008853D0008433D0008FB681B683E
:103C8400B968184600F0C4F9FB681B689A69FB68B8
:103C94001B6842F008029A61FB681B689A69FB681A
:103CA4001B6822F004029A61FB681B689969BB686F
:103CB4001A69FB681B680A439A6162E0FB681B6827
:103CC400B968184600F014FAFB681B689A69FB6827
:103CD4001B6842F400629A61FB681B689A69FB687E
:103CE4001B6822F480629A61FB681B689969BB684F
:103CF4001B691A02FB681B680A439A6141E0FB686E
:103D04001B68B968184600F067FAFB681B68DA6933
:103D1400FB681B6842F00802DA61FB681B68DA6919
:103D2400FB681B6822F00402DA61FB681B68D9692E
:103D3400BB681A69FB681B680A43DA6121E0FB6807
:103D44001B68B968184600F0BBFAFB681B68DA699F
:103D5400FB681B6842F40062DA61FB681B68DA697D
:103D6400FB681B6822F48062DA61FB681B68D9690E
:103D7400BB681B691A02FB681B680A43DA6100E02E
:103D840000BFFB68002283F83C200023184610374C
:103D9400BD4680BD80B584B000AF786039607B6873
:103DA40093F83C30012B01D10223B3E07B6801225C
:103DB40083F83C207B68022283F83D207B681B68E3
:103DC4009B68FB60FB6823F07703FB60FB6823F4CC
:103DD4007F43FB607B681B68FA689A603B681B68DA
:103DE400B3F5005F3ED0B3F5005F00F28780B3F512
:103DF400805F00F08580B3F5805F7FD8702B1AD088
:103E0400702B7BD8602B50D0602B77D8502B3CD0B4
:103E1400502B73D8402B58D0402B6FD8302B64D004
:103E2400302B6BD8202B60D0202B67D8002B5CD094
:103E3400102B5AD062E07B6818683B6899683B682D
:103E44005A683B68DB6800F006FB7B681B689B686C
:103E5400FB60FB6843F07703FB607B681B68FA68D0
:103E64009A604EE07B6818683B6899683B685A68BA
:103E74003B68DB6800F0EFFA7B681B689A687B6834
:103E84001B6842F480429A603BE07B6818683B6898
:103E940059683B68DB681A4600F066FA7B681B6861
:103EA4005021184600F0BDFA2BE07B6818683B6887
:103EB40059683B68DB681A4600F084FA7B681B6823
:103EC4006021184600F0ADFA1BE07B6818683B6877
:103ED40059683B68DB681A4600F046FA7B681B6841
:103EE4004021184600F09DFA0BE07B681A683B6895
:103EF4001B681946104600F094FA02E000BF00E087
:103F040000BF7B68012283F83D207B68002283F890
:103F14003C20002318461037BD4680BD80B485B0D0
:103F240000AF786039607B681B68FB607B68334A4C
:103F3400934213D07B68324A93420FD07B68B3F12B
:103F4400804F0BD07B682F4A934207D07B682E4A60
:103F5400934203D07B682D4A934208D1FB6823F037
:103F64007003FB603B685B68FA681343FB607B6823
:103F7400224A934213D07B68214A93420FD07B6834
:103F8400B3F1804F0BD07B681E4A934207D07B6805
:103F94001D4A934203D07B681C4A934208D1FB68B4
:103FA40023F44073FB603B68DB68FA681343FB60EF
:103FB400FB6823F080023B685B691343FB607B680A
:103FC400FA681A603B689A687B68DA623B681A6828
:103FD4007B689A627B68094A934203D07B68084AEB
:103FE400934203D13B681A697B681A637B68012298
:103FF4005A6100BF1437BD4680BC7047002C014095
:10400400003401400004004000080040000C00405F
:1040140080B487B000AF786039607B681B6A23F096
:1040240001027B681A627B681B6A7B617B685B6840
:104034003B617B689B69FB60FB6823F07003FB605A
:10404400FB6823F00303FB603B681B68FA681343B7
:10405400FB607B6923F002037B613B689B687A69A0
:1040640013437B617B68204A934203D07B681F4AD9
:1040740093420CD17B6923F008037B613B68DB68C6
:104084007A6913437B617B6923F004037B617B685A
:10409400154A934203D07B68144A934211D13B6979
:1040A40023F480733B613B6923F400733B613B68F9
:1040B4005B693A6913433B613B689B693A69134303
:1040C4003B617B683A695A607B68FA689A613B682D
:1040D4005A687B685A637B687A691A6200BF1C3726
:1040E400BD4680BC704700BF002C01400034014035
:1040F40080B487B000AF786039607B681B6A23F0B6
:1041040010027B681A627B681B6A7B617B685B6850
:104114003B617B689B69FB60FB6823F4E043FB60C5
:10412400FB6823F44073FB603B681B681B02FA685E
:104134001343FB607B6923F020037B613B689B682E
:104144001B017A6913437B617B68214A934203D044
:104154007B68204A93420DD17B6923F080037B6105
:104164003B68DB681B017A6913437B617B6923F03D
:1041740040037B617B68164A934203D07B68154AEF
:10418400934213D13B6923F480633B613B6923F47D
:1041940000633B613B685B699B003A6913433B6185
:1041A4003B689B699B003A6913433B617B683A69AE
:1041B4005A607B68FA689A613B685A687B689A63BC
:1041C4007B687A691A6200BF1C37BD4680BC7047A1
:1041D400002C01400034014080B487B000AF786007
:1041E40039607B681B6A23F480727B681A627B687F
:1041F4001B6A7B617B685B683B617B68DB69FB6096
:10420400FB6823F07003FB60FB6823F00303FB608F
:104214003B681B68FA681343FB607B6923F40073F3
:104224007B613B689B681B027A6913437B617B68F3
:10423400214A934203D07B68204A93420DD17B6983
:1042440023F400637B613B68DB681B027A691343D8
:104254007B617B6923F480637B617B68164A9342AC
:1042640003D07B68154A934213D13B6923F48053EE
:104274003B613B6923F400533B613B685B691B0171
:104284003A6913433B613B689B691B013A691343D9
:104294003B617B683A695A607B68FA68DA613B681B
:1042A4005A687B68DA637B687A691A6200BF1C37D4
:1042B400BD4680BC704700BF002C01400034014063
:1042C40080B487B000AF786039607B681B6A23F4E0
:1042D40080527B681A627B681B6A3B617B685B68FF
:1042E4007B617B68DB69FB60FB6823F4E043FB6074
:1042F400FB6823F44073FB603B681B681B02FA688D
:104304001343FB603B6923F400533B613B689B68A8
:104314001B033A6913433B617B68114A934203D000
:104324007B68104A934209D17B6923F480437B6103
:104334003B685B699B017A6913437B617B687A699B
:104344005A607B68FA68DA613B685A687B681A6469
:104354007B683A691A6200BF1C37BD4680BC70474F
:10436400002C01400034014080B487B000AFF860F5
:10437400B9607A60FB681B6A7B61FB681B6A23F087
:104384000102FB681A62FB689B693B613B6923F08D
:10439400F0033B617B681B013A6913433B617B6912
:1043A40023F00A037B617A69BB6813437B61FB6872
:1043B4003A699A61FB687A691A6200BF1C37BD4684
:1043C40080BC704780B487B000AFF860B9607A6091
:1043D400FB681B6A23F01002FB681A62FB689B6986
:1043E4007B61FB681B6A3B617B6923F470437B61DF
:1043F4007B681B037A6913437B613B6923F0A00349
:104404003B61BB681B013A6913433B61FB687A69F2
:104414009A61FB683A691A6200BF1C37BD4680BCCA
:10442400704780B485B000AF786039607B689B6862
:10443400FB60FB6823F07003FB603A68FB6813437E
:1044440043F00703FB607B68FA689A6000BF143787
:10445400BD4680BC704780B487B000AFF860B960D7
:104464007A603B60FB689B687B617B6923F47F43D4
:104474007B613B681A027B681A43BB6813437A6901
:1044840013437B61FB687A699A6000BF1C37BD46A1
:1044940080BC704780B487B000AFF860B9607A60C0
:1044A400BB6803F01F03012202FA03F37B61FB687C
:1044B4001A6A7B69DB431A40FB681A62FB681A6A52
:1044C400BB6803F01F03796801FA03F31A43FB681E
:1044D4001A6200BF1C37BD4680BC704780B584B0EB
:1044E40000AF786039603B68002B09D17B6893F892
:1044F4004230DBB2012B14BF01230023DBB222E0E4
:104504003B68042B09D17B6893F84330DBB2012B61
:1045140014BF01230023DBB215E03B68082B09D14B
:104524007B6893F84430DBB2012B14BF01230023D2
:10453400DBB208E07B6893F84530DBB2012B14BF93
:1045440001230023DBB2002B01D0012363E03B688D
:10455400002B04D17B68022283F8422013E03B68DD
:10456400042B04D17B68022283F843200BE03B68D0
:10457400082B04D17B68022283F8442003E07B6883
:10458400022283F845207B681B6804223968184698
:1045940000F00DF97B681B685A6C7B681B6842F459
:1045A40000425A647B681B681D4A934218D07B689A
:1045B4001B681C4A934213D07B681B68B3F1804F7D
:1045C4000ED07B681B68184A934209D07B681B682D
:1045D400164A934204D07B681B68154A934211D152
:1045E4007B681B689B6803F00703FB60FB68062B72
:1045F40010D07B681B681A687B681B6842F0010254
:104604001A6007E07B681B681A687B681B6842F0C5
:1046140001021A60002318461037BD4680BD00BF52
:10462400002C014000340140000400400008004018
:10463400000C004080B485B000AF786039607B68BE
:1046440093F83C30012B01D1022350E07B68012216
:1046540083F83C207B68022283F83D207B681B683A
:104664005B68FB607B681B689B68BB60FB6823F02E
:104674007003FB603B681B68FA681343FB607B684C
:104684001B68FA685A607B681B681B4A934218D0FF
:104694007B681B68194A934213D07B681B68B3F18B
:1046A400804F0ED07B681B68154A934209D07B6803
:1046B4001B68144A934204D07B681B68124A9342D5
:1046C4000CD1BB6823F08003BB603B685B68BA68AD
:1046D4001343BB607B681B68BA689A607B680122DD
:1046E40083F83D207B68002283F83C200023184691
:1046F4001437BD4680BC7047002C01400034014093
:104704000004004000080040000C004080B485B064
:1047140000AF786039600023FB607B6893F83C301D
:10472400012B01D102233DE07B68012283F83C2068
:10473400FB6823F0FF023B68DB681343FB60FB6804
:1047440023F440723B689B681343FB60FB6823F4CB
:1047540080623B685B681343FB60FB6823F4006280
:104764003B681B681343FB60FB6823F480523B687F
:104774001B691343FB60FB6823F400523B685B69CD
:104784001343FB60FB6823F480423B68DB691343FB
:10479400FB607B681B68FA685A647B68002283F8B4
:1047A4003C20002318461437BD4680BC704780B4B3
:1047B40087B000AFF860B9607A60BB6803F01F038C
:1047C400042202FA03F37B61FB681A6A7B69DB4308
:1047D4001A40FB681A62FB681A6ABB6803F01F037D
:1047E400796801FA03F31A43FB681A6200BF1C37A5
:1047F400BD4680BC704780B582B000AF78607B68EE
:10480400002B01D101233FE07B6893F83D30DBB2FC
:10481400002B06D17B68002283F83C207868FDF7E2
:1048240097FF7B68242283F83D207B681B68DA6845
:104834007B681B6822F40052DA60786800F028F87C
:104844007B681B681A697B681B6822F490421A61B2
:104854007B681B685A697B681B6822F02A025A61CC
:104864007B681B68DA687B681B6842F40052DA6074
:104874007B6800221A647B68202283F83D207B68D1
:10488400202283F83E20002318460837BD4680BD09
:1048940080B584B000AF78607B681B681B6923F423
:1048A40040517B68DA687B681B680A431A617B683D
:1048B4009A687B681B691A437B685B691343BB6016
:1048C4007B681B68DB6823F4B05323F00C037A681D
:1048D4001268B9680B43D3607B681B685B6923F477
:1048E40040717B689A697B681B680A435A617B68DC
:1048F4001B682C4A934203D1FEF7CAFEF86002E01B
:10490400FEF7B2FEF860FA6813469B0013449A005F
:104914001A447B685B689B00B2FBF3F3224AA2FB58
:1049240003235B091901FA6813469B0013449A0098
:104934001A447B685B689B00B2FBF3F21A4BA3FB3F
:1049440002035B09642000FB03F3D31A1B01323317
:10495400154AA2FB03235B0903F0F0031944FA6828
:1049640013469B0013449A001A447B685B689B00BF
:10497400B2FBF3F20C4BA3FB02035B09642000FBC4
:1049840003F3D31A1B013233074AA2FB03235B0947
:1049940003F00F027B681B680A449A6000BF10375B
:1049A400BD4680BD003801401F85EB5170B500261F
:1049B4000C4D0D4C641BA410A64209D100F022F842
:1049C40000260A4D0A4C641BA410A64205D170BDF2
:1049D40055F8043B98470136EEE755F8043B9847F1
:1049E4000136F2E7484A0008484A0008484A0008E5
:1049F4004C4A000803460244934200D1704703F82E
:104A0400011BF9E7F8B500BFF8BC08BC9E46704727
:0C4A1400F8B500BFF8BC08BC9E46704717
:104A200002030405060708090A0B0C0D0E0F1010EF
:104A3000000000000000000001020304060708094E
:084A4000000000000102030464
:044A48000902000857
:044A4C00E501000878
:0C4A50000024F400100000000100000031
:04000005080027EDDB
:00000001FF
