:020000040800F2
:1000000000C00020FD0C0008D5090008DB0900082D
:10001000E1090008E7090008ED09000800000000F8
:10002000000000000000000000000000F3090008CC
:10003000FF090008000000000B0A0008170A00086A
:10004000450D0008450D0008450D0008450D000848
:10005000450D0008450D0008450D0008450D000838
:10006000450D0008450D0008450D0008450D000828
:10007000450D0008450D0008250A0008450D00083B
:10008000450D0008450D0008450D0008450D000808
:10009000390A0008450D0008450D0008450D000807
:1000A000450D0008450D0008450D0008450D0008E8
:1000B000450D0008450D0008450D0008450D0008D8
:1000C000450D0008450D0008450D0008450D0008C8
:1000D000450D00084D0A0008450D0008450D0008B3
:1000E000450D0008450D0008450D0008450D0008A8
:1000F000450D0008450D0008450D0008450D000898
:10010000450D0008450D0008450D0008450D000887
:10011000450D0008450D0008450D0008450D000877
:10012000450D0008450D0008450D0008450D000867
:1001300000000000000000000000000000000000BF
:1001400000000000000000000000000000000000AF
:10015000000000000000000000000000000000009F
:10016000000000000000000000000000000000008F
:10017000000000000000000000000000000000007F
:10018000000000000000000000000000000000006F
:10019000000000000000000000000000000000005F
:1001A000000000000000000000000000000000004F
:1001B000000000000000000000000000000000003F
:1001C000000000000000000000000000000000002F
:1001D000000000000000000000000000000000001F
:0401E0005FF8E0F1F3
:1001E40010B5054C237833B9044B13B10448AFF36D
:1001F40000800123237010BD700000200000000067
:10020400A44B000808B5034B1BB103490348AFF3E3
:10021400008008BD0000000074000020A44B00080A
:1002240080B500AF094B1B780133DAB2074B1A7063
:10023400064B1B78142B07D9044B00221A704FF479
:100244000051034802F005FB00BF80BD8C00002074
:100254000010014080B500AF00F0B8F800F0BCF920
:10026400322000F051F8024803F016FD00BF80BDB3
:10027400BC4B000880B500AF012000F083F90346B1
:10028400002B04D0322000F03FF800F0DFF8FFF735
:10029400C7FF00F079F80A2000F0B6FD00BF80BD6A
:1002A40080B483B000AF0346FB80044AFB8813800C
:1002B40000BF0C37BD4680BC704700BF8E000020D5
:1002C40080B400AF024B1B881846BD4680BC704703
:1002D4008E00002080B483B000AF0346FB71044A53
:1002E400FB79137000BF0C37BD4680BC704700BF5C
:1002F4009000002080B400AF024B1B781846BD4626
:1003040080BC70479000002080B582B000AF0346E7
:10031400FB80FB88012B0BD10120FFF7DBFF0020C2
:10032400FFF7BEFF01222021154802F07AFA22E0ED
:10033400FB88002B0BD10020FFF7CCFF0020FFF738
:10034400AFFF002220210E4802F06BFA13E0FB8875
:10035400092B10D90220FFF7BDFFFB88094AA2FB35
:100364000323DB089BB21846FFF79AFF01222021E2
:10037400034802F056FA00BF0837BD4680BD00BFEF
:1003840000100140CDCCCCCC80B500AFFFF7B2FF5C
:100394000346022B13D1FFF793FF0346002B06D02D
:1003A400084B1B88013B9AB2064B1A8007E00022D7
:1003B4002021054802F035FA0020FFF78BFF00BF2B
:1003C40080BD00BF8E0000200010014080B500AF4A
:1003D4001C4B00225A611B4B00229A61194B0122CB
:1003E400DA61184B00221A60164B00225A60154B32
:1003F40000229A60134B0022DA60124B00221A6129
:10040400104B1B225A620F4B01221A620D490E48EF
:1004140000F019FE0346002B01D000F0A1FA0A48AF
:1004240000F0DAFE0346002B01D000F099FA022115
:10043400054801F000F90346002B01D000F090FAC2
:1004440000BF80BDC8000020F4000020F0B58BB0D0
:1004540006AF00233B60254B0F221A60234B00227A
:100464005A60224B0022DA60204B00229A601F4B14
:1004740008221A611D4B00221A750023FB600CE050
:100484000122FB6802FA03F3D9B23A1DFB68134454
:100494000A461A70FB680133FB60FB68072BEFDD2B
:1004A4003B791D467B791E46BB799C46FB793A7A9B
:1004B400797AB87AFC7A04940390029101920093B9
:1004C4006346324629460A4803F060FB3B463A1D20
:1004D4000649084800F0C4FE0346002B01D000F092
:1004E4003FFA00BF1437BD46F0BD00BF94000020A2
:1004F400C44B0008F4000020F0B58BB006AF786060
:100504007B681B68144A934222D107F10803134AFB
:100514000021786800F07EFF0346002B02D000F033
:100524001FFA15E03B7A1D467B7A1E46BB7A9C4631
:10053400FB7A3A7B797BB87BFC7B04940390029131
:1005440001920093634632462946054803F01EFB98
:1005540000BF1437BD46F0BD00640040AC0000206D
:10056400F84B000880B500AF0421054802F042F9B9
:100574000346002B01D1012300E00023184680BD6F
:100584000014014080B582B000AF0346FB71FFF751
:10059400E9FF0346012B0ED10E4B1B881A46FB794B
:1005A40001335B009A4209DA0A4B1B8801339AB281
:1005B400084B1A8002E0074B00221A80054B1B8867
:1005C400022B01D1012300E0002318460837BD4661
:1005D40080BD00BFF000002080B500AF01220349B8
:1005E400034802F048FE00BF80BD00BFF2000020B7
:1005F4002001002080B582B000AF0346FB71F91DD5
:100604004FF6FF730122034802F0A3FD00BF083731
:10061400BD4680BD2001002080B582B000AF786067
:10062400064B1B781846FFF7E5FF012203490448EF
:1006340002F021FE00BF0837BD4680BDF200002055
:100644002001002080B582B000AF7860391D4FF6DC
:10065400FF730122034802F07CFD7B6818460837CB
:10066400BD4680BD2001002080B500AF184B194A5B
:100674001A60174B04225A60154B4FF080429A605F
:10068400134B0022DA60124B4FF4A0221A61104B74
:100694004FF480125A610E4B00221A760C4B002242
:1006A4005A760B4B00229A76094B0022DA76084BD5
:1006B40000221A77064B00225A77054800F0C8FB3F
:1006C4000346002B01D000F04BF900BF80BD00BFF2
:1006D400F40000200064004080B58AB000AF786068
:1006E40007F1140300221A605A609A60DA607B688A
:1006F4001B68294A93424BD1284BDB69274A43F0B4
:100704000073D361254BDB6903F000733B613B69E4
:10071400224B9B69214A43F0080393611F4B9B6959
:1007240003F00803FB60FB684FF480737B610023D4
:10073400BB610023FB6107F114031946184801F05B
:10074400C5FE4FF400737B610223BB6103233B624C
:1007540007F114031946124801F0B8FE114B5B6807
:100764007B627B6A23F4C0437B627B6A43F0E06371
:100774007B627B6A43F480437B620A4A7B6A5360F0
:1007840000220021142001F076FA142001F08FFADF
:1007940000BF2837BD4680BD006400400010024001
:1007A400000C01400000014080B582B000AF0C4B4A
:1007B4005B690B4A43F001035361094B5B6903F026
:1007C40001037B607B68002200210E2001F053FAB4
:1007D4000E2001F06CFA00BF0837BD4680BD00BF93
:1007E4000010024080B588B000AF07F1100300226A
:1007F4001A605A609A60DA602A4B9B69294A43F06E
:1008040010039361274B9B6903F01003FB60FB68A3
:10081400244B9B69234A43F020039361214B9B693A
:1008240003F02003BB60BB681E4B9B691D4A43F069
:10083400040393611B4B9B6903F004037B607B6897
:10084400184B9B69174A43F008039361154B9B6946
:1008540003F008033B603B68002242F22001124887
:1008640001F0DFFF42F220033B6101237B6100239F
:10087400BB610223FB6107F1100319460A4801F02A
:1008840025FE04233B6100237B610123BB6107F147
:1008940010031946054801F019FE00BF2037BD4674
:1008A40080BD00BF00100240001001400014014050
:1008B40080B500AF00F046FA00F00DF8FFF792FFA4
:1008C400FFF7D2FEFFF770FF00F06EF9FFF7C2FCEE
:1008D400FFF7D0FCFCE780B590B000AF07F1180338
:1008E40028220021184603F049F93B1D00221A6012
:1008F4005A609A60DA601A610123BB614FF4803355
:10090400FB6100233B620123BB6202237B634FF440
:100914008033BB634FF4E013FB6307F118031846FD
:1009240001F0B0FF0346002B01D000F019F80F23AB
:100934007B600223BB600023FB604FF480633B6158
:1009440000237B613B1D0221184602F01DFA034679
:10095400002B01D000F004F800BF4037BD4680BD35
:1009640080B400AF72B600BFFEE7000080B485B06B
:1009740000AF154B9B69144A43F001039361124B7A
:100984009B6903F00103BB60BB680F4BDB690E4A34
:1009940043F08053D3610C4BDB6903F080537B60DD
:1009A4007B680A4B5B68FB60FB6823F0E063FB60D9
:1009B400FB6843F00073FB60044AFB68536000BFAC
:1009C4001437BD4680BC704700100240000001404F
:1009D40080B400AFFEE780B400AFFEE780B400AFA0
:1009E400FEE780B400AFFEE780B400AFFEE780B45A
:1009F40000AF00BFBD4680BC704780B400AF00BFED
:100A0400BD4680BC704780B400AF00BFBD4680BC0B
:100A1400704780B500AF00F0DBF900BF80BD000077
:100A240080B500AF024801F015FB00BF80BD00BFD8
:100A34006401002080B500AF024800F021FE00BF31
:100A440080BD00BFF400002080B500AF024802F072
:100A540043FC00BF80BD00BF2001002080B586B0EC
:100A640000AFF860B9607A6000237B610AE0AFF3FD
:100A740000800146BB685A1CBA60CAB21A707B690E
:100A840001337B617A697B689A42F0DB7B681846A4
:100A94001837BD4680BD80B586B000AFF860B96038
:100AA4007A6000237B6109E0BB685A1CBA601B783A
:100AB4001846FFF7C7FD7B6901337B617A697B6860
:100AC4009A42F1DB7B6818461837BD4680BD80B476
:100AD40083B000AF78604FF0FF3318460C37BD4643
:100AE40080BC704780B483B000AF786039603B68E5
:100AF4004FF400525A60002318460C37BD4680BCA0
:100B0400704780B483B000AF7860012318460C3777
:100B1400BD4680BC704780B485B000AFF860B96052
:100B24007A60002318461437BD4680BC7047000025
:100B340080B586B000AF7860144A154BD31A7B6138
:100B44007B693B61134B1B68002B02D1114B124A8A
:100B54001A60104B1A687B6813443A699A4207D2A8
:100B640002F0E2FF03460C221A604FF0FF3309E063
:100B7400084B1B68FB60074B1A687B681344054AE3
:100B84001360FB6818461837BD4680BD00C00020BE
:100B9400000400001C010020C001002080B400AF4C
:100BA40000BFBD4680BC704780B500AF114B124AF0
:100BB4001A60104B4FF4E1325A600E4B00229A60D7
:100BC4000C4B0022DA600B4B00221A61094B0C22F9
:100BD4005A61084B00229A61064B0022DA610548EB
:100BE40002F06AFA0346002B01D0FFF7B9FE00BFFA
:100BF40080BD00BF200100200038014080B588B0CE
:100C040000AF786007F1100300221A605A609A60FE
:100C1400DA607B681B68334A93425FD1324B9B692D
:100C2400314A43F4804393612F4B9B6903F480431F
:100C3400FB60FB682C4B9B692B4A43F004039361D4
:100C4400294B9B6903F00403BB60BB684FF400733A
:100C54003B6102237B610323FB6107F11003194607
:100C6400224801F033FC4FF480633B6100237B6135
:100C74000023BB6107F1100319461C4801F026FC50
:100C84001B4B1C4A1A601A4B10225A60184B002244
:100C94009A60174B8022DA60154B00221A61144BBC
:100CA40000225A61124B00229A61114B0022DA6130
:100CB4000F4801F017F80346002B01D0FFF750FE50
:100CC4007B680B4A5A630A4A7B68536200220021FC
:100CD400252000F0D0FF252000F0E9FF00BF2037D9
:100CE400BD4680BD003801400010024000080140AC
:100CF40064010020440002400C480D490D4A0023C1
:100D040002E0D458C4500433C4188C42F9D30A4ABC
:100D14000A4C002301E013600432A242FBD3FFF724
:100D24003DFF02F007FFFFF7C3FD704700000020FE
:100D340070000020F84C000870000020BC01002066
:100D4400FEE7000080B500AF084B1B68074A43F07C
:100D540010031360032000F083FF0F2000F008F855
:100D6400FFF704FE0023184680BD00BF00200240A8
:100D740080B582B000AF7860124B1A68124B1B78B2
:100D840019464FF47A73B3FBF1F3B2FBF3F318464D
:100D940000F09BFF0346002B01D001230EE07B688B
:100DA4000F2B0AD8002279684FF0FF3000F063FF60
:100DB400064A7B681360002300E0012318460837C5
:100DC400BD4680BD00000020080000200400002073
:100DD40080B400AF054B1B781A46054B1B681344BF
:100DE400034A136000BFBD4680BC70470800002062
:100DF400A801002080B400AF024B1B681846BD4612
:100E040080BC7047A801002080B584B000AF786032
:100E1400FFF7F0FFB8607B68FB60FB68B3F1FF3F4E
:100E240005D00A4B1B781A46FB681344FB6000BFCD
:100E3400FFF7E0FF0246BB68D31AFA689A42F7D874
:100E440000BF00BF1037BD4680BD00BF08000020B2
:100E540080B584B000AF78607B68002B01D101239A
:100E6400EDE07B6893F82030DBB2002B02D1786888
:100E7400FFF732FC7B681B681A687B681B6842F0CA
:100E840001021A60FFF7B6FFF86012E0FFF7B2FF45
:100E94000246FB68D31A0A2B0BD97B685B6A43F4BE
:100EA40000327B685A627B68052283F82020012384
:100EB400C5E07B681B685B6803F00103002BE5D089
:100EC4007B681B681A687B681B6822F002021A6040
:100ED400FFF790FFF86012E0FFF78CFF0246FB6813
:100EE400D31A0A2B0BD97B685B6A43F400327B6804
:100EF4005A627B68052283F8202001239FE07B68E7
:100F04001B685B6803F00203002BE5D17B681B7E42
:100F1400012B08D17B681B681A687B681B6842F048
:100F240080021A6007E07B681B681A687B681B688C
:100F340022F080021A607B685B7E012B08D17B68FB
:100F44001B681A687B681B6842F040021A6007E05D
:100F54007B681B681A687B681B6822F040021A6071
:100F64007B689B7E012B08D17B681B681A687B68B1
:100F74001B6842F020021A6007E07B681B681A684D
:100F84007B681B6822F020021A607B68DB7E012BE1
:100F940008D17B681B681A687B681B6822F0100202
:100FA4001A6007E07B681B681A687B681B6842F05C
:100FB40010021A607B681B7F012B08D17B681B68B9
:100FC4001A687B681B6842F008021A6007E07B68B5
:100FD4001B681A687B681B6822F008021A607B6829
:100FE4005B7F012B08D17B681B681A687B681B68D0
:100FF40042F004021A6007E07B681B681A687B6889
:101004001B6822F004021A607B689A687B68DB68BC
:101014001A437B681B691A437B685B6942EA0301D4
:101024007B685B685A1E7B681B680A43DA617B68CD
:1010340000225A627B68012283F82020002318468C
:101044001037BD4680BD80B487B000AF786039608A
:101054007B681B687B617B6893F82030FB74FB7CA6
:10106400012B03D0FB7C022B40F0AA807B69D3F8D0
:10107400003243F001027B69C3F800223B685B69DC
:1010840003F01F03012202FA03F3FB607B69D3F828
:101094001C22FB68DB431A407B69C3F81C223B68B3
:1010A400DB69002B23D17B69D3F80C22FB68DB437B
:1010B4001A407B69C3F80C223B68DB6819043B685F
:1010C4005B689BB23A68526919437B69483243F8BA
:1010D40032103B689B6819043B681B689AB23B68F2
:1010E4005B690A4379694833DB000B445A603B6807
:1010F400DB69012B22D17B69D3F80C22FB681A43EC
:101104007B69C3F80C223B681B6819043B685B6865
:101114009BB23A68526919437B69483243F83210EA
:101124003B689B6819043B68DB689AB23B685B695F
:101134000A4379694833DB000B445A603B689B6976
:10114400002B09D17B69D3F80422FB68DB431A40E6
:101154007B69C3F8042207E07B69D3F80422FB68A7
:101164001A437B69C3F804223B681B69002B09D12D
:101174007B69D3F81422FB68DB431A407B69C3F80C
:10118400142207E07B69D3F81422FB681A437B69B5
:10119400C3F814223B681B6A012B07D17B69D3F87F
:1011A4001C22FB681A437B69C3F81C227B69D3F8B1
:1011B400003223F001027B69C3F80022002306E019
:1011C4007B685B6A43F480227B685A620123184679
:1011D4001C37BD4680BC704780B584B000AF7860D2
:1011E4007B6893F82030DBB2012B2ED17B6802227E
:1011F40083F820207B681B681A687B681B6822F0D0
:1012040001021A60FFF7F6FDF86012E0FFF7F2FD45
:101214000246FB68D31A0A2B0BD97B685B6A43F43A
:1012240000327B685A627B68052283F82020012300
:1012340012E07B681B685B6803F00103002BE5D1B7
:101244007B6800225A62002306E07B685B6A43F4F1
:1012540000227B685A62012318461037BD4680BDC0
:1012640080B489B000AFF860B9607A603B60FB6815
:1012740093F82030FB77FB681B689B68BB61FB7F9E
:10128400012B03D0FB7F022B40F0B880BB6903F035
:101294008063002B0AD1BB6903F00063002B05D1E6
:1012A400BB6903F08053002B00F0A080BB691B0EC8
:1012B40003F003037B617B69022B07D9FB685B6A3C
:1012C40043F40002FB685A6201239EE001227B6919
:1012D4009A403B681A60BB689B68002B0DD1BB68C1
:1012E4001B685A05BB68DB68F96809681A437B699F
:1012F40018331B010B441A600FE0BB685B68DA000B
:10130400BB689B681A43BB68DB68F96809681A43C1
:101314007B6918331B010B441A60FB681968BB68AE
:101324001A697B6918331B010B4404331A60BB68C8
:101334001B7D012B11D1FB681A687B6918331B01D3
:10134400134404331B68FA68116843F480727B69A0
:1013540018331B010B4404331A607B6807331B7872
:101364001A067B6806331B781B041A437B68053313
:101374001B781B0213437A68043212781046FA6809
:10138400116843EA00027B691B010B4403F5C67331
:101394001A607B6803331B781A067B6802331B7858
:1013A4001B041A437B6801331B781B0213437A68BE
:1013B40012781046FA68116843EA00027B691B013F
:1013C4000B4403F5C4731A60FB681A687B6918330D
:1013D4001B0113441B68FA68116843F001027B691E
:1013E40018331B010B441A6000230EE0FB685B6A90
:1013F40043F40012FB685A62012306E0FB685B6A4F
:1014040043F48022FB685A62012318462437BD4600
:1014140080BC704780B487B000AFF860B9607A6070
:101424003B60FB6893F82030FB75FB7D012B03D0F8
:10143400FB7D022B40F0F380BB68002B0ED1FB68D0
:101444001B68DB6803F00303002B16D1FB685B6A9F
:1014540043F40012FB685A620123E7E0FB681B684F
:101464001B6903F00303002B07D1FB685B6A43F499
:101474000012FB685A620123D8E0FB681A68BB6853
:101484001B331B0113441B6803F004027B689A603E
:101494007B689B68002B0CD1FB681A68BB681B3304
:1014A4001B0113441B685B0DC3F30A027B681A60BB
:1014B4000BE0FB681A68BB681B331B0113441B68F1
:1014C400DB0823F060427B685A60FB681A68BB68DB
:1014D4001B331B0113441B6803F002027B68DA60B0
:1014E400FB681A68BB681B331B01134404331B6875
:1014F40003F00F027B681A61FB681A68BB681B3330
:101504001B01134404331B681B0ADAB27B689A611B
:10151400FB681A68BB681B331B01134404331B6844
:101524001B0C9AB27B685A61FB681A68BB681B0182
:10153400134403F5DC731B68DAB23B681A70FB686A
:101544001A68BB681B01134403F5DC731B681A0A91
:101554003B680133D2B21A70FB681A68BB681B017E
:10156400134403F5DC731B681A0C3B680233D2B2D4
:101574001A70FB681A68BB681B01134403F5DC731B
:101584001B681A0E3B680333D2B21A70FB681A68E0
:10159400BB681B01134403F5DE731A683B6804330C
:1015A400D2B21A70FB681A68BB681B01134403F5B6
:1015B400DE731B681A0A3B680533D2B21A70FB68E3
:1015C4001A68BB681B01134403F5DE731B681A0C0D
:1015D4003B680633D2B21A70FB681A68BB681B01F9
:1015E400134403F5DE731B681A0E3B680733D2B24B
:1015F4001A70BB68002B08D1FB681B68DA68FB68AB
:101604001B6842F02002DA6007E0FB681B681A6975
:10161400FB681B6842F020021A61002306E0FB68A5
:101624005B6A43F48022FB685A62012318461C3724
:10163400BD4680BC704780B485B000AF7860396027
:101644007B6893F82030FB73FB7B012B02D0FB7B80
:10165400022B09D17B681B6859697B681B683A684F
:101664000A435A61002306E07B685B6A43F48022E4
:101674007B685A62012318461437BD4680BC704704
:1016840080B58AB000AF786000237B627B681B68FA
:101694005B693B627B681B685B68FB617B681B68FA
:1016A4009B68BB617B681B68DB687B617B681B682C
:1016B4001B693B617B681B689B69FB603B6A03F0A9
:1016C4000103002B7CD0BB6903F00103002B23D062
:1016D4007B681B6801229A60BB6903F00203002B3C
:1016E40003D0786800F083F916E0BB6903F00403C3
:1016F400002B04D07B6A43F400637B620CE0BB697B
:1017040003F00803002B04D07B6A43F480537B620C
:1017140002E0786800F086F9BB6903F48073002B5B
:1017240024D07B681B684FF480729A60BB6903F411
:101734000073002B03D0786800F062F916E0BB69EF
:1017440003F48063002B04D07B6A43F400537B6270
:101754000CE0BB6903F40063002B04D07B6A43F400
:1017640080437B6202E0786800F065F9BB6903F4AA
:101774008033002B24D07B681B684FF480329A603E
:10178400BB6903F40033002B03D0786800F041F9FF
:1017940016E0BB6903F48023002B04D07B6A43F476
:1017A40000437B620CE0BB6903F40023002B04D0EC
:1017B4007B6A43F480337B6202E0786800F044F98A
:1017C4003B6A03F00803002B0CD07B6903F0100381
:1017D400002B07D07B6A43F400737B627B681B6831
:1017E4001022DA603B6A03F00403002B0BD07B6900
:1017F40003F00803002B06D07B681B680822DA601C
:10180400786800F02AF93B6A03F00203002B09D040
:101814007B681B68DB6803F00303002B02D0786845
:10182400FEF76AFE3B6A03F04003002B0CD03B69D1
:1018340003F01003002B07D07B6A43F480637B62C0
:101844007B681B6810221A613B6A03F02003002B9B
:101854000BD03B6903F00803002B06D07B681B68A0
:1018640008221A61786800F00AF93B6A03F0100351
:10187400002B09D07B681B681B6903F00303002B52
:1018840002D0786800F0F2F83B6A03F40033002BCE
:101894000BD0FB6903F01003002B06D07B681B6898
:1018A40010225A60786800F0F3F83B6A03F480333E
:1018B400002B0BD0FB6903F00803002B06D07B68D8
:1018C4001B6808225A60786800F0EBF83B6A03F45E
:1018D4000043002B7BD0FB6903F00403002B72D080
:1018E4003B6A03F48073002B08D0FB6803F0010308
:1018F400002B03D07B6A43F001037B623B6A03F451
:101904000073002B08D0FB6803F00203002B03D004
:101914007B6A43F002037B623B6A03F48063002B1F
:1019240008D0FB6803F00403002B03D07B6A43F068
:1019340004037B623B6A03F40063002B43D0FB681F
:1019440003F07003002B3ED0FB6803F07003602BA0
:101954002BD0602B2ED8502B22D0502B2AD8402BA2
:1019640019D0402B26D8302B10D0302B22D8102B56
:1019740002D0202B05D01DE07B6A43F008037B6274
:1019840019E07B6A43F010037B6214E07B6A43F046
:1019940020037B620FE07B6A43F040037B620AE032
:1019A4007B6A43F080037B6205E07B6A43F48073C7
:1019B4007B6200E000BF7B681B689A697B681B68D8
:1019C40022F070029A617B681B6804225A607B6A69
:1019D400002B08D07B685A6A7B6A1A437B685A6278
:1019E400786800F067F800BF2837BD4680BD80B432
:1019F40083B000AF786000BF0C37BD4680BC704731
:101A040080B483B000AF786000BF0C37BD4680BCA3
:101A1400704780B483B000AF786000BF0C37BD4618
:101A240080BC704780B483B000AF786000BF0C37CF
:101A3400BD4680BC704780B483B000AF786000BFFF
:101A44000C37BD4680BC704780B483B000AF78606B
:101A540000BF0C37BD4680BC704780B483B000AF74
:101A6400786000BF0C37BD4680BC704780B483B03B
:101A740000AF786000BF0C37BD4680BC704780B4AF
:101A840083B000AF786000BF0C37BD4680BC7047A0
:101A940080B483B000AF786000BF0C37BD4680BC13
:101AA400704780B483B000AF786000BF0C37BD4688
:101AB40080BC704780B483B000AF786000BF0C373F
:101AC400BD4680BC7047000080B485B000AF78602C
:101AD4007B6803F00703FB600C4BDB68BB60BA68F0
:101AE4004FF6FF031340BB60FB681A02BB68134345
:101AF40043F0BF6343F40033BB60044ABB68D36064
:101B040000BF1437BD4680BC704700BF00ED00E045
:101B140080B400AF044BDB681B0A03F007031846CC
:101B2400BD4680BC704700BF00ED00E080B483B0C8
:101B340000AF0346FB7197F90730002B0BDBFB79F1
:101B440003F01F02064997F907305B09012000FAE8
:101B540002F241F8232000BF0C37BD4680BC704719
:101B640000E100E080B483B000AF03463960FB714C
:101B740097F90730002B0ADB3B68DAB20C4997F976
:101B840007301201D2B20B4483F800230AE03B6809
:101B9400DAB20849FB7903F00F03043B1201D2B215
:101BA4000B441A7600BF0C37BD4680BC704700BF9B
:101BB40000E100E000ED00E080B489B000AFF8601F
:101BC400B9607A60FB6803F00703FB61FB69C3F14A
:101BD4000703042B28BF0423BB61FB690433062BD2
:101BE40002D9FB69033B00E000237B614FF0FF3225
:101BF400BB6902FA03F3DA43BB681A407B699A4073
:101C04004FF0FF317B6901FA03F3D9437B680B4042
:101C1400134318462437BD4680BC704780B582B054
:101C240000AF78607B68013BB3F1807F01D301236F
:101C34000FE00A4A7B68013B53600F214FF0FF30ED
:101C4400FFF790FF054B00229A60044B07221A60AD
:101C5400002318460837BD4680BD00BF10E000E0F1
:101C640080B582B000AF78607868FFF72DFF00BFC1
:101C74000837BD4680BD80B586B000AF0346B96065
:101C84007A60FB7300237B61FFF742FF78617A6817
:101C9400B9687869FFF790FF024697F90F3011464B
:101CA4001846FFF75FFF00BF1837BD4680BD80B5FB
:101CB40082B000AF0346FB7197F907301846FFF76F
:101CC40035FF00BF0837BD4680BD80B582B000AF88
:101CD40078607868FFF7A2FF034618460837BD46C8
:101CE40080BD000080B485B000AF78600023FB6045
:101CF4007B68002B01D1012359E07B681B681A46DD
:101D04002D4B9A420FD87B681B681A462B4B134401
:101D14002B4AA2FB03231B099A007B681A647B6885
:101D2400284ADA630EE07B681B681A46264B134484
:101D3400234AA2FB03231B099A007B681A647B686D
:101D4400224ADA637B68022283F821207B681B68BD
:101D54001B68FB60FB6823F47F5323F03003FB60B4
:101D64007B685A687B689B681A437B68DB681A4304
:101D74007B681B691A437B685B691A437B689B69B0
:101D84001A437B68DB691343FA681343FB607B687F
:101D94001B68FA681A607B6800229A637B680122D8
:101DA40083F821207B68002283F820200023184632
:101DB4001437BD4680BC704707040240F8FFFDBFDE
:101DC400CDCCCCCC00000240F8FBFDBF00040240A7
:101DD40080B485B000AF78600023FB737B6893F810
:101DE4002130022B08D07B6804229A637B6800228E
:101DF40083F82020012320E07B681B681A687B6835
:101E04001B6822F00E021A607B681B681A687B68E4
:101E14001B6822F001021A607B681A6C7B68DB6B1A
:101E2400012101FA02F25A607B68012283F8212021
:101E34007B68002283F82020FB7B18461437BD46BC
:101E440080BC704780B584B000AF78600023FB731A
:101E54007B6893F82130022B05D07B6804229A63B7
:101E64000123FB73D6E07B681B681A687B681B68D8
:101E740022F00E021A607B681B681A687B681B6874
:101E840022F001021A607B681B681A46644B9A426E
:101E940058D97B681B68634A93424FD07B681B68A0
:101EA400614A934248D07B681B68604A934240D0A1
:101EB4007B681B685E4A934238D07B681B685D4A26
:101EC400934230D07B681B685B4A934228D07B687E
:101ED4001B68534A934220D07B681B68574A93423D
:101EE40019D07B681B68564A934212D07B681B68E2
:101EF400544A93420AD07B681B68534A934202D1E6
:101F04004FF480531BE04FF4803318E04FF4807398
:101F140015E0102313E0012311E04FF080730EE06D
:101F24004FF480130BE04FF4803308E04FF48053F8
:101F340005E04FF4807302E0102300E00123434ADC
:101F4400536057E07B681B68364A93424FD07B68E6
:101F54001B68354A934248D07B681B68334A9342D6
:101F640040D07B681B68324A934238D07B681B6838
:101F7400304A934230D07B681B682F4A934228D062
:101F84007B681B68264A934220D07B681B682B4AD7
:101F9400934219D07B681B68294A934212D07B680C
:101FA4001B68284A93420AD07B681B68264A9342DE
:101FB40002D14FF480531BE04FF4803318E04FF408
:101FC400807315E0102313E0012311E04FF08073B8
:101FD4000EE04FF480130BE04FF4803308E04FF42D
:101FE400805305E04FF4807302E0102300E00123E6
:101FF400174A53607B68012283F821207B68002202
:1020040083F820207B685B6B002B03D07B685B6BC1
:1020140078689847FB7B18461037BD4680BD00BFE3
:1020240080000240080002401C00024030000240D0
:1020340044000240580002406C0002400804024080
:102044001C040240300402404404024000040240E4
:102054000000024080B584B000AF78607B68DB6B21
:102064001B68FB607B681B681B68BB607B681B6C20
:1020740004229A40FB681340002B00F0F180BB68F7
:1020840003F00403002B00F0EB807B681B681B68E3
:1020940003F02003002B07D17B681B681A687B6858
:1020A4001B6822F004021A607B681B681A465F4BA7
:1020B4009A4258D97B681B685D4A93424FD07B682B
:1020C4001B685C4A934248D07B681B685A4A934217
:1020D40040D07B681B68594A934238D07B681B68A0
:1020E400574A934230D07B681B68564A934228D0A3
:1020F4007B681B684D4A934220D07B681B68524A18
:10210400934219D07B681B68504A934212D07B6873
:102114001B684F4A93420AD07B681B684D4A93421E
:1021240002D14FF480431BE04FF4802318E04FF4B6
:10213400806315E0402313E0042311E04FF0806333
:102144000EE04FF480030BE04FF4802308E04FF4DB
:10215400804305E04FF4806302E0402300E0042361
:102164003D4A536057E07B681B68314A93424FD025
:102174007B681B682F4A934248D07B681B682E4AB1
:10218400934240D07B681B682C4A934238D07B68CA
:102194001B682B4A934230D07B681B68294A9342C0
:1021A40028D07B681B68214A934220D07B681B6837
:1021B400254A934219D07B681B68244A934212D063
:1021C4007B681B68224A93420AD07B681B68214AB9
:1021D400934202D14FF480431BE04FF4802318E074
:1021E4004FF4806315E0402313E0042311E04FF023
:1021F40080630EE04FF480030BE04FF4802308E08B
:102204004FF4804305E04FF4806302E0402300E094
:102214000423124A53607B68DB6A002B00F036818A
:102224007B68DB6A7868984730E100BF8000024031
:10223400080002401C0002403000024044000240FA
:10224400580002406C000240080402401C04024092
:1022540030040240440402400004024000000240F2
:102264007B681B6C02229A40FB681340002B00F031
:10227400DD80BB6803F00203002B00F0D7807B688D
:102284001B681B6803F02003002B0BD17B681B68C1
:102294001A687B681B6822F00A021A607B680122B4
:1022A40083F821207B681B681A467B4B9A4258D9D5
:1022B4007B681B68794A93424FD07B681B68784AD5
:1022C400934248D07B681B68764A934240D07B682F
:1022D4001B68754A934238D07B681B68734A9342E3
:1022E40030D07B681B68724A934228D07B681B6895
:1022F400694A934220D07B681B686E4A934219D086
:102304007B681B686C4A934212D07B681B686B4ADB
:1023140093420AD07B681B68694A934202D14FF406
:1023240000531BE04FF4003318E04FF4007315E042
:10233400202313E0022311E04FF000730EE04FF46A
:1023440000130BE04FF4003308E04FF4005305E0B2
:102354004FF4007302E0202300E00223594A536043
:1023640057E07B681B684D4A93424FD07B681B68DB
:102374004B4A934248D07B681B684A4A934240D0F8
:102384007B681B68484A934238D07B681B68474A7D
:10239400934230D07B681B68454A934228D07B68BF
:1023A4001B683D4A934220D07B681B68414A934294
:1023B40019D07B681B68404A934212D07B681B6823
:1023C4003E4A93420AD07B681B683D4A934202D13D
:1023D4004FF400531BE04FF4003318E04FF4007344
:1023E40015E0202313E0022311E04FF000730EE008
:1023F4004FF400130BE04FF4003308E04FF40053A4
:1024040005E04FF4007302E0202300E002232E4A8B
:1024140053607B68002283F820207B689B6A002B32
:1024240034D07B689B6A786898472FE07B681B6C84
:1024340008229A40FB681340002B28D0BB6803F0A5
:102444000803002B23D07B681B681A687B681B6811
:1024540022F00E021A607B681A6C7B68DB6B012128
:1024640001FA02F25A607B6801229A637B680122B6
:1024740083F821207B68002283F820207B681B6B73
:10248400002B04D07B681B6B7868984700BF00BFA3
:102494001037BD4680BD00BF8000024008000240E6
:1024A4001C00024030000240440002405800024038
:1024B4006C000240080402401C0402403004024044
:1024C40044040240000402400000024080B48BB087
:1024D40000AF7860396000237B6200233B6279E1BE
:1024E40001227B6A02FA03F3FB613B681B68FA6909
:1024F4001340BB61BA69FB699A4240F068813B684A
:102504005B68964A93425ED0944A934275D8944A43
:10251400934258D0924A93426FD8924A934252D0EF
:10252400904A934269D8904A93424CD08E4A93423F
:1025340063D88E4A934246D08C4A93425DD8122B7C
:102544002AD8122B59D801A252F823F0CB2500081F
:10255400A5250008B7250008F9250008FF2500086F
:10256400FF250008FF250008FF250008FF250008B7
:10257400FF250008FF250008FF250008FF250008A7
:10258400FF250008FF250008FF250008FF25000897
:10259400AD250008C1250008754A934213D02CE0EC
:1025A4003B68DB683B6229E03B68DB6804333B62E1
:1025B40024E03B68DB6808333B621FE03B68DB6870
:1025C4000C333B621AE03B689B68002B02D1042366
:1025D4003B6213E03B689B68012B05D108233B62F7
:1025E4007B68FA691A6109E008233B627B68FA692F
:1025F4005A6103E000233B6200E000BFBB69FF2B8C
:1026040001D87B6801E07B6804337B61BB69FF2BE5
:1026140002D87B6A9B0002E07B6A083B9B003B611B
:102624007B691A680F213B6901FA03F3DB431A4003
:10263400396A3B6901FA03F31A437B691A603B6800
:102644005B6803F08053002B00F0C180494B9B6909
:10265400484A43F001039361464B9B6903F001032D
:10266400BB60BB68444A7B6A9B08023352F8233040
:10267400FB607B6A03F003039B000F2202FA03F35F
:10268400DB43FA681340FB607B683C4A93421FD0EB
:102694007B683B4A934219D07B683A4A934213D0F1
:1026A4007B68394A93420DD07B68384A934207D0FD
:1026B4007B68374A934201D105230AE0062308E0E8
:1026C400042306E0032304E0022302E0012300E0E4
:1026D40000237A6A02F0030292009340FA681343DB
:1026E400FB6025497B6A9B080233FA6841F8232082
:1026F4003B685B6803F48033002B06D0254B1A68D3
:102704002449BB6913430B6006E0224B1A68BB697A
:10271400DB43204913400B603B685B6803F40033E0
:10272400002B06D01B4B5A681A49BB6913434B60F4
:1027340006E0184B5A68BB69DB43164913404B60EB
:102744003B685B6803F48013002B25D0114B9A6817
:102754001049BB6913438B6025E000BF00003210B1
:10276400000031100000221000002110000012109F
:102774000000111000100240000001400008014058
:10278400000C0140001001400014014000180140F9
:10279400001C014000040140154B9A68BB69DB43EF
:1027A400134913408B603B685B6803F40013002BF0
:1027B40006D00F4BDA680E49BB691343CB6006E0C1
:1027C4000B4BDA68BB69DB4309491340CB607B6A76
:1027D40001337B623B681A687B6A22FA03F3002B9D
:1027E4007FF47EAE00BF00BF2C37BD4680BC70476F
:1027F4000004014080B485B000AF78600B467B8054
:102804007B689A687B881340002B02D00123FB73FA
:1028140001E00023FB73FB7B18461437BD4680BCE4
:10282400704780B483B000AF78600B467B8013465A
:102834007B707B78002B03D07A887B681A6103E075
:102844007B881A047B681A6100BF0C37BD4680BCC4
:10285400704780B485B000AF78600B467B807B689E
:10286400DB68FB607A88FB6813401A04FB68D94371
:102874007B880B401A437B681A6100BF1437BD463E
:1028840080BC704780B586B000AF78607B68002B51
:1028940001D1012372E27B681B6803F00103002B62
:1028A40000F08780924B5B6803F00C03042B0CD080
:1028B4008F4B5B6803F00C03082B12D18C4B5B68C5
:1028C40003F48033B3F5803F0BD1894B1B6803F4C9
:1028D4000033002B6CD07B685B68002B68D101232C
:1028E4004CE27B685B68B3F5803F06D1804B1B6884
:1028F4007F4A43F4803313602EE07B685B68002BCF
:102904000CD17B4B1B687A4A23F480331360784BD9
:102914001B68774A23F4802313601DE07B685B689F
:10292400B3F5A02F0CD1724B1B68714A43F480237A
:1029340013606F4B1B686E4A43F4803313600BE0E3
:102944006B4B1B686A4A23F480331360684B1B6823
:10295400674A23F4802313607B685B68002B13D0E1
:10296400FEF748FA386108E0FEF744FA02463B698C
:10297400D31A642B01D9032300E25D4B1B6803F4D3
:102984000033002BF0D014E0FEF734FA386108E08D
:10299400FEF730FA02463B69D31A642B01D90323AC
:1029A400ECE1534B1B6803F40033002BF0D100E03F
:1029B40000BF7B681B6803F00203002B63D04C4B01
:1029C4005B6803F00C03002B0BD0494B5B6803F0EE
:1029D4000C03082B1CD1464B5B6803F48033002B9B
:1029E40016D1434B1B6803F00203002B05D07B6810
:1029F4001B69012B01D00123C0E13D4B1B6823F06F
:102A0400F8027B685B69DB00394913430B603AE0E9
:102A14007B681B69002B20D0364B01221A60FEF71D
:102A2400E9F9386108E0FEF7E5F902463B69D31A93
:102A3400022B01D90323A1E12D4B1B6803F00203F0
:102A4400002BF0D02A4B1B6823F0F8027B685B69EB
:102A5400DB00274913430B6015E0264B00221A6064
:102A6400FEF7C8F9386108E0FEF7C4F902463B698D
:102A7400D31A022B01D9032380E11D4B1B6803F0F9
:102A84000203002BF0D17B681B6803F00803002BC2
:102A94003AD07B689B69002B19D0174B01221A602E
:102AA400FEF7A8F9386108E0FEF7A4F902463B698D
:102AB400D31A022B01D9032360E10D4B5B6A03F0A7
:102AC4000203002BF0D0012000F0D8FA1CE00A4BDE
:102AD40000221A60FEF78EF938610FE0FEF78AF9DA
:102AE40002463B69D31A022B08D9032346E100BFEF
:102AF400001002400000424280044242924B5B6A52
:102B040003F00203002BE9D17B681B6803F0040384
:102B1400002B00F0A6800023FB758B4BDB6903F0D0
:102B24008053002B0DD1884BDB69874A43F08053D7
:102B3400D361854BDB6903F08053BB60BB68012321
:102B4400FB75824B1B6803F48073002B18D17F4BF9
:102B54001B687E4A43F480731360FEF74BF93861B7
:102B640008E0FEF747F902463B69D31A642B01D902
:102B7400032303E1754B1B6803F48073002BF0D02F
:102B84007B68DB68012B06D16F4B1B6A6E4A43F0EE
:102B9400010313622DE07B68DB68002B0CD16A4BC8
:102BA4001B6A694A23F001031362674B1B6A664A76
:102BB40023F0040313621CE07B68DB68052B0CD153
:102BC400614B1B6A604A43F0040313625E4B1B6A49
:102BD4005D4A43F0010313620BE05B4B1B6A5A4AE4
:102BE40023F001031362584B1B6A574A23F0040372
:102BF40013627B68DB68002B15D0FEF7FBF83861A5
:102C04000AE0FEF7F7F802463B69D31A41F288322C
:102C1400934201D90323B1E04B4B1B6A03F0020337
:102C2400002BEED014E0FEF7E5F838610AE0FEF779
:102C3400E1F802463B69D31A41F28832934201D942
:102C440003239BE0404B1B6A03F00203002BEED1ED
:102C5400FB7D012B05D13C4BDB693B4A23F08053C0
:102C6400D3617B68DB69002B00F08780364B5B689F
:102C740003F00C03082B61D07B68DB69022B46D17F
:102C8400334B00221A60FEF7B5F8386108E0FEF70E
:102C9400B1F802463B69D31A022B01D903236DE034
:102CA400294B1B6803F00073002BF0D17B681B6A6F
:102CB400B3F5803F08D1244B5B6823F400327B6872
:102CC4009B68214913434B601F4B5B6823F47412C8
:102CD4007B68196A7B685B6A0B431B4913434B602F
:102CE4001B4B01221A60FEF785F8386108E0FEF7F5
:102CF40081F802463B69D31A022B01D903233DE034
:102D0400114B1B6803F00073002BF0D035E0104B1F
:102D140000221A60FEF76EF8386108E0FEF76AF8E0
:102D240002463B69D31A022B01D9032326E0064B42
:102D34001B6803F00073002BF0D11EE07B68DB6995
:102D4400012B07D1012319E000100240007000405C
:102D5400600042420B4B5B68FB60FB6803F480320B
:102D64007B681B6A9A4206D1FB6803F470127B6885
:102D74005B6A9A4201D0012300E000231846183709
:102D8400BD4680BD0010024080B584B000AF7860BD
:102D940039607B68002B01D10123D0E06A4B1B68AA
:102DA40003F007033A689A4210D9674B1B6823F073
:102DB400070265493B6813430B60634B1B6803F0D0
:102DC40007033A689A4201D00123B8E07B681B6884
:102DD40003F00203002B20D07B681B6803F004037C
:102DE400002B05D0594B5B68584A43F4E0635360A9
:102DF4007B681B6803F00803002B05D0534B5B680A
:102E0400524A43F460535360504B5B6823F0F00222
:102E14007B689B684D4913434B607B681B6803F0D8
:102E24000103002B40D07B685B68012B07D1474B23
:102E34001B6803F40033002B15D101237FE07B686A
:102E44005B68022B07D1414B1B6803F00073002B16
:102E540009D1012373E03D4B1B6803F00203002BEF
:102E640001D101236BE0394B5B6823F003027B68DB
:102E74005B68364913434B60FDF7BCFFF8600AE01A
:102E8400FDF7B8FF0246FB68D31A41F28832934239
:102E940001D9032353E02D4B5B6803F00C027B68DC
:102EA4005B689B009A42EBD1274B1B6803F0070336
:102EB4003A689A4210D2244B1B6823F00702224935
:102EC4003B6813430B60204B1B6803F007033A680D
:102ED4009A4201D0012332E07B681B6803F00403AB
:102EE400002B08D0194B5B6823F4E0627B68DB6835
:102EF400164913434B607B681B6803F00803002BDF
:102F040009D0124B5B6823F460527B681B69DB00B9
:102F14000E4913434B6000F021F802460B4B5B68EB
:102F24001B0903F00F030A49CB5C22FA03F3094A95
:102F34001360094B1B681846FDF71AFF0023184657
:102F44001037BD4680BD00BF002002400010024083
:102F5400404C0008000000200400002090B48AB017
:102F640000AF294B3C1D0FCB84E80F0040F2012336
:102F74003B800023FB610023BB6100237B620023B1
:102F84007B6100233B62214B5B68FB61FB6903F0BF
:102F94000C03042B02D0082B03D02BE01C4B3B6208
:102FA4002BE0FB699B0C03F00F0328333B4413F81D
:102FB400243C7B61FB6903F48033002B12D0134B58
:102FC4005B685B0C03F0010328333B4413F8283C93
:102FD400BB617B690E4A03FB02F2BB69B2FBF3F3EC
:102FE4007B6204E07B690B4A02FB03F37B627B6A2E
:102FF4003B6202E0064B3B6200BF3B6A184628373F
:10300400BD4690BC704700BF304C00080010024021
:1030140000127A0000093D0080B400AF024B1B6827
:103024001846BD4680BC70470000002080B500AF44
:10303400FFF7F2FF0246054B5B681B0A03F0070328
:103044000349CB5C22FA03F3184680BD001002400A
:10305400504C000880B500AFFFF7DEFF0246054B79
:103064005B68DB0A03F007030349CB5C22FA03F332
:10307400184680BD00100240504C000880B485B052
:1030840000AF78600A4B1B680A4AA2FB03235B0A61
:103094007A6802FB03F3FB6000BFFB685A1EFA6008
:1030A400002BF9D100BF00BF1437BD4680BC704768
:1030B40000000020D34D621080B582B000AF78606C
:1030C4007B68002B01D101233FE07B6893F83D30FE
:1030D400DBB2002B06D17B68002283F83C207868A1
:1030E400FDF78CFD7B68242283F83D207B681B68F8
:1030F400DA687B681B6822F40052DA60786800F0B2
:1031040085FC7B681B681A697B681B6822F4904203
:103114001A617B681B685A697B681B6822F02A0263
:103124005A617B681B68DA687B681B6842F400524A
:10313400DA607B6800221A647B68202283F83D20D1
:103144007B68202283F83E20002318460837BD46BA
:1031540080BD80B58AB002AFF860B9603B601346A9
:10316400FB8000237B61FB6893F83D30DBB2202BAE
:103174007CD1BB68002B02D0FB88002B01D101233A
:1031840075E0FB6893F83C30012B01D102236EE01B
:10319400FB68012283F83C20FB6800221A64FB6868
:1031A400212283F83D20FDF725FE7861FB68FA882B
:1031B4009A84FB68FA88DA84FB689B68B3F5805FBD
:1031C40008D1FB681B69002B04D10023FB61BB6899
:1031D400BB6103E0BB68FB610023BB61FB680022A9
:1031E40083F83C202AE03B6800937B69002280211D
:1031F400F86800F038FA0346002B01D0032336E0C8
:10320400FB69002B0BD1BB691B881A46FB681B6842
:10321400C2F308025A60BB690233BB6107E0FB6971
:103224001A78FB681B685A60FB690133FB61FB6811
:10323400DB8C9BB2013B9AB2FB68DA84FB68DB8CC3
:103244009BB2002BCFD13B6800937B6900224021C5
:10325400F86800F008FA0346002B01D0032306E0C7
:10326400FB68202283F83D20002300E00223184657
:103274002037BD4680BD80B584B000AFF860B9602A
:103284001346FB80FB6893F83E30DBB2202B1DD144
:10329400BB68002B02D0FB88002B01D1012316E070
:1032A400FB6893F83C30012B01D102230FE0FB684B
:1032B400012283F83C20FB6800221A63FB881A462B
:1032C400B968F86800F019FA034600E002231846CA
:1032D4001037BD4680BD000080B58AB000AF78606D
:1032E4007B681B681B687B627B681B68DB683B62CE
:1032F4007B681B685B69FB610023BB6100237B6106
:103304007B6A03F00F03BB61BB69002B0DD17B6AA1
:1033140003F02003002B08D03B6A03F02003002BAA
:1033240003D0786800F0C9FA7BE1BB69002B00F098
:10333400B180FB6903F00103002B05D13B6A03F460
:103344009073002B00F0A6807B6A03F00103002B2E
:103354000AD03B6A03F48073002B05D07B681B6C96
:1033640043F001027B681A647B6A03F00403002BB8
:103374000AD0FB6903F00103002B05D07B681B6CAA
:1033840043F002027B681A647B6A03F00203002B99
:103394000AD0FB6903F00103002B05D07B681B6C8A
:1033A40043F004027B681A647B6A03F00803002B71
:1033B4000FD03B6A03F02003002B04D1FB6903F018
:1033C4000103002B05D07B681B6C43F008027B686B
:1033D4001A647B681B6C002B00F01E817B6A03F06F
:1033E4002003002B07D03B6A03F02003002B02D0FC
:1033F400786800F062FA7B681B685B6903F040033D
:10340400002B14BF01230023DBB27B617B681B6CA0
:1034140003F00803002B02D17B69002B31D07868BC
:1034240000F0A4F97B681B685B6903F04003002B80
:1034340023D07B681B685A697B681B6822F04002B2
:103444005A617B689B6B002B13D07B689B6B764A1D
:103454005A637B689B6B1846FEF7F4FC0346002B0B
:1034640016D07B689B6B5B6B7A68926B10469847AF
:103474000EE0786800F0E3F80AE0786800F0DFF81E
:1034840006E0786800F0DBF87B6800221A64C3E089
:1034940000BFC1E07B681B6B012B40F0A1807B6AFD
:1034A40003F01003002B00F09B803B6A03F0100331
:1034B400002B00F095800023FB607B681B681B6871
:1034C400FB607B681B685B68FB60FB687B681B6850
:1034D4005B6903F04003002B4ED07B689B6B1B6839
:1034E4005B683B823B8A002B00F098807B689B8D55
:1034F4003A8A9A4280F092807B683A8ADA857B68BD
:103504009B6B9B69202B2BD07B681B68DA687B68DC
:103514001B6822F48072DA607B681B685A697B68D6
:103524001B6822F001025A617B681B685A697B6838
:103534001B6822F040025A617B68202283F83E20F7
:103544007B6800221A637B681B68DA687B681B68E7
:1035540022F01002DA607B689B6B1846FEF738FC99
:103564007B689A8D7B68DB8D9BB2D31A9BB219461C
:10357400786800F06DF851E07B689A8D7B68DB8D8C
:103584009BB2D31A7B827B68DB8D9BB2002B47D026
:103594007B8A002B44D07B681B68DA687B681B68D5
:1035A40022F49072DA607B681B685A697B681B6836
:1035B40022F001025A617B68202283F83E207B6856
:1035C40000221A637B681B68DA687B681B6822F038
:1035D4001002DA607B8A1946786800F039F81FE037
:1035E4007B6A03F08003002B08D03B6A03F080035E
:1035F400002B03D0786800F0F9F812E07B6A03F03E
:103604004003002B0DD03B6A03F04003002B08D08D
:10361400786800F03AF904E000BF02E000BF00E07F
:1036240000BF2837BD4680BDC937000880B483B0C9
:1036340000AF786000BF0C37BD4680BC704780B4D3
:1036440083B000AF786000BF0C37BD4680BC7047C4
:1036540080B483B000AF78600B467B8000BF0C372A
:10366400BD4680BC704780B584B000AFF860B960D7
:103674003B601346FB712CE0BB69B3F1FF3F28D0DC
:10368400BB69002B07D0FDF7B5FB02463B68D31A94
:10369400BA699A421DD2FB681B68DA68FB681B682A
:1036A40022F4D072DA60FB681B685A69FB681B68F5
:1036B40022F001025A61FB68202283F83D20FB6856
:1036C400202283F83E20FB68002283F83C20032359
:1036D4000FE0FB681B681A68BB681340BA689A421B
:1036E4000CBF01230023DBB21A46FB799A42C3D0F4
:1036F400002318461037BD4680BD80B485B000AFA6
:10370400F860B9601346FB80FB68BA689A62FB688C
:10371400FA889A85FB68FA88DA85FB6800221A64BD
:10372400FB68222283F83E20FB68002283F83C20B9
:10373400FB681B68DA68FB681B6842F48072DA6015
:10374400FB681B685A69FB681B6842F001025A61F6
:10375400FB681B68DA68FB681B6842F02002DA60C9
:10376400002318461437BD4680BC704780B483B02C
:1037740000AF78607B681B68DA687B681B6822F49A
:103784009072DA607B681B685A697B681B6822F058
:1037940001025A617B681B6B012B07D17B681B6894
:1037A400DA687B681B6822F01002DA607B682022EA
:1037B40083F83E207B6800221A6300BF0C37BD46A5
:1037C40080BC704780B584B000AF78607B685B6A6A
:1037D400FB60FB680022DA85FB680022DA84F86863
:1037E400FFF72DFF00BF1037BD4680BD80B485B004
:1037F40000AF78607B6893F83D30DBB2212B3ED17B
:103804007B689B68B3F5805F14D17B681B69002BD0
:1038140010D17B681B6AFB60FB681B881A467B68B7
:103824001B68C2F308025A607B681B6A9A1C7B6897
:103834001A6208E07B681B6A591C7A6811621A785C
:103844007B681B685A607B68DB8C9BB2013B9BB234
:103854007A681946D184002B0FD17B681B68DA681B
:103864007B681B6822F08002DA607B681B68DA6878
:103874007B681B6842F04002DA60002300E0022308
:1038840018461437BD4680BC704780B582B000AF7F
:1038940078607B681B68DA687B681B6822F04002EA
:1038A400DA607B68202283F83D207868FFF7BEFE4B
:1038B400002318460837BD4680BD80B586B000AFEA
:1038C40078607B6893F83E30DBB2222B40F099801D
:1038D4007B689B68B3F5805F17D17B681B69002BFD
:1038E40013D100237B617B689B6A3B617B681B6807
:1038F4005B689BB2C3F308039AB23B691A807B6886
:103904009B6A9A1C7B689A6226E07B689B6A7B614F
:1039140000233B617B689B68B3F5805F07D07B68BD
:103924009B68002B0AD17B681B69002B06D17B683E
:103934001B685B68DAB27B691A7008E07B681B68F5
:103944005B68DBB203F07F03DAB27B691A707B68D1
:103954009B6A5A1C7B689A627B68DB8D9BB2013B35
:103964009BB27A681946D185002B48D17B681B68C5
:10397400DA687B681B6822F02002DA607B681B68C7
:10398400DA687B681B6822F48072DA607B681B68E3
:103994005A697B681B6822F001025A617B68202205
:1039A40083F83E207B681B6B012B23D17B680022AC
:1039B4001A637B681B68DA687B681B6822F0100254
:1039C400DA607B681B681B6803F01003102B0AD1B4
:1039D4000023FB607B681B681B68FB607B681B68BB
:1039E4005B68FB60FB687B689B8D19467868FFF712
:1039F4002FFE02E07868FCF70FFE002302E00023AC
:103A040000E0022318461837BD4680BD80B584B057
:103A140000AF78607B681B681B6923F440517B68A6
:103A2400DA687B681B680A431A617B689A687B685A
:103A34001B691A437B685B691343BB607B681B6823
:103A4400DB6823F4B05323F00C037A681268B96876
:103A54000B43D3607B681B685B6923F440717B680C
:103A64009A697B681B680A435A617B681B682C4A05
:103A7400934203D1FFF7EEFAF86002E0FFF7D6FABB
:103A8400F860FA6813469B0013449A001A447B6852
:103A94005B689B00B2FBF3F3224AA2FB03235B099E
:103AA4001901FA6813469B0013449A001A447B6870
:103AB4005B689B00B2FBF3F21A4BA3FB02035B09A6
:103AC400642000FB03F3D31A1B013233154AA2FB13
:103AD40003235B0903F0F0031944FA6813469B00BF
:103AE40013449A001A447B685B689B00B2FBF3F2B0
:103AF4000C4BA3FB02035B09642000FB03F3D31A02
:103B04001B013233074AA2FB03235B0903F00F02B4
:103B14007B681B680A449A6000BF1037BD4680BDAD
:103B2400003801401F85EB51014B1868704700BFF6
:103B34000C00002070B500260C4D0D4C641BA41025
:103B4400A64209D101F02CF800260A4D0A4C641B48
:103B5400A410A64205D170BD55F8043B9847013620
:103B6400EEE755F8043B98470136F2E7F04C0008BD
:103B7400F04C0008F04C0008F44C000803460244E2
:103B8400934200D1704703F8011BF9E70FB40A4BC5
:103B940013B51C6824B1A36913B9204600F05AFA7E
:103BA40005AB2046049AA168019300F05DFC02B0C5
:103BB400BDE8104004B070470C00002070B50E46FC
:103BC400054618B183690BB900F044FAAB69AC68D7
:103BD40013B9284600F03EFA2C4B9C4220D16C6865
:103BE400636EDB0705D4A389980502D4A06D00F0A9
:103BF400CFFAA38919071DD52369DBB1013EA36858
:103C040016F8011F013BA36039BB002B38DA2246AA
:103C14000A21284600F048F8013011D00A2511E0A5
:103C24001B4B9C4201D1AC68DAE71A4B9C4208BF9B
:103C3400EC68D5E72146284600F088F80028DDD056
:103C44004FF0FF35636EDA0705D4A3899B0502D4D0
:103C5400A06D00F09EFA284670BD002B04DAA2691C
:103C64009A4206DC0A2904D023685A1C226019707F
:103C7400C5E72246284600F017F80130BFD1DFE738
:103C84000A2523685A1C22601D70DBE77C4C00085F
:103C94009C4C00085C4C0008024B01461868FFF776
:103CA4008DBF00BF0C000020F8B50E461446054633
:103CB40018B183690BB900F0CDF9214B9C422BD18B
:103CC4006C68A369A360A3891A072FD523696BB312
:103CD40023692068F6B2C01A63693746834204DC5C
:103CE4002146284600F022F930BBA3680130013B8D
:103CF400A36023685A1C22601E706369834204D047
:103D0400A389DB0706D50A2E04D12146284600F0F4
:103D14000DF988B93846F8BD0A4B9C4201D1AC680C
:103D2400CFE7094B9C4208BFEC68CAE72146284606
:103D340000F00CF80028CBD04FF0FF37EAE700BFC3
:103D44007C4C00089C4C00085C4C0008324B70B55D
:103D54001D6806460C4625B1AB6913B9284600F028
:103D640079F92E4B9C420FD16C68A389B4F90C20CD
:103D740019072CD4DD0611D40923336042F0400323
:103D84004FF0FF30A3813EE0254B9C4201D1AC684B
:103D9400EBE7244B9C4208BFEC68E6E7580712D5D2
:103DA400616B41B104F14403994202D0304600F002
:103DB40057FA00236363A38923F02403A381002318
:103DC400636023692360A38943F00803A381236903
:103DD4004BB9A38903F42073B3F5007F03D02146C4
:103DE400304600F0FDF9A089B4F90C2010F001036D
:103DF4000AD00023A36063695B42A361236943B9CA
:103E040010F08000BAD170BD810758BF6369A36008
:103E1400F4E70020F7E700BF0C0000207C4C00080A
:103E24009C4C00085C4C00088A89F8B505461007CC
:103E34000C4657D44B68002B04DC0B6C002B01DCC4
:103E44000020F8BDE66A002EFAD0002312F4805256
:103E54002F682B6032D0606DA3895A0705D563683B
:103E6400C01A636B0BB1236CC01A00230246E66AC6
:103E74002846216AB047431CA38906D129681D2915
:103E84002CD8294ACA40D60728D500226260226964
:103E9400D904226004D5421C01D12B6803B96065A2
:103EA400616B2F600029CBD004F14403994202D006
:103EB400284600F0D5F900206063C2E7216A012397
:103EC4002846B047411CC7D12B68002BC4D01D2BFA
:103ED40001D0162B01D12F60B2E7A38943F0400330
:103EE400A381AEE70F69002FAAD0930718BF002360
:103EF4000E6808BF4B69F61B0F608B60002E9FDDB8
:103F040033463A462846216AD4F828C0E0470028B8
:103F140006DCA3894FF0FF3043F04003A38190E710
:103F24000744361AEAE700BF0100402038B50B69A0
:103F340005460C4613B90025284638BD18B18369D7
:103F44000BB900F087F8144B9C421BD16C68B4F990
:103F54000C30002BEFD0626ED00704D4990502D444
:103F6400A06D00F015F928462146FFF75DFF636E4A
:103F74000546DA07E0D4A3899B05DDD4A06D00F0E3
:103F840008F9D9E7054B9C4201D1AC68DFE7044B43
:103F94009C4208BFEC68DAE77C4C00089C4C0008A3
:103FA4005C4C0008002310B50446C0E90033C0E9A6
:103FB4000433836081814366C28183611946082288
:103FC4005C30FFF7DBFD054B24626362044BA362A4
:103FD400044BE362044B236310BD00BF194A00087D
:103FE4003B4A0008734A0008974A0008014900F058
:103FF400AFB800BF313F0008682270B54D1E55436D
:104004000E4605F1740100F093F9044640B1002115
:10401400C0E900160C30A06005F16802FFF7AEFDA0
:10402400204670BD014800F0B3B800BFAD010020C8
:10403400014800F0AEB800BFAD010020014800F017
:10404400A7B800BFAE010020014800F0A2B800BF2D
:10405400AE01002010B50446FFF7F0FFA3691BB1C1
:10406400BDE81040FFF7F0BFC4E912332365134BDA
:10407400134A1B68A262A34208BF0123204608BF5B
:10408400A36100F01FF86060204600F01BF8A060F8
:10409400204600F017F800220421E0606068FFF772
:1040A40081FF01220921A068FFF77CFF022212216F
:1040B400E068FFF777FF0123A361D1E7584C0008BC
:1040C400F13F0008F8B50746FFF7ACFF1E4B1E682A
:1040D400B36913B93046FFF7BDFF4836D6E901345A
:1040E400013B03D533680BB33668F7E7B4F90C50DA
:1040F400D5B9164B04F15800E360656600F047F843
:10410400FFF796FF08222946C4E90155C4E904557E
:104114002560A56104F15C00FFF730FDC4E90D558D
:10412400C4E912552046F8BD6834D9E7042138465D
:10413400FFF762FF044630600028D5D1FFF778FF0F
:104144000C233B60EEE700BF584C00080100FFFF62
:104154002DE9F84306468846002700F14804D4E9CF
:104164000195B9F1010905D52468002CF7D1384629
:10417400BDE8F883AB89012B07D9B5F90E300133BB
:1041840003D029463046C04707436835E9E77047FE
:104194007047704770B50E46B1F90E1014460029E9
:1041A4001D4696B008DA0022B6F90C302A601A06C9
:1041B40010D44FF480630EE06A4600F091FC0028AE
:1041C400F1DB019A02F47042A2F500535A425A41BB
:1041D4002A60EEE740230020236016B070BD000083
:1041E4008B8973B59D0706460C4607D504F1470332
:1041F400236023610123636102B070BD6A4601AB91
:10420400FFF7C8FF00990546304600F091F848B919
:10421400B4F90C309A05EFD423F0030343F00203FE
:10422400A381E3E70D4BB362A389206043F08003CD
:10423400A381009B20616361019B5BB13046B4F9AB
:104244000E1000F05FFC28B1A38923F0030343F0B0
:104254000103A381A0890543A581CDE7F13F0008AF
:1042640038B50546002940D051F8043C0C1F002BFA
:10427400B8BFE41800F076FC1C4A136833B96360D5
:1042840014602846BDE8384000F072BCA34208D947
:10429400206821188B4201BF19685B6809182160E6
:1042A400EDE71A465B680BB1A342FAD911685018BE
:1042B400A0420BD120680144501883421160E0D120
:1042C40018685B68014411605360DAE702D90C2373
:1042D4002B60D6E7206821188B4201BF19685B6800
:1042E4000918216063605460CBE738BDB001002039
:1042F40070B50E4E0C463168054611B900F07AFBD4
:1043040030602146284600F075FB431C0AD0C41CCB
:1043140024F00304A04207D0211A284600F06AFBC7
:10432400013001D14FF0FF34204670BDB4010020AC
:104334002DE9F041CD1C25F0030508350C2D38BFBF
:104344000C25002D074601DBA94205D90C230026C4
:104354003B603046BDE8F0812E4E00F003FC33682C
:104364001C4634BB29463846FFF7C2FF431C0446AB
:104374004DD134682646002E40D123683146384654
:1043840004EB030800F036FB80453AD1216803357D
:104394006D1A25F0030508350C2D38BF0C25384659
:1043A4002946FFF7A5FF01302BD023682B44236057
:1043B4000EE02268521B1ED40B2A16D96119A3429F
:1043C400256018BF5960636808BF316062514B6053
:1043D400384604F10B0600F0CBFB26F00706231D3C
:1043E400F21AB6D09B1BA350B3E76268A3420CBF7A
:1043F40032605A60ECE723466468B2E73446766874
:10440400B9E70C2338463B6000F0B2FBA1E7256016
:10441400DEE700BFB0010020936810B4013B002B1D
:10442400936007DA9469A34201DB0A2902D110BC24
:10443400FFF73ABC1368581C10601970084610BC8A
:104444007047F8B506460F461446D518AC4201D15C
:10445400002007E03A46304614F8011BFFF7DCFF62
:10446400431CF3D1F8BD00002DE9F04F0D4614466E
:10447400984606469DB018B183690BB9FFF7EAFD6B
:10448400894B9D421BD175686B6ED90705D4AB89E6
:104494009A0502D4A86DFFF77BFEAB891B0701D5F3
:1044A4002B69EBB929463046FFF750FCC0B16B6E5F
:1044B400DC070ED54FF0FF301DB0BDE8F08F7B4B0D
:1044C4009D4201D1B568DFE7794B9D4208BFF5688D
:1044D400DAE7AB899805EDD4A86DFFF75AFEE9E752
:1044E4000023099320238DF8293030234FF001094C
:1044F400CDF80C80DFF8BC818DF82A3023469A462B
:1045040013F8012B0AB1252AF9D1BAEB040B0BD00D
:104514005B46224629463046FFF793FF013000F000
:10452400AA80099A5A4409929AF80030002B00F0A4
:10453400A28000234FF0FF32CDE905230AF1010ADE
:10454400049307938DF853301A935446052214F8B4
:10455400011B584800F0F8FA049AD8B9D10644BFB0
:1045640020238DF85330130744BF2B238DF8533089
:104574009AF800302A2B15D0544600204FF00A0C2C
:10458400079A214611F8013B303B092B4ED9B0B1B3
:10459400079214E0A0EB080309FA03F31343A246BD
:1045A4000493D2E7039B191D1B680391002BBBBF27
:1045B4005B4242F0020207930793B8BF0492237848
:1045C4002E2B0CD163782A2B35D1039B02341A1D70
:1045D4001B680392002BB8BF4FF0FF330593DFF83D
:1045E400D8A003225046217800F0AEFA40B140230F
:1045F400A0EB0A0003FA00F0049B01340343049384
:1046040014F8011B06222D488DF8281000F09CFA9E
:1046140000283FD02A4B1BBB039B073323F007031F
:1046240008330393099B3B44099367E70C46012035
:104634000CFB0232A5E700234FF00A0C19460134A3
:104644000593204610F8012B303A092A03D9002B90
:10465400C5D00591C3E7044601230CFB0121F0E713
:1046640003AB00932A463046164B04A9AFF30080EF
:104674000746781CD6D16B6ED90705D4AB899A0549
:1046840002D4A86DFFF785FDAB895B063FF512AF39
:10469400099811E703AB00932A463046094B04A955
:1046A40000F082F8E4E700BF7C4C00089C4C000852
:1046B4005C4C0008BC4C0008C24C0008C64C000806
:1046C40000000000474400082DE9F04716469946CB
:1046D4008A680B6907469342B8BF1346336091F862
:1046E40043200C46DDF820800AB10133336023688F
:1046F400990642BF336802333360256815F0060516
:1047040006D104F1190AE36832689B1AAB4228DC2B
:1047140094F84320131E226818BF012392062DD457
:104724004946384604F14302C047013020D023688B
:10473400E56803F00603042B18BF002532684FF028
:104744000006A36808BFAD1A226908BF25EAE5750B
:104754009342C4BF9B1AED181A34B5421AD10020F3
:1047640008E00123524649463846C047013003D188
:104774004FF0FF30BDE8F0870135C4E73020E11881
:1047840081F843005A1C94F845102244023382F8FD
:104794004310C5E70123224649463846C047013045
:1047A400E6D00136D9E700002DE9FF470F7E914698
:1047B400782F80460C469A460C9D01F1430207D897
:1047C400622F0AD8002F00F0D980582F00F0A4805F
:1047D40004F1420584F842703AE0A7F16303152B13
:1047E400F6D801A151F823F04548000859480008BB
:1047F400D5470008D5470008D5470008D547000825
:1048040059480008D5470008D5470008D54700088F
:10481400D547000867490008894800084949000845
:10482400D5470008D547000889490008D54700083E
:1048340089480008D5470008D547000851490008B1
:104844002B681A1D1B682A6004F1420584F8423063
:104854000123A4E020682968060601F104030AD5AF
:104864000E682B60002E03DA2D23764284F8433041
:104874000A235E4819E00E6810F0400F2B6018BF41
:1048840036B2EFE72B682068191D2960010601D5AF
:104894001E6802E04606FBD51E886F2F0CBF082356
:1048A4000A235248002184F843106568002DA8BFEC
:1048B4002168A560A4BF21F0040121600EB9002D78
:1048C4004DD01546B6FBF3F103FB1167C75D05F840
:1048D400017D3746BB420E46F4D9082B0BD1236821
:1048E400DE0708D5236961689942DEBF302305F8E5
:1048F400013C05F1FF35521B22614B4621464046DF
:10490400CDF800A003AAFFF7DFFE01304CD14FF031
:10491400FF3004B0BDE8F087344881F84570296859
:10492400236851F8046B29601D0614D5DF0744BFC2
:1049340043F0200323601EB9236823F0200323607F
:104944001023AFE7236843F020032360782328482B
:1049540084F84530E3E7590648BFB6B2E6E71546A2
:10496400BBE72B682668181D6169286035061B683B
:1049740001D5196002E07006FBD5198000231546A5
:104984002361BAE72B6800211A1D2A601D6862683A
:10499400284600F0D9F808B1401B606063682361C1
:1049A400002384F84330A8E72A4649464046236951
:1049B400D0470130ABD023689B0713D4E068039B36
:1049C4009842B8BF1846A4E70123324649464046F8
:1049D400D04701309BD00135E36803995B1AAB42A1
:1049E400F2DCEBE7002504F11906F5E7CD4C0008ED
:1049F400DE4C000838B50023054D044608462B60FC
:104A0400FCF796F8431C02D12B6803B1236038BD30
:104A1400B801002010B50C46B1F90E1000F0AEF844
:104A24000028ABBF636DA3891B1823F48053ACBF6C
:104A34006365A38110BD2DE9F0411F468B890546AE
:104A4400DB050C46164605D502230022B1F90E10EB
:104A540000F068F8A389324623F48053A3812846E2
:104A64003B46B4F90E10BDE8F04100F017B810B59C
:104A74000C46B1F90E1000F055F8431CA38915BF7C
:104A8400606523F4805343F48053A38118BFA3814A
:104A940010BDB1F90E1000F013B8000038B504468B
:104AA400084611460022054D2A601A46FBF7F3FF1B
:104AB400431C02D12B6803B1236038BDB801002028
:104AC40038B50023054D044608462B60FBF7FFFF6D
:104AD400431C02D12B6803B1236038BDB801002008
:104AE40038B50023064D0446084611462B60FBF7F3
:104AF400F9FF431C02D12B6803B1236038BD00BF0A
:104B0400B801002038B50023054D044608462B6043
:104B1400FBF7F7FF431C02D12B6803B1236038BDB8
:104B2400B801002038B50446084611460022054D58
:104B34002A601A46FBF7EFFF431C02D12B6803B12E
:104B4400236038BDB8010020034610B5C9B2024441
:104B54009342184601D1002003E0047801338C42CB
:104B6400F6D110BD0148FFF713BB00BFAC01002014
:104B74000148FFF70EBB00BFAC01002038B5044666
:104B8400084611460022054D2A601A46FBF766FFC7
:104B9400431C02D12B6803B1236038BDB801002047
:104BA400F8B500BFF8BC08BC9E467047F8B500BF16
:084BB400F8BC08BC9E467047E6
:104BBC00737461727400000043414E2053656E643F
:104BCC003A253032582025303258202530325820A2
:104BDC0025303258202530325820253032582025A7
:104BEC003032582025303258200A000043414E20E4
:104BFC00526563656976653A253032582025303226
:104C0C005820253032582025303258202530325843
:104C1C00202530325820253032582025303258206B
:104C2C000A00000002030405060708090A0B0C0D14
:104C3C000E0F101000000000000000000102030421
:104C4C000607080900000000010203041000002000
:104C5C000000000000000000000000000000000048
:104C6C000000000000000000000000000000000038
:104C7C000000000000000000000000000000000028
:104C8C000000000000000000000000000000000018
:104C9C000000000000000000000000000000000008
:104CAC0000000000000000000000000000000000F8
:104CBC00232D302B2000686C4C00656667454647F9
:104CCC00003031323334353637383941424344457C
:104CDC0046003031323334353637383961626364EB
:044CEC0065660000F9
:044CF00009020008AD
:044CF400E5010008CE
:104CF8000024F40010000000010000001000002053
:104D0800000000007C4C00089C4C00085C4C00082B
:104D1800000000000000000000000000000000008B
:104D2800000000000000000000000000000000007B
:104D3800000000000000000000000000000000006B
:104D4800000000000000000000000000000000005B
:104D5800000000000000000000000000000000004B
:0400000508000CFDE6
:00000001FF
