:020000040800F2
:1000000000C00020E10A0008710A0008770A000811
:100010007D0A0008830A0008890A00080000000021
:100020000000000000000000000000008F0A00082F
:100030009B0A000800000000A70A0008B30A000895
:10004000290B0008290B0008290B0008290B0008C0
:10005000290B0008290B0008290B0008290B0008B0
:10006000290B0008290B0008290B0008290B0008A0
:10007000290B0008290B0008290B0008290B000890
:10008000290B0008290B0008290B0008290B000880
:10009000290B0008290B0008290B0008290B000870
:1000A000290B0008290B0008290B0008290B000860
:1000B000290B0008290B0008290B0008290B000850
:1000C000290B0008290B0008290B0008290B000840
:1000D000290B0008290B0008290B0008290B000830
:1000E000290B0008290B0008290B0008290B000820
:1000F000290B0008290B0008290B0008290B000810
:10010000290B0008290B0008290B0008290B0008FF
:10011000290B0008290B0008290B0008290B0008EF
:10012000290B0008C10A0008290B0008290B000848
:1001300000000000000000000000000000000000BF
:1001400000000000000000000000000000000000AF
:10015000000000000000000000000000000000009F
:10016000000000000000000000000000000000008F
:10017000000000000000000000000000000000007F
:10018000000000000000000000000000000000006F
:10019000000000000000000000000000000000005F
:1001A000000000000000000000000000000000004F
:1001B000000000000000000000000000000000003F
:1001C000000000000000000000000000000000002F
:1001D000000000000000000000000000000000001F
:0401E0005FF8E0F1F3
:1001E40010B5054C237833B9044B13B10448AFF36D
:1001F40000800123237010BD1000002000000000C7
:10020400AC25000808B5034B1BB103490348AFF301
:10021400008008BD0000000014000020AC25000888
:1002240080B500AF094B1B780133DAB2074B1A7063
:10023400064B1B78142B07D9044B00221A704FF479
:100244000051034801F007FB00BF80BD2C000020D3
:100254000010014080B500AF322000F083F800F0B8
:10026400E9F900BF80BD000080B500AF214B1B68D9
:100274000133204A13601F4B1B68322B09D11E4BDC
:10028400187800230022FF2100F0E6F900F0DAF9E3
:100294001DE0184B1B68642B09D1174B18780023F9
:1002A400FF22002100F0D8F900F0CCF90FE0114B47
:1002B4001B68962B0BD1104B1878FF2300220021CA
:1002C40000F0CAF900F0BEF90A4B00221A600120BE
:1002D40000F0BAF80346002B02D0322000F042F8B6
:1002E400FFF79EFF00F07EF80A2000F07FFC00BFBD
:1002F40080BD00BF300000200000002080B483B027
:1003040000AF0346FB80044AFB88138000BF0C3710
:10031400BD4680BC704700BF3400002080B400AFED
:10032400024B1B881846BD4680BC70473400002031
:1003340080B483B000AF0346FB71044AFB791370A9
:1003440000BF0C37BD4680BC704700BF360000209C
:1003540080B400AF024B1B781846BD4680BC704782
:100364003600002080B582B000AF0346FB80FB88D6
:10037400012B0BD10120FFF7DBFF0020FFF7BEFFAD
:1003840001222021154801F04EFA22E0FB88002BBF
:100394000BD10020FFF7CCFF0020FFF7AFFF0022B6
:1003A40020210E4801F03FFA13E0FB88092B10D9F5
:1003B4000220FFF7BDFFFB88094AA2FB0323DB08E9
:1003C4009BB21846FFF79AFF01222021034801F04F
:1003D4002AFA00BF0837BD4680BD00BF00100140A7
:1003E400CDCCCCCC80B500AFFFF7B2FF0346022BD7
:1003F40013D1FFF793FF0346002B06D0084B1B884D
:10040400013B9AB2064B1A8007E0002220210548DE
:1004140001F009FA0020FFF78BFF00BF80BD00BF89
:10042400340000200010014080B500AF04210548CD
:1004340001F0E2F90346002B01D1012300E000237F
:10044400184680BD0014014080B582B000AF034659
:10045400FB71FFF7E9FF0346012B0ED10E4B1B88FE
:100464001A46FB7901335B009A4209DA0A4B1B886E
:1004740001339AB2084B1A8002E0074B00221A801B
:10048400054B1B88022B01D1012300E000231846F1
:100494000837BD4680BD00BF3800002080B582B05B
:1004A40000AF78600B467B807B881A4679680348E6
:1004B40001F056FE00BF0837BD4680BDBC000020D9
:1004C40090B486B000AF03463960FB71FB790D2B05
:1004D40000F2A88000233B610023FB600023BB6083
:1004E4000023FB7559E03B6803F48033002B0BD1E8
:1004F400FA7D13465B001344042202FA03F31A46FE
:100504003B6913433B610AE0FA7D13465B001344E5
:10051400062202FA03F31A463B6913433B613B6824
:1005240003F48073002B0BD1FA7D13465B00134454
:10053400042202FA03F31A46FB681343FB600AE041
:10054400FA7D13465B001344062202FA03F31A46AB
:10055400FB681343FB603B6803F00103002B0BD1E2
:10056400FA7D13465B001344042202FA03F31A468D
:10057400BB681343BB600AE0FA7D13465B00134477
:10058400062202FA03F31A46BB681343BB603B68B6
:100594005B083B60FB7D0133FB75FB7D072BA2D918
:1005A4000023FB753AE0FB7DC3F10203DB003A69EB
:1005B40022FA03F3FA79F97DDCB21D481346DB0015
:1005C400134403440B44033322461A70FB7DC3F1E6
:1005D4000203DB00FA6822FA03F3FA79F97DDCB24C
:1005E40013481346DB00134403440B4422461A7099
:1005F400FB7DC3F10203DB00BA6822FA03F3FA7944
:10060400F97DDCB20A481346DB00134403440B446F
:10061400063322461A70FB7D0133FB75FB7D022BEA
:10062400C1D900E000BF1837BD4690BC704700BF79
:100634003C00002080B500AF00F052F800F002F852
:1006440000BF80BD80B500AF7E210248FFF726FFC2
:1006540000BF80BD3C00002090B585B000AF0446CB
:10066400084611461A462346FB710346BB710B46E6
:100674007B7113463B71BB791A047B791B021A43C5
:100684003B791343FB60FB79F968184600F004F8E2
:1006940000BF1437BD4690BD80B584B000AF03469B
:1006A4003960FB71FB790D2B05D8FB793968184645
:1006B400FFF706FF11E0FB79FF2B0ED10023FB812E
:1006C40008E0FB89DBB239681846FFF7F9FEFB89BD
:1006D4000133FB81FB890D2BF3D91037BD4680BD57
:1006E40080B582B000AF0023FB7107E0FB790021E5
:1006F4001846FFF7E5FEFB790133FB71FB790D2BFF
:10070400F4D900BF00BF0837BD4680BD80B582B0B4
:1007140000AF0C4B5B690B4A43F002035361094B76
:100724005B6903F002037B607B68002200213920AF
:1007340000F057FB392000F070FB00BF0837BD46BE
:1007440080BD00BF0010024080B588B000AF07F143
:10075400100300221A605A609A60DA602A4B9B697F
:10076400294A43F010039361274B9B6903F010035C
:10077400FB60FB68244B9B69234A43F0200393618D
:10078400214B9B6903F02003BB60BB681E4B9B6934
:100794001D4A43F0040393611B4B9B6903F004035C
:1007A4007B607B68184B9B69174A43F0080393618D
:1007B400154B9B6903F008033B603B68002242F23F
:1007C4002001124801F02FF842F220033B6101237B
:1007D4007B610023BB610223FB6107F1100319460F
:1007E4000A4800F075FE04233B6100237B6101236A
:1007F400BB6107F110031946054800F069FE00BF0C
:100804002037BD4680BD00BF0010024000100140EB
:100814000014014080B500AF00F086F900F00BF839
:10082400FFF792FFFFF772FF00F050F8FFF712FD99
:10083400FFF71AFDFCE780B590B000AF07F118038D
:1008440028220021184601F0A7FE3B1D00221A6051
:100854005A609A60DA601A610123BB614FF48033F5
:10086400FB6100233B620123BB6202237B634FF4E1
:100874008033BB634FF4E013FB6307F1180318469E
:1008840001F002F80346002B01D000F019F80F2301
:100894007B600223BB600023FB604FF480633B61F9
:1008A40000237B613B1D0221184601F06FFA0346C9
:1008B400002B01D000F004F800BF4037BD4680BDD6
:1008C40080B400AF72B600BFFEE7000080B500AF91
:1008D400174B184A1A60164B4FF482725A60144B25
:1008E40000229A60124B0022DA60114B00221A6136
:1008F4000F4B01225A610E4B4FF400729A610C4B5C
:100904001822DA610A4B00221A62094B00225A6249
:10091400074B00229A62064B0A22DA62044801F06D
:100924009BFB0346002B01D0FFF7CAFF00BF80BD2D
:10093400BC000020003C004080B588B000AF786067
:1009440007F1100300221A605A609A60DA607B682B
:100954001B68284A934249D1274BDB69264A43F452
:100964000043D361244BDB6903F40043FB60FB6861
:10097400214B9B69204A43F0080393611E4B9B69FA
:1009840003F00803BB60BB6828233B6102237B613F
:100994000323FB6107F110031946184800F098FD82
:1009A400174B184A1A60164B10225A60144B002237
:1009B4009A60134B8022DA60114B00221A61104BAB
:1009C40000225A610E4B00229A610D4B0022DA611B
:1009D4000B4800F03DFA0346002B01D0FFF770FFEF
:1009E4007B68074A9A64064A7B68536200BF2037D3
:1009F400BD4680BD003C004000100240000C014098
:100A0400140100201C04024080B485B000AF154BD3
:100A14009B69144A43F001039361124B9B6903F0F1
:100A24000103BB60BB680F4BDB690E4A43F0805384
:100A3400D3610C4BDB6903F080537B607B680A4B0A
:100A44005B68FB60FB6823F0E063FB60FB6843F0DA
:100A54000073FB60044AFB68536000BF1437BD4653
:100A640080BC7047001002400000014080B400AF19
:100A7400FEE780B400AFFEE780B400AFFEE780B4C9
:100A840000AFFEE780B400AFFEE780B400AF00BF64
:100A9400BD4680BC704780B400AF00BFBD4680BC7B
:100AA400704780B400AF00BFBD4680BC704780B5BE
:100AB40000AF00F07FF800BF80BD000080B500AF3C
:100AC400024800F09BFA00BF80BD00BF1401002063
:100AD40080B400AF00BFBD4680BC70470C480D49D0
:100AE4000D4A002302E0D458C4500433C4188C4285
:100AF400F9D30A4A0A4C002301E013600432A242EB
:100B0400FBD3FFF7E5FF01F023FDFFF783FE7047FA
:100B14000000002010000020EC2500081000002038
:100B24005C010020FEE7000080B500AF084B1B68A5
:100B3400074A43F010031360032000F047F90F2025
:100B440000F008F8FFF760FF0023184680BD00BFDF
:100B54000020024080B582B000AF7860124B1A6862
:100B6400124B1B7819464FF47A73B3FBF1F3B2FBC3
:100B7400F3F3184600F05FF90346002B01D001237C
:100B84000EE07B680F2B0AD8002279684FF0FF3003
:100B940000F027F9064A7B681360002300E0012374
:100BA40018460837BD4680BD040000200C00002014
:100BB4000800002080B400AF054B1B781A46054B93
:100BC4001B681344034A136000BFBD4680BC7047D2
:100BD4000C0000205801002080B400AF024B1B68B9
:100BE4001846BD4680BC70475801002080B584B0CB
:100BF40000AF7860FFF7F0FFB8607B68FB60FB68CC
:100C0400B3F1FF3F05D00A4B1B781A46FB68134427
:100C1400FB6000BFFFF7E0FF0246BB68D31AFA6827
:100C24009A42F7D800BF00BF1037BD4680BD00BF51
:100C34000C00002080B485B000AF78607B6803F0BE
:100C44000703FB600C4BDB68BB60BA684FF6FF031D
:100C54001340BB60FB681A02BB68134343F0BF63D5
:100C640043F40033BB60044ABB68D36000BF14374D
:100C7400BD4680BC704700BF00ED00E080B400AF0B
:100C8400044BDB681B0A03F007031846BD4680BC0F
:100C9400704700BF00ED00E080B483B000AF0346AE
:100CA400FB7197F90730002B0BDBFB7903F01F0274
:100CB400064997F907305B09012000FA02F241F86E
:100CC400232000BF0C37BD4680BC704700E100E024
:100CD40080B483B000AF03463960FB7197F90730E5
:100CE400002B0ADB3B68DAB20C4997F90730120192
:100CF400D2B20B4483F800230AE03B68DAB2084915
:100D0400FB7903F00F03043B1201D2B20B441A76B1
:100D140000BF0C37BD4680BC704700BF00E100E057
:100D240000ED00E080B489B000AFF860B9607A608B
:100D3400FB6803F00703FB61FB69C3F10703042BA2
:100D440028BF0423BB61FB690433062B02D9FB696A
:100D5400033B00E000237B614FF0FF32BB6902FAE2
:100D640003F3DA43BB681A407B699A404FF0FF31C2
:100D74007B6901FA03F3D9437B680B40134318469C
:100D84002437BD4680BC704780B582B000AF786020
:100D94007B68013BB3F1807F01D301230FE00A4A52
:100DA4007B68013B53600F214FF0FF30FFF790FF4A
:100DB400054B00229A60044B07221A600023184650
:100DC4000837BD4680BD00BF10E000E080B582B0AA
:100DD40000AF78607868FFF72DFF00BF0837BD4685
:100DE40080BD80B586B000AF0346B9607A60FB73FE
:100DF40000237B61FFF742FF78617A68B9687869FC
:100E0400FFF790FF024697F90F3011461846FFF797
:100E14005FFF00BF1837BD4680BD80B582B000AF0C
:100E24000346FB7197F907301846FFF735FF00BFFB
:100E34000837BD4680BD80B582B000AF7860786861
:100E4400FFF7A2FF034618460837BD4680BD0000E1
:100E540080B485B000AF78600023FB607B68002B12
:100E640001D1012359E07B681B681A462D4B9A4235
:100E74000FD87B681B681A462B4B13442B4AA2FBE2
:100E840003231B099A007B681A647B68284ADA6387
:100E94000EE07B681B681A46264B1344234AA2FBC8
:100EA40003231B099A007B681A647B68224ADA636D
:100EB4007B68022283F821207B681B681B68FB6027
:100EC400FB6823F47F5323F03003FB607B685A688C
:100ED4007B689B681A437B68DB681A437B681B69E1
:100EE4001A437B685B691A437B689B691A437B6876
:100EF400DB691343FA681343FB607B681B68FA6879
:100F04001A607B6800229A637B68012283F821209F
:100F14007B68002283F82020002318461437BD463E
:100F240080BC704707040240F8FFFDBFCDCCCCCC99
:100F340000000240F8FBFDBF0004024080B586B00B
:100F440000AFF860B9607A603B600023FB75FB6812
:100F540093F82030012B01D102234AE0FB680122DF
:100F640083F82020FB6893F82130012B3AD1FB68E9
:100F7400022283F82120FB6800229A63FB681B6825
:100F84001A68FB681B6822F001021A603B687A68E1
:100F9400B968F86800F06EFAFB68DB6A002B08D0C9
:100FA400FB681B681A68FB681B6842F00E021A6033
:100FB4000FE0FB681B681A68FB681B6822F00402D8
:100FC4001A60FB681B681A68FB681B6842F00A0217
:100FD4001A60FB681B681A68FB681B6842F0010210
:100FE4001A6005E0FB68002283F820200223FB75C9
:100FF400FB7D18461837BD4680BD000080B584B01F
:1010040000AF78607B68DB6B1B68FB607B681B68E8
:101014001B68BB607B681B6C04229A40FB6813400E
:10102400002B00F0F180BB6803F00403002B00F0F8
:10103400EB807B681B681B6803F02003002B07D13F
:101044007B681B681A687B681B6822F004021A60BC
:101054007B681B681A465F4B9A4258D97B681B68A9
:101064005D4A93424FD07B681B685C4A934248D0E8
:101074007B681B685A4A934240D07B681B68594A74
:10108400934238D07B681B68574A934230D07B68C0
:101094001B68564A934228D07B681B684D4A93428A
:1010A40020D07B681B68524A934219D07B681B6826
:1010B400504A934212D07B681B684F4A93420AD02D
:1010C4007B681B684D4A934202D14FF480431BE076
:1010D4004FF4802318E04FF4806315E0402313E0BD
:1010E400042311E04FF080630EE04FF480030BE023
:1010F4004FF4802308E04FF4804305E04FF480630D
:1011040002E0402300E004233D4A536057E07B683B
:101114001B68314A93424FD07B681B682F4A934225
:1011240048D07B681B682E4A934240D07B681B687A
:101134002C4A934238D07B681B682B4A934230D0A8
:101144007B681B68294A934228D07B681B68214A24
:10115400934220D07B681B68254A934219D07B6850
:101164001B68244A934212D07B681B68224A93422C
:101174000AD07B681B68214A934202D14FF4804312
:101184001BE04FF4802318E04FF4806315E0402304
:1011940013E0042311E04FF080630EE04FF480036A
:1011A4000BE04FF4802308E04FF4804305E04FF454
:1011B400806302E0402300E00423124A53607B680A
:1011C400DB6A002B00F036817B68DB6A786898471D
:1011D40030E100BF80000240080002401C000240D1
:1011E4003000024044000240580002406C000240BB
:1011F400080402401C04024030040240440402403B
:1012040000040240000002407B681B6C02229A40EA
:10121400FB681340002B00F0DD80BB6803F0020381
:10122400002B00F0D7807B681B681B6803F0200349
:10123400002B0BD17B681B681A687B681B6822F043
:101244000A021A607B68012283F821207B681B68EC
:101254001A467B4B9A4258D97B681B68794A934259
:101264004FD07B681B68784A934248D07B681B68E0
:10127400764A934240D07B681B68754A934238D0C3
:101284007B681B68734A934230D07B681B68724A40
:10129400934228D07B681B68694A934220D07B68BC
:1012A4001B686E4A934219D07B681B686C4A934250
:1012B40012D07B681B686B4A93420AD07B681B6818
:1012C400694A934202D14FF400531BE04FF40033B8
:1012D40018E04FF4007315E0202313E0022311E01B
:1012E4004FF000730EE04FF400130BE04FF40033A3
:1012F40008E04FF4005305E04FF4007302E02023AC
:1013040000E00223594A536057E07B681B684D4A4A
:1013140093424FD07B681B684B4A934248D07B680A
:101324001B684A4A934240D07B681B68484A9342F0
:1013340038D07B681B68474A934230D07B681B686F
:10134400454A934228D07B681B683D4A934220D08B
:101354007B681B68414A934219D07B681B68404AEA
:10136400934212D07B681B683E4A93420AD07B6842
:101374001B683D4A934202D14FF400531BE04FF4E3
:10138400003318E04FF4007315E0202313E0022328
:1013940011E04FF000730EE04FF400130BE04FF434
:1013A400003308E04FF4005305E04FF4007302E00B
:1013B400202300E002232E4A53607B68002283F836
:1013C40020207B689B6A002B34D07B689B6A7868FA
:1013D40098472FE07B681B6C08229A40FB681340F7
:1013E400002B28D0BB6803F00803002B23D07B68B4
:1013F4001B681A687B681B6822F00E021A607B68FF
:101404001A6C7B68DB6B012101FA02F25A607B687B
:1014140001229A637B68012283F821207B680022E1
:1014240083F820207B681B6B002B04D07B681B6B2C
:101434007868984700BF00BF1037BD4680BD00BF25
:1014440080000240080002401C00024030000240BC
:1014540044000240580002406C000240080402406C
:101464001C040240300402404404024000040240D0
:101474000000024080B485B000AFF860B9607A60C3
:101484003B60FB681A6CFB68DB6B012101FA02F21A
:101494005A60FB681B683A685A60FB685B68102BEB
:1014A40008D1FB681B687A689A60FB681B68BA6895
:1014B400DA6007E0FB681B68BA689A60FB681B681F
:1014C4007A68DA6000BF1437BD4680BC70470000FC
:1014D40080B48BB000AF7860396000237B62002356
:1014E4003B6279E101227B6A02FA03F3FB613B6808
:1014F4001B68FA691340BB61BA69FB699A4240F000
:1015040068813B685B68964A93425ED0944A9342F2
:1015140075D8944A934258D0924A93426FD8924ACB
:10152400934252D0904A934269D8904A93424CD005
:101534008E4A934263D88E4A934246D08C4A934251
:101544005DD8122B2AD8122B59D801A252F823F0B5
:10155400CF150008A9150008BB150008FD150008E3
:1015640003160008031600080316000803160008F3
:1015740003160008031600080316000803160008E3
:1015840003160008031600080316000803160008D3
:1015940003160008B1150008C5150008754A9342E2
:1015A40013D02CE03B68DB683B6229E03B68DB68D6
:1015B40004333B6224E03B68DB6808333B621FE092
:1015C4003B68DB680C333B621AE03B689B68002B8A
:1015D40002D104233B6213E03B689B68012B05D1D5
:1015E40008233B627B68FA691A6109E008233B62BD
:1015F4007B68FA695A6103E000233B6200E000BFA4
:10160400BB69FF2B01D87B6801E07B6804337B61F5
:10161400BB69FF2B02D87B6A9B0002E07B6A083B14
:101624009B003B617B691A680F213B6901FA03F354
:10163400DB431A40396A3B6901FA03F31A437B69B5
:101644001A603B685B6803F08053002B00F0C18094
:10165400494B9B69484A43F001039361464B9B699C
:1016640003F00103BB60BB68444A7B6A9B080233F6
:1016740052F82330FB607B6A03F003039B000F22C4
:1016840002FA03F3DB43FA681340FB607B683C4ACD
:1016940093421FD07B683B4A934219D07B683A4AF5
:1016A400934213D07B68394A93420DD07B68384A01
:1016B400934207D07B68374A934201D105230AE05D
:1016C400062308E0042306E0032304E0022302E0E7
:1016D400012300E000237A6A02F00302920093409F
:1016E400FA681343FB6025497B6A9B080233FA6856
:1016F40041F823203B685B6803F48033002B06D059
:10170400254B1A682449BB6913430B6006E0224B3E
:101714001A68BB69DB43204913400B603B685B6874
:1017240003F40033002B06D01B4B5A681A49BB69DB
:1017340013434B6006E0184B5A68BB69DB431649F8
:1017440013404B603B685B6803F48013002B25D087
:10175400114B9A681049BB6913438B6025E000BFA5
:10176400000032100000311000002210000021108F
:10177400000012100000111000100240000001408F
:1017840000080140000C0140001001400014014019
:1017940000180140001C014000040140154B9A68E8
:1017A400BB69DB43134913408B603B685B6803F4FC
:1017B4000013002B06D00F4BDA680E49BB691343A4
:1017C400CB6006E00B4BDA68BB69DB430949134085
:1017D400CB607B6A01337B623B681A687B6A22FABE
:1017E40003F3002B7FF47EAE00BF00BF2C37BD4651
:1017F40080BC70470004014080B485B000AF7860BD
:101804000B467B807B689A687B881340002B02D050
:101814000123FB7301E00023FB73FB7B18461437A1
:10182400BD4680BC704780B483B000AF78600B467F
:101834007B8013467B707B78002B03D07A887B688F
:101844001A6103E07B881A047B681A6100BF0C37B5
:10185400BD4680BC704780B485B000AF78600B464D
:101864007B807B68DB68FB607A88FB6813401A0422
:10187400FB68D9437B880B401A437B681A6100BF1D
:101884001437BD4680BC704780B586B000AF786021
:101894007B68002B01D1012372E27B681B6803F093
:1018A4000103002B00F08780924B5B6803F00C036C
:1018B400042B0CD08F4B5B6803F00C03082B12D164
:1018C4008C4B5B6803F48033B3F5803F0BD1894BB9
:1018D4001B6803F40033002B6CD07B685B68002B1F
:1018E40068D101234CE27B685B68B3F5803F06D185
:1018F400804B1B687F4A43F4803313602EE07B687F
:101904005B68002B0CD17B4B1B687A4A23F4803331
:101914001360784B1B68774A23F4802313601DE01F
:101924007B685B68B3F5A02F0CD1724B1B68714ABE
:1019340043F4802313606F4B1B686E4A43F4803377
:1019440013600BE06B4B1B686A4A23F4803313600B
:10195400684B1B68674A23F4802313607B685B68C9
:10196400002B13D0FFF738F9386108E0FFF734F99A
:1019740002463B69D31A642B01D9032300E25D4B71
:101984001B6803F40033002BF0D014E0FFF724F9B4
:10199400386108E0FFF720F902463B69D31A642B4B
:1019A40001D90323ECE1534B1B6803F40033002BF0
:1019B400F0D100E000BF7B681B6803F00203002B3A
:1019C40063D04C4B5B6803F00C03002B0BD0494BEA
:1019D4005B6803F00C03082B1CD1464B5B6803F4D3
:1019E4008033002B16D1434B1B6803F00203002BFA
:1019F40005D07B681B69012B01D00123C0E13D4B5D
:101A04001B6823F0F8027B685B69DB0039491343E8
:101A14000B603AE07B681B69002B20D0364B012217
:101A24001A60FFF7D9F8386108E0FFF7D5F80246E5
:101A34003B69D31A022B01D90323A1E12D4B1B6867
:101A440003F00203002BF0D02A4B1B6823F0F802AA
:101A54007B685B69DB00274913430B6015E0264B69
:101A640000221A60FFF7B8F8386108E0FFF7B4F80D
:101A740002463B69D31A022B01D9032380E11D4B93
:101A84001B6803F00203002BF0D17B681B6803F092
:101A94000803002B3AD07B689B69002B19D0174BA5
:101AA40001221A60FFF798F8386108E0FFF794F80C
:101AB40002463B69D31A022B01D9032360E10D4B83
:101AC4005B6A03F00203002BF0D0012000F0A6FAB9
:101AD4001CE00A4B00221A60FFF77EF838610FE021
:101AE400FFF77AF802463B69D31A022B08D903237D
:101AF40046E100BF0010024000004242800442421E
:101B0400924B5B6A03F00203002BE9D17B681B68EC
:101B140003F00403002B00F0A6800023FB758B4B1D
:101B2400DB6903F08053002B0DD1884BDB69874AB6
:101B340043F08053D361854BDB6903F08053BB6072
:101B4400BB680123FB75824B1B6803F48073002B75
:101B540018D17F4B1B687E4A43F480731360FFF7F0
:101B64003BF8386108E0FFF737F802463B69D31ABF
:101B7400642B01D9032303E1754B1B6803F48073C1
:101B8400002BF0D07B68DB68012B06D16F4B1B6AFE
:101B94006E4A43F0010313622DE07B68DB68002B7F
:101BA4000CD16A4B1B6A694A23F001031362674B29
:101BB4001B6A664A23F0040313621CE07B68DB683B
:101BC400052B0CD1614B1B6A604A43F0040313627A
:101BD4005E4B1B6A5D4A43F0010313620BE05B4BEF
:101BE4001B6A5A4A23F001031362584B1B6A574A73
:101BF40023F0040313627B68DB68002B15D0FEF727
:101C0400EBFF38610AE0FEF7E7FF02463B69D31AAF
:101C140041F28832934201D90323B1E04B4B1B6A52
:101C240003F00203002BEED014E0FEF7D5FF386179
:101C34000AE0FEF7D1FF02463B69D31A41F288322B
:101C4400934201D903239BE0404B1B6A03F0020338
:101C5400002BEED1FB7D012B05D13C4BDB693B4ACC
:101C640023F08053D3617B68DB69002B00F087800D
:101C7400364B5B6803F00C03082B61D07B68DB698F
:101C8400022B46D1334B00221A60FEF7A5FF3861C0
:101C940008E0FEF7A1FF02463B69D31A022B01D9E3
:101CA40003236DE0294B1B6803F00073002BF0D174
:101CB4007B681B6AB3F5803F08D1244B5B6823F42F
:101CC40000327B689B68214913434B601F4B5B6860
:101CD40023F474127B68196A7B685B6A0B431B49A3
:101CE40013434B601B4B01221A60FEF775FF3861EA
:101CF40008E0FEF771FF02463B69D31A022B01D9B3
:101D040003233DE0114B1B6803F00073002BF0D05C
:101D140035E0104B00221A60FEF75EFF386108E0E0
:101D2400FEF75AFF02463B69D31A022B01D903235B
:101D340026E0064B1B6803F00073002BF0D11EE075
:101D44007B68DB69012B07D1012319E000100240F5
:101D540000700040600042420B4B5B68FB60FB6814
:101D640003F480327B681B6A9A4206D1FB6803F451
:101D740070127B685B6A9A4201D0012300E0002361
:101D840018461837BD4680BD0010024080B584B0A7
:101D940000AF786039607B68002B01D10123D0E06B
:101DA4006A4B1B6803F007033A689A4210D9674BE1
:101DB4001B6823F0070265493B6813430B60634BC0
:101DC4001B6803F007033A689A4201D00123B8E084
:101DD4007B681B6803F00203002B20D07B681B6820
:101DE40003F00403002B05D0594B5B68584A43F4B5
:101DF400E06353607B681B6803F00803002B05D085
:101E0400534B5B68524A43F460535360504B5B68D6
:101E140023F0F0027B689B684D4913434B607B6859
:101E24001B6803F00103002B40D07B685B68012B27
:101E340007D1474B1B6803F40033002B15D1012352
:101E44007FE07B685B68022B07D1414B1B6803F082
:101E54000073002B09D1012373E03D4B1B6803F091
:101E64000203002B01D101236BE0394B5B6823F0A3
:101E740003027B685B68364913434B60FEF7ACFE94
:101E8400F8600AE0FEF7A8FE0246FB68D31A41F2A6
:101E94008832934201D9032353E02D4B5B6803F04E
:101EA4000C027B685B689B009A42EBD1274B1B6852
:101EB40003F007033A689A4210D2244B1B6823F0BC
:101EC400070222493B6813430B60204B1B6803F055
:101ED40007033A689A4201D0012332E07B681B6809
:101EE40003F00403002B08D0194B5B6823F4E06271
:101EF4007B68DB68164913434B607B681B6803F0FF
:101F04000803002B09D0124B5B6823F460527B68F2
:101F14001B69DB000E4913434B6000F021F80246B5
:101F24000B4B5B681B0903F00F030A49CB5C22FAD5
:101F340003F3094A1360094B1B681846FEF70AFEAF
:101F4400002318461037BD4680BD00BF0020024064
:101F540000100240D42500080400002008000020DE
:101F640090B48AB000AF294B3C1D0FCB84E80F001E
:101F740040F201233B800023FB610023BB6100236B
:101F84007B6200237B6100233B62214B5B68FB6126
:101F9400FB6903F00C03042B02D0082B03D02BE0C5
:101FA4001C4B3B622BE0FB699B0C03F00F032833B3
:101FB4003B4413F8243C7B61FB6903F48033002B1E
:101FC40012D0134B5B685B0C03F0010328333B44D2
:101FD40013F8283CBB617B690E4A03FB02F2BB6920
:101FE400B2FBF3F37B6204E07B690B4A02FB03F36D
:101FF4007B627B6A3B6202E0064B3B6200BF3B6A4A
:1020040018462837BD4690BC704700BFC425000859
:102014000010024000127A0000093D0080B485B02F
:1020240000AF78600A4B1B680A4AA2FB03235B0AD1
:102034007A6802FB03F3FB6000BFFB685A1EFA6078
:10204400002BF9D100BF00BF1437BD4680BC7047D8
:1020540004000020D34D621080B582B000AF7860D8
:102064007B68002B01D1012376E07B685B6A002B3F
:1020740008D17B685B68B3F5827F09D07B68002256
:10208400DA6105E07B6800221A617B6800225A61EC
:102094007B6800229A627B6893F85130DBB2002B94
:1020A40006D17B68002283F850207868FEF744FC50
:1020B4007B68022283F851207B681B681A687B685E
:1020C4001B6822F040021A607B685B6803F482722A
:1020D4007B689B6803F404431A437B68DB6803F45E
:1020E40000631A437B681B6903F002031A437B688D
:1020F4005B6903F001031A437B689B6903F4007373
:102104001A437B68DB6903F038031A437B681B6A54
:1021140003F0800342EA03017B689B6A03F40052E4
:102124007B681B680A431A607B689B691A0C7B688E
:102134001B6802F004025A607B681B68DA697B68DA
:102144001B6822F40062DA617B6800225A657B68AE
:10215400012283F85120002318460837BD4680BD6C
:1021640080B586B000AFF860B9601346FB800023E9
:10217400FB75FB6893F85030012B01D102239BE0DF
:10218400FB68012283F85020FB6893F85130DBB2DE
:10219400012B02D00223FB7589E0BB68002B02D01F
:1021A400FB88002B02D10123FB7580E0FB6803222E
:1021B40083F85120FB6800225A65FB68BA681A63E9
:1021C400FB68FA889A86FB68FA88DA86FB6800223C
:1021D4009A63FB6800225A64FB6800221A64FB6855
:1021E40000229A87FB680022DA87FB689B68B3F5B4
:1021F400004F0FD1FB681B681A68FB681B6822F04C
:1022040040021A60FB681B681A68FB681B6842F48A
:1022140080421A60FB689B6C294ADA62FB689B6CFB
:10222400284A9A62FB689B6C274A1A63FB689B6C7A
:1022340000225A63FB68986CFB681B6B1946FB68A9
:102244001B680C331A46FB68DB8E9BB2FEF776FEE6
:102254000346002B0CD0FB685B6D43F01002FB6857
:102264005A650123FB75FB68012283F851201EE0A7
:10227400FB681B681B6803F04003402B07D0FB6816
:102284001B681A68FB681B6842F040021A60FB680E
:102294001B685A68FB681B6842F020025A60FB689E
:1022A4001B685A68FB681B6842F002025A60FB68AC
:1022B400002283F85020FB7D18461837BD4680BDA8
:1022C400AD23000807230008C923000880B483B0A5
:1022D40000AF786000BF0C37BD4680BC704780B447
:1022E40083B000AF786000BF0C37BD4680BC704738
:1022F40080B483B000AF786000BF0C37BD4680BCAB
:10230400704780B586B000AF78607B685B6A7B619C
:10231400FEF762FC38617B681B681B6803F02003CE
:10232400202B3BD07B691B685A687B691B6822F0B1
:1023340020025A607B691B685A687B691B6822F01B
:1023440002025A603A696421786900F0E3F80346AE
:10235400002B05D07B695B6D43F020027B695A65D5
:102364007B699B68002B0AD10023FB607B691B6897
:10237400DB68FB607B691B689B68FB60FB687B69AF
:102384000022DA867B69012283F851207B695B6D28
:10239400002B03D07869FFF7ABFF02E07869FFF701
:1023A40095FF1837BD4680BD80B584B000AF786016
:1023B4007B685B6AFB60F868FFF791FF00BF10372A
:1023C400BD4680BD80B584B000AF78607B685B6A31
:1023D400FB60FB681B685A68FB681B6822F00302F9
:1023E4005A60FB685B6D43F01002FB685A65FB683A
:1023F400012283F85120F868FFF77AFF00BF1037F5
:10240400BD4680BD80B588B000AFF860B9603B6060
:102414001346FB71FEF7E0FB0246BB6A9B1A3A685F
:102424001344FB61FEF7D8FBB861394B1B685B01B1
:102434001B0DFA6902FB03F37B6154E03B68B3F1C3
:10244400FF3F50D0FEF7C8FB0246BB69D31AFA69B6
:102454009A4202D9FB69002B3DD1FB681B685A687C
:10246400FB681B6822F0E0025A60FB685B68B3F506
:10247400827F11D1FB689B68B3F5004F04D0FB68E1
:102484009B68B3F5806F07D1FB681B681A68FB680B
:102494001B6822F040021A60FB689B6AB3F5005F78
:1024A4000FD1FB681B681A68FB681B6822F4005292
:1024B4001A60FB681B681A68FB681B6842F40052C8
:1024C4001A60FB68012283F85120FB68002283F81C
:1024D4005020032317E07B69002B01D10023FB610B
:1024E4007B69013B7B61FB681B689A68BB6813408E
:1024F400BA689A420CBF01230023DBB21A46FB7967
:102504009A429BD1002318462037BD4680BD00BFA8
:102514000400002080B586B002AFF860B9607A602C
:102524007B680093BB6800228021F868FFF76AFF8C
:102534000346002B07D0FB685B6D43F02002FB6869
:102544005A65032300E0002318461037BD4680BDBA
:1025540070B500260C4D0D4C641BA410A64209D185
:1025640000F022F800260A4D0A4C641BA410A6426F
:1025740005D170BD55F8043B98470136EEE755F890
:10258400043B98470136F2E7E4250008E4250008F7
:10259400E4250008E825000803460244934200D1DC
:1025A400704703F8011BF9E7F8B500BFF8BC08BC95
:1025B4009E467047F8B500BFF8BC08BC9E467047FD
:1025C40002030405060708090A0B0C0D0E0F101070
:1025D40000000000000000000102030406070809CF
:0425E40009020008E0
:0425E800E501000801
:1025EC00FF0000000024F4001000000001000000B7
:0400000508000AE104
:00000001FF
