:020000040800F2
:1000000000C00020FD0D0008250900082B0900088C
:1000100031090008370900083D0900080000000008
:10002000000000000000000000000000430900087C
:100030004F090008000000005B090008670900087C
:10004000450E0008450E0008450E0008450E000844
:10005000450E0008450E0008450E0008450E000834
:10006000450E0008450E0008450E0008450E000824
:10007000450E0008450E0008450E0008450E000814
:10008000450E0008450E0008450E0008450E000804
:10009000450E0008450E0008450E0008450E0008F4
:1000A000450E0008450E0008450E0008450E0008E4
:1000B000450E0008450E0008450E0008450E0008D4
:1000C000450E0008450E0008450E0008450E0008C4
:1000D000450E0008450E0008450E0008450E0008B4
:1000E000450E0008450E0008450E0008450E0008A4
:1000F000450E0008450E0008450E0008450E000894
:10010000450E0008450E0008450E0008450E000883
:10011000450E0008450E0008450E0008450E000873
:10012000450E0008450E0008450E0008450E000863
:1001300000000000000000000000000000000000BF
:1001400000000000000000000000000000000000AF
:10015000000000000000000000000000000000009F
:10016000000000000000000000000000000000008F
:10017000000000000000000000000000000000007F
:10018000000000000000000000000000000000006F
:10019000000000000000000000000000000000005F
:1001A000000000000000000000000000000000004F
:1001B000000000000000000000000000000000003F
:1001C000000000000000000000000000000000002F
:1001D000000000000000000000000000000000001F
:0401E0005FF8E0F1F3
:1001E40010B5054C237833B9044B13B10448AFF36D
:1001F40000800123237010BD0C00002000000000CB
:10020400A02B000808B5034B1BB103490348AFF307
:10021400008008BD0000000010000020A02B000892
:1002240080B500AF094B1B780133DAB2074B1A7063
:10023400064B1B78142B07D9044B00221A704FF479
:100244000051034801F02BF900BF80BD28000020B5
:100254000010014080B500AF322000F0A9F800F092
:1002640063F900BF80BD000080B582B000AF0120FB
:1002740000F010F90346002B57D0322000F098F814
:100284002F4B1B6801332E4A136000237B602C4BD9
:100294001B68012B1AD14FF4FA637B607B681BB295
:1002A4001946002000F0B4F97B681BB219460120FE
:1002B40000F0AEF97B681BB21946022000F0A8F9E1
:1002C4007B681BB21946032000F0A2F91C4B1B6883
:1002D400022B02D1002000F04FF9194B1B68032BAD
:1002E40019D1184B7B607B681BB21946002000F0C3
:1002F4008FF97B681BB21946012000F089F97B68ED
:100304001BB21946022000F083F97B681BB2194620
:10031400032000F07DF90A4B1B68042B05D1084B20
:1003240000221A60012000F027F9FFF779FF00F09E
:100334007FF80A2000F0E8FD00BF0837BD4680BD05
:100344002C00002030F8FFFF80B483B000AF0346D8
:10035400FB80044AFB88138000BF0C37BD4680BC79
:10036400704700BF3000002080B400AF024B1B88F0
:100374001846BD4680BC70473000002080B483B06E
:1003840000AF0346FB71044AFB79137000BF0C37BE
:10039400BD4680BC704700BF3200002080B400AF6F
:1003A400024B1B781846BD4680BC704732000020C3
:1003B40080B582B000AF0346FB80FB88012B0BD1D4
:1003C4000120FFF7DBFF0020FFF7BEFF0122202101
:1003D400154801F04CF822E0FB88002B0BD10020DB
:1003E400FFF7CCFF0020FFF7AFFF002220210E48CB
:1003F40001F03DF813E0FB88092B10D90220FFF728
:10040400BDFFFB88094AA2FB0323DB089BB2184605
:10041400FFF79AFF01222021034801F028F800BFCA
:100424000837BD4680BD00BF00100140CDCCCCCC08
:1004340080B500AFFFF7B2FF0346022B13D1FFF7DD
:1004440093FF0346002B06D0084B1B88013B9AB24E
:10045400064B1A8007E000222021054801F007F826
:100464000020FFF78BFF00BF80BD00BF30000020DD
:100474000010014080B500AF0421054800F0E0FF02
:100484000346002B01D1012300E00023184680BD60
:100494000014014080B582B000AF0346FB71FFF742
:1004A400E9FF0346012B0ED10E4B1B881A46FB793C
:1004B40001335B009A4209DA0A4B1B8801339AB272
:1004C400084B1A8002E0074B00221A80054B1B8858
:1004D400022B01D1012300E0002318460837BD4652
:1004E40080BD00BF3400002080B483B000AF034659
:1004F400FB80B7F90630002B05DDFB8803F5C863E4
:100504009BB21BB20AE0B7F90630002B05DAFB8870
:10051400A3F5C8639BB21BB200E0002318460C3756
:10052400BD4680BC7047000080B500AF0021104874
:1005340001F05EFC04210E4802F076F908210C4813
:1005440002F072F90C210A4801F052FC002109481A
:1005540001F04EFC0421074801F04AFC082105483B
:1005640001F046FC0C21034801F042FC00BF80BDB1
:10057400380000208000002080B483B000AF034620
:10058400FB71FB79002B01D00123FB71FB794FF444
:10059400616203FB02F21C4B5A63FB794FF4616204
:1005A40003FB02F2184B9A63FB794FF4616203FB7D
:1005B40002F2154BDA63FB794FF4616203FB02F23A
:1005C400114B1A64FB794FF4616203FB02F20F4B87
:1005D4001A64FB794FF4616203FB02F20B4B5A631A
:1005E400FB794FF4616203FB02F2084B9A63FB79D7
:1005F4004FF4616203FB02F2044BDA6300BF0C3771
:10060400BD4680BC704700BF00340140002C01404F
:1006140080B584B000AF03460A46FB711346BB8025
:10062400B7F904301846FFF75FFF0346FB81B7F9BB
:100634000E30B3F5616F02DB4FF46163FB81B7F9F0
:100644000E3013F5616F02DC4FF2F013FB81FB797E
:10065400032B67D801A252F823F000BF71060008EB
:10066400A3060008D5060008FF060008FB895B42C4
:100674009BB2FB81B7F90E30002B07DB2C4AB7F98C
:100684000E3053632A4B00229A634CE0284B00221D
:100694005A63B7F90E305A42254B9A6343E0FB89FB
:1006A4005B429BB2FB81B7F90E30002B07DB204A7B
:1006B400B7F90E30D3631E4B00221A6433E01C4B8F
:1006C4000022DA63B7F90E305A42194B1A642AE051
:1006D400B7F90E30002B07DB164AB7F90E30136456
:1006E400144B00225A631EE0124B00221A64B7F91D
:1006F4000E305A420F4B5A6315E0B7F90E30002BF7
:1007040007DB0C4AB7F90E3093630A4B0022DA6315
:1007140009E0084B00229A63B7F90E305A42054BA0
:10072400DA6300E000BF00BF1037BD4680BD00BFE4
:1007340000340140002C014080B588B000AF07F1BF
:10074400100300221A605A609A60DA602A4B9B698F
:10075400294A43F010039361274B9B6903F010036C
:10076400FB60FB68244B9B69234A43F0200393619D
:10077400214B9B6903F02003BB60BB681E4B9B6944
:100784001D4A43F0080393611B4B9B6903F0080364
:100794007B607B68184B9B69174A43F004039361A1
:1007A400154B9B6903F004033B603B68002242F253
:1007B4002001124800F05BFE42F220033B6101235A
:1007C4007B610023BB610223FB6107F1100319461F
:1007D4000A4800F0A1FC04233B6100237B61012350
:1007E400BB6107F110031946054800F095FC00BFF2
:1007F4002037BD4680BD00BF0010024000100140FC
:100804000014014080B500AF00F01CFB00F00BF8B1
:10081400FFF792FF00F0B2F800F074F9FFF71AFD49
:10082400FFF722FDFCE780B590B000AF07F1180395
:1008340028220021184602F0A9F93B1D00221A6063
:100844005A609A60DA601A610123BB614FF4803305
:10085400FB6100233B620123BB6202237B634FF4F1
:100864008033BB634FF4E013FB6307F118031846AE
:1008740000F02EFE0346002B01D000F019F80F23E0
:100884007B600223BB600023FB604FF480633B6109
:1008940000237B613B1D0221184601F09BF80346AF
:1008A400002B01D000F004F800BF4037BD4680BDE6
:1008B40080B400AF72B600BFFEE7000080B485B01C
:1008C40000AF154B9B69144A43F001039361124B2B
:1008D4009B6903F00103BB60BB680F4BDB690E4AE5
:1008E40043F08053D3610C4BDB6903F080537B608E
:1008F4007B680A4B5B68FB60FB6823F0E063FB608A
:10090400FB6843F00073FB60044AFB68536000BF5C
:100914001437BD4680BC70470010024000000140FF
:1009240080B400AFFEE780B400AFFEE780B400AF50
:10093400FEE780B400AFFEE780B400AFFEE780B40A
:1009440000AF00BFBD4680BC704780B400AF00BF9D
:10095400BD4680BC704780B400AF00BFBD4680BCBC
:10096400704780B500AF00F0B3FA00BF80BD80B41B
:1009740000AF00BFBD4680BC7047000080B596B094
:1009840000AF07F1480300221A605A609A60DA60E7
:1009940007F1400300221A605A6007F12403002281
:1009A4001A605A609A60DA601A615A619A613B1D52
:1009B40020220021184602F0E9F8504B504A1A60F0
:1009C4004E4B00225A604D4B00229A604B4B40F62E
:1009D4000F62DA60494B00221A61484B00225A61C7
:1009E400464B80229A61454801F05AF90346002B90
:1009F40001D0FFF75DFF4FF48053BB6407F1480358
:100A040019463E4801F06CFB0346002B01D0FFF76A
:100A14004FFF3A4801F093F90346002B01D0FFF74A
:100A240047FF00233B6400237B6407F1400319461E
:100A3400324801F0A5FF0346002B01D0FFF738FF31
:100A440060237B620023BB620023FB6200233B63C1
:100A540000237B630023BB630023FB6307F12403B0
:100A640000221946254801F07DFA0346002B01D0E7
:100A7400FFF71EFF07F12403042219461F4801F063
:100A840071FA0346002B01D0FFF712FF07F124038C
:100A940008221946194801F065FA0346002B01D0D3
:100AA400FFF706FF07F124030C221946134801F04F
:100AB40059FA0346002B01D0FFF7FAFE00237B60AE
:100AC4000023BB600023FB6000233B6100237B61A8
:100AD4004FF40053BB6100233B623B1D194607489A
:100AE40001F0BAFF0346002B01D0FFF7E1FE0348F3
:100AF40000F0FEF800BF5837BD4680BD3800002026
:100B0400002C014080B596B000AF07F148030022E5
:100B14001A605A609A60DA6007F1400300221A6092
:100B24005A6007F1240300221A605A609A60DA605E
:100B34001A615A619A613B1D20220021184602F075
:100B440025F8504B504A1A604E4B00225A604D4BC8
:100B540000229A604B4B40F60F62DA60494B002248
:100B64001A61484B00225A61464B80229A614548DB
:100B740001F096F80346002B01D0FFF799FE4FF4DD
:100B84008053BB6407F1480319463E4801F0A8FAB4
:100B94000346002B01D0FFF78BFE3A4801F0CFF853
:100BA4000346002B01D0FFF783FE00233B640023A0
:100BB4007B6407F140031946324801F0E1FE034625
:100BC400002B01D0FFF774FE60237B620023BB621D
:100BD4000023FB6200233B6300237B630023BB638E
:100BE4000023FB6307F1240300221946254801F082
:100BF400B9F90346002B01D0FFF75AFE07F124038D
:100C0400042219461F4801F0ADF90346002B01D018
:100C1400FFF74EFE07F1240308221946194801F094
:100C2400A1F90346002B01D0FFF742FE07F124038C
:100C34000C221946134801F095F90346002B01D004
:100C4400FFF736FE00237B600023BB600023FB60BC
:100C540000233B6100237B614FF40053BB610023FD
:100C64003B623B1D1946074801F0F6FE0346002B84
:100C740001D0FFF71DFE034800F03AF800BF5837D3
:100C8400BD4680BD800000200034014080B485B0A2
:100C940000AF78607B681B68124A93420CD1124BF8
:100CA4009B69114A43F4006393610F4B9B6903F4FE
:100CB4000063FB60FB6810E07B681B680B4A93428F
:100CC4000BD1094B9B69084A43F400539361064BCB
:100CD4009B6903F40053BB60BB6800BF1437BD4677
:100CE40080BC7047002C01400010024000340140D9
:100CF40080B58AB000AF786007F1140300221A604F
:100D04005A609A60DA607B681B68344A934243D124
:100D1400334B9B69324A43F008039361304B9B6920
:100D240003F008033B613B692D4B9B692C4A43F05C
:100D3400040393612A4B9B6903F00403FB60FB6883
:100D440003237B610223BB6102233B6207F114038B
:100D54001946244800F0E0F94FF410637B61022344
:100D6400BB6102233B6207F1140319461E4800F0DD
:100D7400D3F91E4B5B687B627B6A23F0C0037B6202
:100D84007B6A43F0E0637B627B6A43F040037B62EF
:100D9400164A7B6A53601DE07B681B68144A9342C1
:100DA40018D10F4B9B690E4A43F0100393610C4B0F
:100DB4009B6903F01003BB60BB684FF470737B61E5
:100DC4000223BB6102233B6207F11403194609485D
:100DD40000F0A2F900BF2837BD4680BD002C0140B9
:100DE40000100240000C01400008014000000140D6
:100DF40000340140001001400C480D490D4A002305
:100E040002E0D458C4500433C4188C42F9D30A4ABB
:100E14000A4C002301E013600432A242FBD3FFF723
:100E2400A6FD01F08FFEFFF7EDFC704700000020E7
:100E34000C000020E02B00080C000020CC00002057
:100E4400FEE7000080B500AF084B1B68074A43F07B
:100E540010031360032000F02BF90F2000F008F8B2
:100E6400FFF72CFD0023184680BD00BF0020024080
:100E740080B582B000AF7860124B1A68124B1B78B1
:100E840019464FF47A73B3FBF1F3B2FBF3F318464C
:100E940000F035F90346002B01D001230EE07B68F6
:100EA4000F2B0AD8002279684FF0FF3000F00BF9BD
:100EB400064A7B681360002300E0012318460837C4
:100EC400BD4680BD00000020080000200400002072
:100ED40080B400AF054B1B781A46054B1B681344BE
:100EE400034A136000BFBD4680BC70470800002061
:100EF400C800002080B400AF024B1B681846BD46F2
:100F040080BC7047C800002080B584B000AF786012
:100F1400FFF7F0FFB8607B68FB60FB68B3F1FF3F4D
:100F240005D00A4B1B781A46FB681344FB6000BFCC
:100F3400FFF7E0FF0246BB68D31AFA689A42F7D873
:100F440000BF00BF1037BD4680BD00BF08000020B1
:100F540080B485B000AF78607B6803F00703FB6062
:100F64000C4BDB68BB60BA684FF6FF031340BB60F1
:100F7400FB681A02BB68134343F0BF6343F40033B6
:100F8400BB60044ABB68D36000BF1437BD4680BC55
:100F9400704700BF00ED00E080B400AF044BDB6895
:100FA4001B0A03F007031846BD4680BC704700BF08
:100FB40000ED00E080B483B000AF03463960FB71FC
:100FC40097F90730002B0ADB3B68DAB20C4997F932
:100FD40007301201D2B20B4483F800230AE03B68C5
:100FE400DAB20849FB7903F00F03043B1201D2B2D1
:100FF4000B441A7600BF0C37BD4680BC704700BF57
:1010040000E100E000ED00E080B489B000AFF860DA
:10101400B9607A60FB6803F00703FB61FB69C3F105
:101024000703042B28BF0423BB61FB690433062B8D
:1010340002D9FB69033B00E000237B614FF0FF32E0
:10104400BB6902FA03F3DA43BB681A407B699A402E
:101054004FF0FF317B6901FA03F3D9437B680B40FE
:10106400134318462437BD4680BC704780B582B010
:1010740000AF78607B68013BB3F1807F01D301232B
:101084000FE00A4A7B68013B53600F214FF0FF30A9
:10109400FFF790FF054B00229A60044B07221A6069
:1010A400002318460837BD4680BD00BF10E000E0AD
:1010B40080B582B000AF78607868FFF749FF00BF61
:1010C4000837BD4680BD80B586B000AF0346B96021
:1010D4007A60FB7300237B61FFF75EFF78617A68B7
:1010E400B9687869FFF790FF024697F90F30114607
:1010F4001846FFF75FFF00BF1837BD4680BD80B5B7
:1011040082B000AF78607868FFF7B0FF03461846F6
:101114000837BD4680BD000080B48BB000AF786056
:10112400396000237B6200233B6279E101227B6A00
:1011340002FA03F3FB613B681B68FA691340BB6165
:10114400BA69FB699A4240F068813B685B68964AD9
:1011540093425ED0944A934275D8944A934258D0AD
:10116400924A93426FD8924A934252D0904A934201
:1011740069D8904A93424CD08E4A934263D88E4A9F
:10118400934246D08C4A93425DD8122B2AD8122B14
:1011940059D801A252F823F017120008F1110008DF
:1011A40003120008451200084B1200084B120008F5
:1011B4004B1200084B1200084B1200084B12000897
:1011C4004B1200084B1200084B1200084B12000887
:1011D4004B1200084B1200084B120008F9110008CA
:1011E4000D120008754A934213D02CE03B68DB686B
:1011F4003B6229E03B68DB6804333B6224E03B68E4
:10120400DB6808333B621FE03B68DB680C333B62FE
:101214001AE03B689B68002B02D104233B6213E075
:101224003B689B68012B05D108233B627B68FA6904
:101234001A6109E008233B627B68FA695A6103E09A
:1012440000233B6200E000BFBB69FF2B01D87B6831
:1012540001E07B6804337B61BB69FF2B02D87B6AA6
:101264009B0002E07B6A083B9B003B617B691A6838
:101274000F213B6901FA03F3DB431A40396A3B69E6
:1012840001FA03F31A437B691A603B685B6803F055
:101294008053002B00F0C180494B9B69484A43F0BE
:1012A40001039361464B9B6903F00103BB60BB6878
:1012B400444A7B6A9B08023352F82330FB607B6A02
:1012C40003F003039B000F2202FA03F3DB43FA68E3
:1012D4001340FB607B683C4A93421FD07B683B4AC7
:1012E400934219D07B683A4A934213D07B68394AB7
:1012F40093420DD07B68384A934207D07B68374AC3
:10130400934201D105230AE0062308E0042306E002
:10131400032304E0022302E0012300E000237A6AAD
:1013240002F0030292009340FA681343FB602549DC
:101334007B6A9B080233FA6841F823203B685B68A8
:1013440003F48033002B06D0254B1A682449BB696B
:1013540013430B6006E0224B1A68BB69DB43204948
:1013640013400B603B685B6803F40033002B06D02A
:101374001B4B5A681A49BB6913434B6006E0184B70
:101384005A68BB69DB43164913404B603B685B6892
:1013940003F48013002B25D0114B9A681049BB69C4
:1013A40013438B6025E000BF0000321000003110B1
:1013B4000000221000002110000012100000111083
:1013C400001002400000014000080140000C0140F0
:1013D400001001400014014000180140001C0140AD
:1013E40000040140154B9A68BB69DB431349134061
:1013F4008B603B685B6803F40013002B06D00F4B33
:10140400DA680E49BB691343CB6006E00B4BDA681C
:10141400BB69DB4309491340CB607B6A01337B62C0
:101424003B681A687B6A22FA03F3002B7FF47EAED2
:1014340000BF00BF2C37BD4680BC7047000401408C
:1014440080B485B000AF78600B467B807B689A6877
:101454007B881340002B02D00123FB7301E000239F
:10146400FB73FB7B18461437BD4680BC704780B4C1
:1014740083B000AF78600B467B8013467B707B782B
:10148400002B03D07A887B681A6103E07B881A04F6
:101494007B681A6100BF0C37BD4680BC704780B4BE
:1014A40085B000AF78600B467B807B68DB68FB60AF
:1014B4007A88FB6813401A04FB68D9437B880B4085
:1014C4001A437B681A6100BF1437BD4680BC70475D
:1014D40080B586B000AF78607B68002B01D1012312
:1014E40072E27B681B6803F00103002B00F0878025
:1014F400924B5B6803F00C03042B0CD08F4B5B689E
:1015040003F00C03082B12D18C4B5B6803F480337B
:10151400B3F5803F0BD1894B1B6803F40033002BD8
:101524006CD07B685B68002B68D101234CE27B683C
:101534005B68B3F5803F06D1804B1B687F4A43F458
:10154400803313602EE07B685B68002B0CD17B4BEF
:101554001B687A4A23F480331360784B1B68774AFC
:1015640023F4802313601DE07B685B68B3F5A02F30
:101574000CD1724B1B68714A43F4802313606F4B88
:101584001B686E4A43F4803313600BE06B4B1B689B
:101594006A4A23F480331360684B1B68674A23F458
:1015A400802313607B685B68002B13D0FFF7A2FCD9
:1015B400386108E0FFF79EFC02463B69D31A642BAE
:1015C40001D9032300E25D4B1B6803F40033002BB5
:1015D400F0D014E0FFF78EFC386108E0FFF78AFCD6
:1015E40002463B69D31A642B01D90323ECE1534B24
:1015F4001B6803F40033002BF0D100E000BF7B68CC
:101604001B6803F00203002B63D04C4B5B6803F0B0
:101614000C03002B0BD0494B5B6803F00C03082B25
:101624001CD1464B5B6803F48033002B16D1434B2B
:101634001B6803F00203002B05D07B681B69012B98
:1016440001D00123C0E13D4B1B6823F0F8027B6805
:101654005B69DB00394913430B603AE07B681B6923
:10166400002B20D0364B01221A60FFF743FC38616F
:1016740008E0FFF73FFC02463B69D31A022B01D96D
:101684000323A1E12D4B1B6803F00203002BF0D0D0
:101694002A4B1B6823F0F8027B685B69DB0027494F
:1016A40013430B6015E0264B00221A60FFF722FC5F
:1016B400386108E0FFF71EFC02463B69D31A022B8F
:1016C40001D9032380E11D4B1B6803F00203002BA7
:1016D400F0D17B681B6803F00803002B3AD07B68C9
:1016E4009B69002B19D0174B01221A60FFF702FCEB
:1016F400386108E0FFF7FEFB02463B69D31A022B70
:1017040001D9032360E10D4B5B6A03F00203002B54
:10171400F0D0012000F0A6FA1CE00A4B00221A6067
:10172400FFF7E8FB38610FE0FFF7E4FB02463B6993
:10173400D31A022B08D9032346E100BF001002404C
:101744000000424280044242924B5B6A03F002036F
:10175400002BE9D17B681B6803F00403002B00F025
:10176400A6800023FB758B4BDB6903F08053002BB1
:101774000DD1884BDB69874A43F08053D361854B95
:10178400DB6903F08053BB60BB680123FB75824BAC
:101794001B6803F48073002B18D17F4B1B687E4AAF
:1017A40043F480731360FFF7A5FB386108E0FFF78B
:1017B400A1FB02463B69D31A642B01D9032303E13D
:1017C400754B1B6803F48073002BF0D07B68DB68D7
:1017D400012B06D16F4B1B6A6E4A43F0010313625F
:1017E4002DE07B68DB68002B0CD16A4B1B6A694ACD
:1017F40023F001031362674B1B6A664A23F0040358
:1018040013621CE07B68DB68052B0CD1614B1B6AFF
:10181400604A43F0040313625E4B1B6A5D4A43F063
:10182400010313620BE05B4B1B6A5A4A23F001036A
:101834001362584B1B6A574A23F0040313627B68F4
:10184400DB68002B15D0FFF755FB38610AE0FFF782
:1018540051FB02463B69D31A41F28832934201D9C3
:101864000323B1E04B4B1B6A03F00203002BEED0C1
:1018740014E0FFF73FFB38610AE0FFF73BFB024649
:101884003B69D31A41F28832934201D903239BE086
:10189400404B1B6A03F00203002BEED1FB7D012BAE
:1018A40005D13C4BDB693B4A23F08053D3617B6811
:1018B400DB69002B00F08780364B5B6803F00C0378
:1018C400082B61D07B68DB69022B46D1334B0022A5
:1018D4001A60FFF70FFB386108E0FFF70BFB0246C5
:1018E4003B69D31A022B01D903236DE0294B1B68F2
:1018F40003F00073002BF0D17B681B6AB3F5803FC3
:1019040008D1244B5B6823F400327B689B6821492F
:1019140013434B601F4B5B6823F474127B68196A92
:101924007B685B6A0B431B4913434B601B4B0122CF
:101934001A60FFF7DFFA386108E0FFF7DBFA0246C6
:101944003B69D31A022B01D903233DE0114B1B68D9
:1019540003F00073002BF0D035E0104B00221A6026
:10196400FFF7C8FA386108E0FFF7C4FA02463B699A
:10197400D31A022B01D9032326E0064B1B6803F07C
:101984000073002BF0D11EE07B68DB69012B07D1CB
:10199400012319E000100240007000406000424240
:1019A4000B4B5B68FB60FB6803F480327B681B6A4B
:1019B4009A4206D1FB6803F470127B685B6A9A4210
:1019C40001D0012300E0002318461837BD4680BD2E
:1019D4000010024080B584B000AF786039607B6845
:1019E400002B01D10123D0E06A4B1B6803F00703ED
:1019F4003A689A4210D9674B1B6823F0070265497D
:101A04003B6813430B60634B1B6803F007033A689E
:101A14009A4201D00123B8E07B681B6803F00203FB
:101A2400002B20D07B681B6803F00403002B05D037
:101A3400594B5B68584A43F4E06353607B681B6806
:101A440003F00803002B05D0534B5B68524A43F460
:101A540060535360504B5B6823F0F0027B689B68D3
:101A64004D4913434B607B681B6803F00103002B53
:101A740040D07B685B68012B07D1474B1B6803F49C
:101A84000033002B15D101237FE07B685B68022BB8
:101A940007D1414B1B6803F00073002B09D10123CC
:101AA40073E03D4B1B6803F00203002B01D10123BB
:101AB4006BE0394B5B6823F003027B685B68364953
:101AC40013434B60FFF716FAF8600AE0FFF712FAC7
:101AD4000246FB68D31A41F28832934201D90323A8
:101AE40053E02D4B5B6803F00C027B685B689B0042
:101AF4009A42EBD1274B1B6803F007033A689A42DA
:101B040010D2244B1B6823F0070222493B6813437D
:101B14000B60204B1B6803F007033A689A4201D01C
:101B2400012332E07B681B6803F00403002B08D018
:101B3400194B5B6823F4E0627B68DB681649134346
:101B44004B607B681B6803F00803002B09D0124B21
:101B54005B6823F460527B681B69DB000E49134306
:101B64004B6000F021F802460B4B5B681B0903F045
:101B74000F030A49CB5C22FA03F3094A1360094BA9
:101B84001B681846FFF774F9002318461037BD4642
:101B940080BD00BF0020024000100240C82B000896
:101BA400000000200400002090B48AB000AF294B4C
:101BB4003C1D0FCB84E80F0040F201233B8000233F
:101BC400FB610023BB6100237B6200237B61002354
:101BD4003B62214B5B68FB61FB6903F00C03042B44
:101BE40002D0082B03D02BE01C4B3B622BE0FB699B
:101BF4009B0C03F00F0328333B4413F8243C7B6114
:101C0400FB6903F48033002B12D0134B5B685B0C2D
:101C140003F0010328333B4413F8283CBB617B6980
:101C24000E4A03FB02F2BB69B2FBF3F37B6204E0EE
:101C34007B690B4A02FB03F37B627B6A3B6202E033
:101C4400064B3B6200BF3B6A18462837BD4690BC32
:101C5400704700BFB82B00080010024000127A0041
:101C640000093D0080B485B000AF78600A4B1B6862
:101C74000A4AA2FB03235B0A7A6802FB03F3FB60B4
:101C840000BFFB685A1EFA60002BF9D100BF00BFE9
:101C94001437BD4680BC704700000020D34D62104D
:101CA40080B582B000AF78607B68002B01D101233E
:101CB40041E07B6893F83D30DBB2002B06D17B68B2
:101CC400002283F83C207868FEF7E0FF7B6802225C
:101CD40083F83D207B681A687B68043319461046F4
:101CE40000F0C2FA7B68012283F846207B68012257
:101CF40083F83E207B68012283F83F207B68012221
:101D040083F840207B68012283F841207B6801220C
:101D140083F842207B68012283F843207B680122F8
:101D240083F844207B68012283F845207B680122E4
:101D340083F83D20002318460837BD4680BD80B592
:101D440082B000AF78607B68002B01D1012341E0B1
:101D54007B6893F83D30DBB2002B06D17B68002210
:101D640083F83C20786800F039F87B68022283F815
:101D74003D207B681A687B6804331946104600F0DE
:101D840073FA7B68012283F846207B68012283F87A
:101D94003E207B68012283F83F207B68012283F880
:101DA40040207B68012283F841207B68012283F86C
:101DB40042207B68012283F843207B68012283F858
:101DC40044207B68012283F845207B68012283F844
:101DD4003D20002318460837BD4680BD80B483B03B
:101DE40000AF786000BF0C37BD4680BC7047000070
:101DF40080B584B000AF786039603B68002B09D1AE
:101E04007B6893F83E30DBB2012B14BF012300231F
:101E1400DBB222E03B68042B09D17B6893F83F30A6
:101E2400DBB2012B14BF01230023DBB215E03B68B6
:101E3400082B09D17B6893F84030DBB2012B14BF27
:101E440001230023DBB208E07B6893F84130DBB266
:101E5400012B14BF01230023DBB2002B01D001238B
:101E640072E03B68002B04D17B68022283F83E2099
:101E740013E03B68042B04D17B68022283F83F20E3
:101E84000BE03B68082B04D17B68022283F84020D6
:101E940003E07B68022283F841207B681B680122EF
:101EA4003968184600F09CFC7B681B68284A9342FA
:101EB40004D07B681B68274A934201D1012300E0C8
:101EC4000023002B07D07B681B685A6C7B681B6857
:101ED40042F400425A647B681B681D4A934218D03E
:101EE4007B681B681B4A934213D07B681B68B3F161
:101EF400804F0ED07B681B68174A934209D07B68D9
:101F04001B68164A934204D07B681B68144A9342A8
:101F140011D17B681B689B6803F00703FB60FB68B7
:101F2400062B10D07B681B681A687B681B6842F01C
:101F340001021A6007E07B681B681A687B681B68EB
:101F440042F001021A60002318461037BD4680BDD6
:101F5400002C01400034014000040040000800400F
:101F6400000C004080B584B000AFF860B9607A60BE
:101F7400FB6893F83C30012B01D10223ACE0FB68F1
:101F8400012283F83C207B680C2B00F29F8001A285
:101F940052F823F0CD1F0008D1200008D1200008FA
:101FA400D12000080D200008D1200008D12000080D
:101FB400D12000084F200008D1200008D1200008BB
:101FC400D12000088F200008FB681B68B9681846F8
:101FD40000F0C4F9FB681B689A69FB681B6842F04F
:101FE40008029A61FB681B689A69FB681B6822F007
:101FF40004029A61FB681B689969BB681A69FB68EB
:102004001B680A439A6162E0FB681B68B96818465A
:1020140000F014FAFB681B689A69FB681B6842F4B9
:1020240000629A61FB681B689A69FB681B6822F46A
:1020340080629A61FB681B689969BB681B691A0214
:10204400FB681B680A439A6141E0FB681B68B96836
:10205400184600F067FAFB681B68DA69FB681B68BE
:1020640042F00802DA61FB681B68DA69FB681B68E6
:1020740022F00402DA61FB681B68D969BB681A693B
:10208400FB681B680A43DA6121E0FB681B68B968D6
:10209400184600F0BBFAFB681B68DA69FB681B682A
:1020A40042F40062DA61FB681B68DA69FB681B684A
:1020B40022F48062DA61FB681B68D969BB681B691A
:1020C4001A02FB681B680A43DA6100E000BFFB6880
:1020D400002283F83C20002318461037BD4680BDFB
:1020E40080B584B000AF786039607B6893F83C3089
:1020F400012B01D10223B3E07B68012283F83C2049
:102104007B68022283F83D207B681B689B68FB6028
:10211400FB6823F07703FB60FB6823F47F43FB60D9
:102124007B681B68FA689A603B681B68B3F5005FBC
:102134003ED0B3F5005F00F28780B3F5805F00F016
:102144008580B3F5805F7FD8702B1AD0702B7BD835
:10215400602B50D0602B77D8502B3CD0502B73D8A9
:10216400402B58D0402B6FD8302B64D0302B6BD8F9
:10217400202B60D0202B67D8002B5CD0102B5AD09A
:1021840062E07B6818683B6899683B685A683B68FA
:10219400DB6800F006FB7B681B689B68FB60FB68E0
:1021A40043F07703FB607B681B68FA689A604EE033
:1021B4007B6818683B6899683B685A683B68DB68C9
:1021C40000F0EFFA7B681B689A687B681B6842F42E
:1021D40080429A603BE07B6818683B6859683B68BA
:1021E400DB681A4600F066FA7B681B6850211846C3
:1021F40000F0BDFA2BE07B6818683B6859683B68BF
:10220400DB681A4600F084FA7B681B686021184674
:1022140000F0ADFA1BE07B6818683B6859683B68BE
:10222400DB681A4600F046FA7B681B6840211846B2
:1022340000F09DFA0BE07B681A683B681B6819463E
:10224400104600F094FA02E000BF00E000BF7B6893
:10225400012283F83D207B68002283F83C20002380
:1022640018461037BD4680BD80B485B000AF786095
:1022740039607B681B68FB607B68334A934213D0E8
:102284007B68324A93420FD07B68B3F1804F0BD006
:102294007B682F4A934207D07B682E4A934203D02F
:1022A4007B682D4A934208D1FB6823F07003FB60DE
:1022B4003B685B68FA681343FB607B68224A93427D
:1022C40013D07B68214A93420FD07B68B3F1804FCF
:1022D4000BD07B681E4A934207D07B681D4A934209
:1022E40003D07B681C4A934208D1FB6823F44073F3
:1022F400FB603B68DB68FA681343FB60FB6823F010
:1023040080023B685B691343FB607B68FA681A6070
:102314003B689A687B68DA623B681A687B689A62F1
:102324007B68094A934203D07B68084A934203D1ED
:102334003B681A697B681A637B6801225A6100BF93
:102344001437BD4680BC7047002C01400034014066
:102354000004004000080040000C004080B487B036
:1023640000AF786039607B681B6A23F001027B68E8
:102374001A627B681B6A7B617B685B683B617B6874
:102384009B69FB60FB6823F07003FB60FB6823F030
:102394000303FB603B681B68FA681343FB607B69BB
:1023A40023F002037B613B689B687A6913437B617A
:1023B4007B68204A934203D07B681F4A93420CD126
:1023C4007B6923F008037B613B68DB687A6913430C
:1023D4007B617B6923F004037B617B68154A93422C
:1023E40003D07B68144A934211D13B6923F4807370
:1023F4003B613B6923F400733B613B685B693A6969
:1024040013433B613B689B693A6913433B617B68B7
:102414003A695A607B68FA689A613B685A687B68D3
:102424005A637B687A691A6200BF1C37BD4680BC58
:10243400704700BF002C01400034014080B487B0D5
:1024440000AF786039607B681B6A23F010027B68F8
:102454001A627B681B6A7B617B685B683B617B6893
:102464009B69FB60FB6823F4E043FB60FB6823F497
:102474004073FB603B681B681B02FA681343FB60F4
:102484007B6923F020037B613B689B681B017A69AD
:1024940013437B617B68214A934203D07B68204AC3
:1024A40093420DD17B6923F080037B613B68DB6839
:1024B4001B017A6913437B617B6923F040037B61D1
:1024C4007B68164A934203D07B68154A934213D122
:1024D4003B6923F480633B613B6923F400633B6104
:1024E4003B685B699B003A6913433B613B689B69AA
:1024F4009B003A6913433B617B683A695A607B6885
:10250400FA689A613B685A687B689A637B687A695F
:102514001A6200BF1C37BD4680BC7047002C0140C6
:102524000034014080B487B000AF786039607B68C4
:102534001B6A23F480727B681A627B681B6A7B6166
:102544007B685B683B617B68DB69FB60FB6823F04D
:102554007003FB60FB6823F00303FB603B681B68AC
:10256400FA681343FB607B6923F400737B613B6867
:102574009B681B027A6913437B617B68214A9342FF
:1025840003D07B68204A93420DD17B6923F4006316
:102594007B613B68DB681B027A6913437B617B695F
:1025A40023F480637B617B68164A934203D07B6883
:1025B400154A934213D13B6923F480533B613B6931
:1025C40023F400533B613B685B691B013A69134385
:1025D4003B613B689B691B013A6913433B617B6820
:1025E4003A695A607B68FA68DA613B685A687B68C2
:1025F400DA637B687A691A6200BF1C37BD4680BC07
:10260400704700BF002C01400034014080B487B003
:1026140000AF786039607B681B6A23F480527B6862
:102624001A627B681B6A3B617B685B687B617B68C1
:10263400DB69FB60FB6823F4E043FB60FB6823F485
:102644004073FB603B681B681B02FA681343FB6022
:102654003B6923F400533B613B689B681B033A6965
:1026640013433B617B68114A934203D07B68104A51
:10267400934209D17B6923F480437B613B685B69A6
:102684009B017A6913437B617B687A695A607B6832
:10269400FA68DA613B685A687B681A647B683A694D
:1026A4001A6200BF1C37BD4680BC7047002C014035
:1026B4000034014080B487B000AFF860B9607A603C
:1026C400FB681B6A7B61FB681B6A23F00102FB68E1
:1026D4001A62FB689B693B613B6923F0F0033B6131
:1026E4007B681B013A6913433B617B6923F00A034E
:1026F4007B617A69BB6813437B61FB683A699A61C1
:10270400FB687A691A6200BF1C37BD4680BC7047FB
:1027140080B487B000AFF860B9607A60FB681B6A68
:1027240023F01002FB681A62FB689B697B61FB68FB
:102734001B6A3B617B6923F470437B617B681B03E9
:102744007A6913437B613B6923F0A0033B61BB6857
:102754001B013A6913433B61FB687A699A61FB6820
:102764003A691A6200BF1C37BD4680BC704780B40A
:1027740085B000AF786039607B689B68FB60FB685C
:1027840023F07003FB603A68FB68134343F00703CC
:10279400FB607B68FA689A6000BF1437BD4680BC52
:1027A400704780B487B000AFF860B9607A603B606E
:1027B400FB689B687B617B6923F47F437B613B6897
:1027C4001A027B681A43BB6813437A6913437B611B
:1027D400FB687A699A6000BF1C37BD4680BC7047AD
:1027E40080B487B000AFF860B9607A60BB6803F06A
:1027F4001F03012202FA03F37B61FB681A6A7B69F7
:10280400DB431A40FB681A62FB681A6ABB6803F070
:102814001F03796801FA03F31A43FB681A6200BFC5
:102824001C37BD4680BC704780B584B000AF78606B
:1028340039603B68002B09D17B6893F84230DBB2E6
:10284400012B14BF01230023DBB222E03B68042BDD
:1028540009D17B6893F84330DBB2012B14BF012309
:102864000023DBB215E03B68082B09D17B6893F8A1
:102874004430DBB2012B14BF01230023DBB208E098
:102884007B6893F84530DBB2012B14BF012300238E
:10289400DBB2002B01D0012363E03B68002B04D1A1
:1028A4007B68022283F8422013E03B68042B04D1A6
:1028B4007B68022283F843200BE03B68082B04D199
:1028C4007B68022283F8442003E07B68022283F8B9
:1028D40045207B681B6804223968184600F00DF90E
:1028E4007B681B685A6C7B681B6842F400425A641C
:1028F4007B681B681D4A934218D07B681B681C4A7E
:10290400934213D07B681B68B3F1804F0ED07B6871
:102914001B68184A934209D07B681B68164A934285
:1029240004D07B681B68154A934211D17B681B68ED
:102934009B6803F00703FB60FB68062B10D07B68E1
:102944001B681A687B681B6842F001021A6007E082
:102954007B681B681A687B681B6842F001021A6076
:10296400002318461037BD4680BD00BF002C01402F
:10297400003401400004004000080040000C004006
:1029840080B485B000AF786039607B6893F83C30E0
:10299400012B01D1022350E07B68012283F83C2003
:1029A4007B68022283F83D207B681B685B68FB60C0
:1029B4007B681B689B68BB60FB6823F07003FB604B
:1029C4003B681B68FA681343FB607B681B68FA6802
:1029D4005A607B681B681B4A934218D07B681B684B
:1029E400194A934213D07B681B68B3F1804F0ED011
:1029F4007B681B68154A934209D07B681B68144A9C
:102A0400934204D07B681B68124A93420CD1BB6882
:102A140023F08003BB603B685B68BA681343BB6008
:102A24007B681B68BA689A607B68012283F83D2042
:102A34007B68002283F83C20002318461437BD46E7
:102A440080BC7047002C0140003401400004004069
:102A540000080040000C004080B485B000AF7860EE
:102A640039600023FB607B6893F83C30012B01D173
:102A740002233DE07B68012283F83C20FB6823F0BD
:102A8400FF023B68DB681343FB60FB6823F440727E
:102A94003B689B681343FB60FB6823F480623B68DC
:102AA4005B681343FB60FB6823F400623B681B68AC
:102AB4001343FB60FB6823F480523B681B69134398
:102AC400FB60FB6823F400523B685B691343FB60C3
:102AD400FB6823F480423B68DB691343FB607B683B
:102AE4001B68FA685A647B68002283F83C20002340
:102AF40018461437BD4680BC704780B487B000AF19
:102B0400F860B9607A60BB6803F01F03042202FA1C
:102B140003F37B61FB681A6A7B69DB431A40FB6839
:102B24001A62FB681A6ABB6803F01F03796801FA2A
:102B340003F31A43FB681A6200BF1C37BD4680BC0E
:102B44007047000070B500260C4D0D4C641BA4109A
:102B5400A64209D100F022F800260A4D0A4C641B53
:102B6400A410A64205D170BD55F8043B9847013620
:102B7400EEE755F8043B98470136F2E7D82B0008F6
:102B8400D82B0008D82B0008DC2B0008034602448D
:102B9400934200D1704703F8011BF9E7F8B500BF71
:102BA400F8BC08BC9E467047F8B500BFF8BC08BC2A
:042BB4009E46704782
:102BB80002030405060708090A0B0C0D0E0F101076
:102BC80000000000000000000102030406070809D5
:042BD80009020008E6
:042BDC00E501000807
:0C2BE0000024F4001000000001000000C0
:0400000508000DFDE5
:00000001FF
