:020000040800F2
:1000000000C00020A51300089110000897100008F8
:100010009D100008A3100008A910000800000000AF
:10002000000000000000000000000000AF10000809
:10003000BB10000800000000C7100008D310000823
:10004000ED130008ED130008ED130008ED13000890
:10005000ED130008ED130008ED130008ED13000880
:10006000ED130008ED130008ED130008ED13000870
:10007000ED130008ED130008E1100008ED1300086F
:10008000ED130008ED130008ED130008ED13000850
:10009000ED130008ED130008ED130008ED13000840
:1000A000ED130008ED130008ED130008ED13000830
:1000B000ED130008ED130008ED130008ED13000820
:1000C000ED130008ED130008ED130008ED13000810
:1000D000ED130008F5100008ED130008ED130008FB
:1000E000ED130008ED130008ED130008ED130008F0
:1000F000ED130008ED130008ED130008ED130008E0
:10010000ED130008ED130008ED130008ED130008CF
:10011000ED130008ED130008ED130008ED130008BF
:10012000ED130008ED130008ED130008ED130008AF
:1001300000000000000000000000000000000000BF
:1001400000000000000000000000000000000000AF
:10015000000000000000000000000000000000009F
:10016000000000000000000000000000000000008F
:10017000000000000000000000000000000000007F
:10018000000000000000000000000000000000006F
:10019000000000000000000000000000000000005F
:1001A000000000000000000000000000000000004F
:1001B000000000000000000000000000000000003F
:1001C000000000000000000000000000000000002F
:1001D000000000000000000000000000000000001F
:0401E0005FF8E0F1F3
:1001E40010B5054C237833B9044B13B10448AFF36D
:1001F40000800123237010BD700000200000000067
:10020400D445000808B5034B1BB103490348AFF3B9
:10021400008008BD0000000074000020D4450008E0
:1002240080B500AF094B1B780133DAB2074B1A7063
:10023400064B1B78142B07D9044B00221A704FF479
:100244000051034802F01DF800BF80BD8C0000205F
:100254000010014080B582B000AF0023FB7100F0B4
:100264008FFD00F015F90346FB71FB79002B03D0D9
:10027400054803F029FAFEE7322000F061F800BFD8
:100284000837BD4680BD00BFEC45000880B500AF0F
:10029400012000F0C7F80346002B0DD0322000F0F7
:1002A4004FF80B4B1B680133094A1360084B1B685A
:1002B4001946084803F082F900F042FBFFF7B0FF4B
:1002C40000F07EF80A2001F0F3F800BF80BD00BF03
:1002D400900000200046000880B483B000AF0346BD
:1002E400FB80044AFB88138000BF0C37BD4680BCEA
:1002F400704700BF9400002080B400AF024B1B88FD
:100304001846BD4680BC70479400002080B483B07A
:1003140000AF0346FB71044AFB79137000BF0C372E
:10032400BD4680BC704700BF9600002080B400AF7B
:10033400024B1B781846BD4680BC704796000020CF
:1003440080B582B000AF0346FB80FB88012B0BD144
:100354000120FFF7DBFF0020FFF7BEFF0122202171
:10036400154801F076FF22E0FB88002B0BD100201A
:10037400FFF7CCFF0020FFF7AFFF002220210E483B
:1003840001F067FF13E0FB88092B10D90220FFF767
:10039400BDFFFB88094AA2FB0323DB089BB2184676
:1003A400FFF79AFF01222021034801F052FF00BF0A
:1003B4000837BD4680BD00BF00100140CDCCCCCC79
:1003C40080B500AFFFF7B2FF0346022B13D1FFF74E
:1003D40093FF0346002B06D0084B1B88013B9AB2BF
:1003E400064B1A8007E000222021054801F031FF66
:1003F4000020FFF78BFF00BF80BD00BF94000020EA
:100404000010014080B500AF0421054801F00AFF47
:100414000346002B01D1012300E00023184680BDD0
:100424000014014080B582B000AF0346FB71FFF7B2
:10043400E9FF0346012B0ED10E4B1B881A46FB79AC
:1004440001335B009A4209DA0A4B1B8801339AB2E2
:10045400084B1A8002E0074B00221A80054B1B88C8
:10046400022B01D1012300E0002318460837BD46C2
:1004740080BD00BF9800002080B500AF00224FF47B
:100484008041024801F0E5FE00BF80BD000C014040
:1004940080B582B000AFFFF7EFFF00F0D2FA0A2078
:1004A40000F089F90023FB7180226B21682000F0A1
:1004B400E1F9642000F07FF900226B21682000F04C
:1004C400D9F9012000F05AF8002000F069F8322030
:1004D40000F0AAF800223821682000F0CBF90022AD
:1004E4006A21682000F0C6F900222321682000F068
:1004F400C1F982223721682000F0BCF975216820F7
:1005040000F0ECF90346FB71FB791946194803F036
:1005140055F8FB79712B02D0FB79732B1BD1012287
:100524006B21682000F0A6F900226C21682000F0FD
:10053400A1F9322000F078F800210C2000F0CEF967
:100544000346FB71FB7919460B4803F037F8FB7936
:10055400482B02D008E0012307E011220A210C20D5
:1005640000F088F9002300E0022318460837BD464E
:1005740080BD00BF0C4600082446000880B582B048
:1005840000AF0346FB71FB79DB00DBB21A461B218B
:10059400682000F06FF9034618460837BD4680BD51
:1005A40080B582B000AF0346FB71FB79DB00DBB2A0
:1005B4001A461C21682000F05DF9034618460837E6
:1005C400BD4680BD80B584B000AF0346FB800023E8
:1005D400FB73FB88BB2B02D90123FB7319E0FB8857
:1005E400612B02D90223FB7313E0FB88292B02D968
:1005F4000323FB730DE0FB88132B02D90423FB7345
:1006040007E0FB88092B02D90523FB7301E00623CD
:10061400FB73FB7B1A461A21682000F02BF9034672
:1006240018461037BD4680BD80B584B000AF034680
:10063400FB80FB88B3F57A7F02D94FF47A73FB8091
:10064400FB88032B01D80423FB80FB884FF47A72C8
:1006540092FBF3F3DBB2013BFB73FB7B1A461921DC
:10066400682000F007F90346FB73FB885B089BB224
:100674001846FFF7A7FF034618461037BD4680BD4E
:1006840080B586B000AFF860B9607A6007F11003F6
:1006940006224321682000F09BF80346FB75FB7D8E
:1006A400002B1AD13B7C1B021AB27B7C1BB2134376
:1006B4001AB2FB681A80BB7C1B021AB2FB7C1BB209
:1006C40013431AB2BB681A803B7D1B021AB27B7DAE
:1006D4001BB213431AB27B681A80FB7D1846183785
:1006E400BD4680BD80B586B000AFF860B9607A6061
:1006F40007F1100306223B21682000F069F8034645
:10070400FB75FB7D002B1AD13B7C1B021AB27B7C50
:100714001BB213431AB2FB681A80BB7C1B021AB2C9
:10072400FB7C1BB213431AB2BB681A803B7D1B02CD
:100734001AB27B7D1BB213431AB27B681A80FB7D0D
:1007440018461837BD4680BD80B586B000AFF86046
:10075400B9607A6007F11003062203210C2000F02F
:1007640037F80346FB75FB7D002B1AD17B7C1B02FB
:100774001AB23B7C1BB213431AB2FB681A80FB7C8F
:100784001B021AB2BB7C1BB213431AB2BB681A8099
:100794007B7D1B021AB23B7D1BB213431AB27B68EA
:1007A4001A8011220A210C2000F064F8FB7D1846FF
:1007B4001837BD4680BD80B582B000AF0346FB80CC
:1007C400FB88184600F074FE00BF0837BD4680BDA4
:1007D40080B582B000AF3B600346FB710B46BB7132
:1007E40013467B7100F034F9FB795B00DBB21846E9
:1007F40000F032FA00F08CF90346002B03D000F02D
:1008040057F9012332E0BB79184600F025FA00F0CD
:100814007FF900F01DF9FB795B005BB243F0010343
:100824005BB2DBB2184600F017FA00F071F917E07A
:100834007B79012B07D1002000F056FA03461A46B3
:100844003B681A7006E0012000F04EFA03461A468F
:100854003B681A707B79013B7B713B6801333B60D9
:100864007B79002BE4D100F023F9002318460837E4
:10087400BD4680BD80B582B000AF0346FB710B4618
:10088400BB7113467B7100F0E3F8FB795B00DBB2CC
:10089400184600F0E1F900F03BF90346002B03D0C1
:1008A40000F006F9012315E0BB79184600F0D4F9ED
:1008B40000F02EF97B79184600F0CEF900F028F903
:1008C4000346002B03D000F0F3F8012302E000F00C
:1008D400EFF8002318460837BD4680BD80B584B0C4
:1008E40000AF03460A46FB711346BB7100F0B0F833
:1008F400FB795B00DBB2184600F0AEF900F008F9B2
:10090400BB79184600F0A8F900F002F900F0A0F84D
:10091400FB795B005BB243F001035BB2DBB21846C8
:1009240000F09AF900F0F4F8002000F0DDF9034635
:10093400FB7300F0BDF8FB7B18461037BD4680BD45
:1009440080B500AF234A24492448FFF7CBFE244A4C
:1009540024492548FFF794FE244A25492548FFF7F2
:10096400F3FE254B1B780133DAB2234B1A70224B6A
:100974001B780A2B2CD9204B00221A70174BB3F981
:1009840000301946144BB3F900301A46114BB3F931
:1009940000301A4802F012FE134BB3F90030194626
:1009A400104BB3F900301A460D4BB3F9003014481C
:1009B40002F004FE0F4BB3F9003019460C4BB3F9A7
:1009C40000301A46094BB3F900300E4802F0F6FD28
:1009D40000BF80BD9E0000209C0000209A000020E3
:1009E400A4000020A2000020A0000020AA000020F3
:1009F400A8000020A6000020AC0000203C4600080F
:100A0400504600086446000880B485B000AF034631
:100A1400FB710023FB730BE00023FB7302E0FB7B01
:100A24000133FB73FB7B092BF9D9FB79013BFB7188
:100A3400FB79002BF0D100BF00BF1437BD4680BC4A
:100A4400704780B500AF0120FFF7DEFF00BF80BD17
:100A540080B500AF154B5B68144A23F070435360B4
:100A6400124B5B68114A43F04053536001224FF428
:100A740000410E4801F0EDFB01224FF400510B48F8
:100A840001F0E7FB0420FFF7BFFF00224FF4004111
:100A9400064801F0DEFB0420FFF7B6FF00224FF406
:100AA4000051024801F0D5FB00BF80BD000C01409D
:100AB40080B500AF154B5B68144A23F07043536054
:100AC400124B5B68114A43F04053536000224FF4C9
:100AD40000510E4801F0BDFB00224FF400410B48C9
:100AE40001F0B7FB0420FFF78FFF01224FF4005100
:100AF400064801F0AEFB01224FF40041034801F027
:100B0400A8FB0420FFF780FF00BF80BD000C01405C
:100B140080B582B000AF0023FB711E4B5B681D4A99
:100B240023F0704353601B4B5B681A4A43F0004345
:100B3400536001224FF40041164801F08AFB012062
:100B4400FFF762FF01224FF40051124801F081FBCC
:100B54000120FFF759FF09E0FB790133FB71FB79B1
:100B6400FA2B03D9FFF7A4FF01230EE04FF4004151
:100B7400084801F057FB0346002BEDD100224FF447
:100B84000051044801F065FB002318460837BD46B0
:100B940080BD00BF000C014080B500AF00224FF4BF
:100BA4000051144801F055FB124B5B68114A23F0C5
:100BB400704353600F4B5B680E4A43F040535360DD
:100BC40000224FF400410B4801F043FB0220FFF7E1
:100BD4001BFF01224FF40051064801F03AFB0220AA
:100BE400FFF712FF00224FF40051024801F031FBDD
:100BF40000BF80BD000C014080B500AF00224FF45F
:100C04000051144801F025FB124B5B68114A23F094
:100C1400704353600F4B5B680E4A43F0405353607C
:100C240001224FF400410B4801F013FB0220FFF7AF
:100C3400EBFE01224FF40051064801F00AFB0220AA
:100C4400FFF7E2FE00224FF40051024801F001FBDD
:100C540000BF80BD000C014080B584B000AF0346E6
:100C6400FB71204B5B681F4A23F0704353601D4B9C
:100C74005B681C4A43F04053536000224FF4005118
:100C8400184801F0E6FA0023FB7323E0FB79DB0943
:100C9400DBB21A464FF40041124801F0DAFAFB794C
:100CA4005B00FB710220FFF7AFFE01224FF40051FD
:100CB4000C4801F0CEFA0220FFF7A6FE00224FF402
:100CC4000051084801F0C5FA0220FFF79DFEFB7BA6
:100CD4000133FB73FB7B072BD8D900BF00BF103750
:100CE400BD4680BD000C014080B584B000AF034612
:100CF400FB710023BB73214B5B68204A23F07043D4
:100D040053601E4B5B681D4A43F00043536000234D
:100D1400FB7322E000224FF40051184801F099FAC5
:100D24000220FFF771FE01224FF40051134801F035
:100D340090FABB7B5B00BB734FF400410F4801F09A
:100D440071FA0346002B02D0BB7B0133BB73012035
:100D5400FFF75AFEFB7B0133FB73FB7B072BD9D9CF
:100D6400FB79002B02D1FFF747FF01E0FFF714FFE7
:100D7400BB7B18461037BD4680BD00BF000C014048
:100D840080B500AF01220349034801F08CFF00BF86
:100D940080BD00BFAD000020B400002080B582B04B
:100DA40000AF0346FB71F91D4FF6FF7301220348A0
:100DB40001F0E7FE00BF0837BD4680BDB400002047
:100DC40080B582B000AF7860064B1B781846FFF7F9
:100DD400E5FF01220349044801F065FF00BF08371D
:100DE400BD4680BDAD000020B400002080B582B0B7
:100DF40000AF7860391D4FF6FF730122034801F0FC
:100E0400C0FE7B6818460837BD4680BDB40000208C
:100E140080B582B000AF0C4B5B690B4A43F0010311
:100E24005361094B5B6903F001037B607B6800221B
:100E340000210E2000F037FC0E2000F050FC00BF13
:100E44000837BD4680BD00BF0010024080B588B0A1
:100E540000AF07F1100300221A605A609A60DA604A
:100E64003F4B9B693E4A43F0100393613C4B9B69A3
:100E740003F01003FB60FB68394B9B69384A43F06D
:100E840020039361364B9B6903F02003BB60BB686E
:100E9400334B9B69324A43F008039361304B9B699F
:100EA40003F008037B607B682D4B9B692C4A43F05D
:100EB400040393612A4B9B6903F004033B603B6882
:100EC400002242F22001274801F0C3F901224FF425
:100ED4002041254801F0BDF900224FF48041224809
:100EE40001F0B7F942F220033B6101237B61002347
:100EF400BB610223FB6107F110031946194800F096
:100F0400FDFF4FF420433B6101237B610123BB615F
:100F14000323FB6107F110031946134800F0EEFFA9
:100F24004FF480433B6101237B610023BB610223B7
:100F3400FB6107F1100319460B4800F0DFFF04239F
:100F44003B6100237B610123BB6107F11003194658
:100F5400064800F0D3FF00BF2037BD4680BD00BF68
:100F64000010024000100140000C01400014014038
:100F740080B500AF00F03AFA00F00BF8FFF766FF17
:100F8400FFF746FF00F064F9FFF764F9FFF77EF915
:100F9400FCE780B590B000AF07F1180328220021C8
:100FA400184602F003FB3B1D00221A605A609A6047
:100FB400DA601A610123BB614FF48033FB610023C3
:100FC4003B620123BB6202237B634FF48033BB6328
:100FD4004FF4E013FB6307F11803184601F06AF9B4
:100FE4000346002B01D000F019F80F237B60022385
:100FF400BB600023FB604FF480633B6100237B6193
:101004003B1D0221184601F0D7FB0346002B01D0FB
:1010140000F004F800BF4037BD4680BD80B400AF87
:1010240072B600BFFEE7000080B485B000AF154B78
:101034009B69144A43F001039361124B9B6903F0CB
:101044000103BB60BB680F4BDB690E4A43F080535E
:10105400D3610C4BDB6903F080537B607B680A4BE4
:101064005B68FB60FB6823F0E063FB60FB6843F0B4
:101074000073FB60044AFB68536000BF1437BD462D
:1010840080BC7047001002400000014080B400AFF3
:10109400FEE780B400AFFEE780B400AFFEE780B4A3
:1010A40000AFFEE780B400AFFEE780B400AF00BF3E
:1010B400BD4680BC704780B400AF00BFBD4680BC55
:1010C400704780B400AF00BFBD4680BC704780B598
:1010D40000AF00F0D1F900BF80BD000080B500AFC3
:1010E400024800F0CFFC00BF80BD00BFF800002024
:1010F40080B500AF024801F007FE00BF80BD00BF0D
:10110400B400002080B586B000AFF860B9607A60A2
:1011140000237B610AE0AFF300800146BB685A1CE0
:10112400BA60CAB21A707B6901337B617A697B68E1
:101134009A42F0DB7B6818461837BD4680BD80B5FF
:1011440086B000AFF860B9607A6000237B6109E083
:10115400BB685A1CBA601B781846FFF747FE7B69C8
:1011640001337B617A697B689A42F1DB7B681846BC
:101174001837BD4680BD80B483B000AF78604FF0AF
:10118400FF3318460C37BD4680BC704780B483B02B
:1011940000AF786039603B684FF400525A60002316
:1011A40018460C37BD4680BC704780B483B000AF8E
:1011B4007860012318460C37BD4680BC704780B464
:1011C40085B000AFF860B9607A6000231846143720
:1011D400BD4680BC7047000080B586B000AF786023
:1011E400144A154BD31A7B617B693B61134B1B6813
:1011F400002B02D1114B124A1A60104B1A687B68FB
:1012040013443A699A4207D202F0A6F903460C2223
:101214001A604FF0FF3309E0084B1B68FB60074B73
:101224001A687B681344054A1360FB68184618372C
:10123400BD4680BD00C0002000040000B0000020B6
:101244005001002080B400AF00BFBD4680BC704791
:1012540080B500AF114B124A1A60104B4FF4E132C3
:101264005A600E4B00229A600C4B0022DA600B4B42
:1012740000221A61094B0C225A61084B00229A6120
:10128400064B0022DA61054801F02EFC0346002BD0
:1012940001D0FFF7C3FE00BF80BD00BFB400002033
:1012A4000038014080B588B000AF786007F11003C2
:1012B40000221A605A609A60DA607B681B68334ABD
:1012C40093425FD1324B9B69314A43F4804393612B
:1012D4002F4B9B6903F48043FB60FB682C4B9B6999
:1012E4002B4A43F004039361294B9B6903F00403E5
:1012F400BB60BB684FF400733B6102237B61032333
:10130400FB6107F110031946224800F0F7FD4FF482
:1013140080633B6100237B610023BB6107F1100301
:1013240019461C4800F0EAFD1B4B1C4A1A601A4B74
:1013340010225A60184B00229A60174B8022DA6000
:10134400154B00221A61144B00225A61124B0022E1
:101354009A61114B0022DA610F4800F0DBF9034671
:10136400002B01D0FFF75AFE7B680B4A5A630A4AE6
:101374007B68536200220021252000F094F9252087
:1013840000F0ADF900BF2037BD4680BD00380140F4
:101394000010024000080140F80000204400024010
:1013A4000C480D490D4A002302E0D458C4500433BC
:1013B400C4188C42F9D30A4A0A4C002301E0136092
:1013C4000432A242FBD3FFF73DFF02F0CBF8FFF754
:1013D400CFFD704700000020700000203C4700084B
:1013E4007000002050010020FEE7000080B500AF2F
:1013F400084B1B68074A43F010031360032000F0F6
:1014040047F90F2000F008F8FFF70EFE00231846F6
:1014140080BD00BF0020024080B582B000AF78607C
:10142400124B1A68124B1B7819464FF47A73B3FBAC
:10143400F1F3B2FBF3F3184600F05FF90346002B17
:1014440001D001230EE07B680F2B0AD800227968B3
:101454004FF0FF3000F027F9064A7B681360002341
:1014640000E0012318460837BD4680BD0000002077
:10147400080000200400002080B400AF054B1B7856
:101484001A46054B1B681344034A136000BFBD464C
:1014940080BC7047080000203C01002080B400AFED
:1014A400024B1B681846BD4680BC70473C010020B7
:1014B40080B584B000AF7860FFF7F0FFB8607B6858
:1014C400FB60FB68B3F1FF3F05D00A4B1B781A465B
:1014D400FB681344FB6000BFFFF7E0FF0246BB68F4
:1014E400D31AFA689A42F7D800BF00BF1037BD4636
:1014F40080BD00BF0800002080B485B000AF7860D4
:101504007B6803F00703FB600C4BDB68BB60BA68C5
:101514004FF6FF031340BB60FB681A02BB6813431A
:1015240043F0BF6343F40033BB60044ABB68D36039
:1015340000BF1437BD4680BC704700BF00ED00E01B
:1015440080B400AF044BDB681B0A03F007031846A2
:10155400BD4680BC704700BF00ED00E080B483B09E
:1015640000AF0346FB7197F90730002B0BDBFB79C7
:1015740003F01F02064997F907305B09012000FABE
:1015840002F241F8232000BF0C37BD4680BC7047EF
:1015940000E100E080B483B000AF03463960FB7122
:1015A40097F90730002B0ADB3B68DAB20C4997F94C
:1015B40007301201D2B20B4483F800230AE03B68DF
:1015C400DAB20849FB7903F00F03043B1201D2B2EB
:1015D4000B441A7600BF0C37BD4680BC704700BF71
:1015E40000E100E000ED00E080B489B000AFF860F5
:1015F400B9607A60FB6803F00703FB61FB69C3F120
:101604000703042B28BF0423BB61FB690433062BA7
:1016140002D9FB69033B00E000237B614FF0FF32FA
:10162400BB6902FA03F3DA43BB681A407B699A4048
:101634004FF0FF317B6901FA03F3D9437B680B4018
:10164400134318462437BD4680BC704780B582B02A
:1016540000AF78607B68013BB3F1807F01D3012345
:101664000FE00A4A7B68013B53600F214FF0FF30C3
:10167400FFF790FF054B00229A60044B07221A6083
:10168400002318460837BD4680BD00BF10E000E0C7
:1016940080B582B000AF78607868FFF72DFF00BF97
:1016A4000837BD4680BD80B586B000AF0346B9603B
:1016B4007A60FB7300237B61FFF742FF78617A68ED
:1016C400B9687869FFF790FF024697F90F30114621
:1016D4001846FFF75FFF00BF1837BD4680BD80B5D1
:1016E40082B000AF0346FB7197F907301846FFF745
:1016F40035FF00BF0837BD4680BD80B582B000AF5E
:1017040078607868FFF7A2FF034618460837BD469D
:1017140080BD000080B485B000AF78600023FB601A
:101724007B68002B01D1012359E07B681B681A46B2
:101734002D4B9A420FD87B681B681A462B4B1344D7
:101744002B4AA2FB03231B099A007B681A647B685B
:10175400284ADA630EE07B681B681A46264B13445A
:10176400234AA2FB03231B099A007B681A647B6843
:10177400224ADA637B68022283F821207B681B6893
:101784001B68FB60FB6823F47F5323F03003FB608A
:101794007B685A687B689B681A437B68DB681A43DA
:1017A4007B681B691A437B685B691A437B689B6986
:1017B4001A437B68DB691343FA681343FB607B6855
:1017C4001B68FA681A607B6800229A637B680122AE
:1017D40083F821207B68002283F820200023184608
:1017E4001437BD4680BC704707040240F8FFFDBFB4
:1017F400CDCCCCCC00000240F8FBFDBF000402407D
:1018040080B485B000AF78600023FB737B6893F8E5
:101814002130022B08D07B6804229A637B68002263
:1018240083F82020012320E07B681B681A687B680A
:101834001B6822F00E021A607B681B681A687B68BA
:101844001B6822F001021A607B681A6C7B68DB6BF0
:10185400012101FA02F25A607B68012283F82120F7
:101864007B68002283F82020FB7B18461437BD4692
:1018740080BC704780B584B000AF78600023FB73F0
:101884007B6893F82130022B05D07B6804229A638D
:101894000123FB73D6E07B681B681A687B681B68AE
:1018A40022F00E021A607B681B681A687B681B684A
:1018B40022F001021A607B681B681A46644B9A4244
:1018C40058D97B681B68634A93424FD07B681B6876
:1018D400614A934248D07B681B68604A934240D077
:1018E4007B681B685E4A934238D07B681B685D4AFC
:1018F400934230D07B681B685B4A934228D07B6854
:101904001B68534A934220D07B681B68574A934212
:1019140019D07B681B68564A934212D07B681B68B7
:10192400544A93420AD07B681B68534A934202D1BB
:101934004FF480531BE04FF4803318E04FF480736E
:1019440015E0102313E0012311E04FF080730EE043
:101954004FF480130BE04FF4803308E04FF48053CE
:1019640005E04FF4807302E0102300E00123434AB2
:10197400536057E07B681B68364A93424FD07B68BC
:101984001B68354A934248D07B681B68334A9342AC
:1019940040D07B681B68324A934238D07B681B680E
:1019A400304A934230D07B681B682F4A934228D038
:1019B4007B681B68264A934220D07B681B682B4AAD
:1019C400934219D07B681B68294A934212D07B68E2
:1019D4001B68284A93420AD07B681B68264A9342B4
:1019E40002D14FF480531BE04FF4803318E04FF4DE
:1019F400807315E0102313E0012311E04FF080738E
:101A04000EE04FF480130BE04FF4803308E04FF402
:101A1400805305E04FF4807302E0102300E00123BB
:101A2400174A53607B68012283F821207B680022D7
:101A340083F820207B685B6B002B03D07B685B6B97
:101A440078689847FB7B18461037BD4680BD00BFB9
:101A540080000240080002401C00024030000240A6
:101A640044000240580002406C0002400804024056
:101A74001C040240300402404404024000040240BA
:101A84000000024080B584B000AF78607B68DB6BF7
:101A94001B68FB607B681B681B68BB607B681B6CF6
:101AA40004229A40FB681340002B00F0F180BB68CD
:101AB40003F00403002B00F0EB807B681B681B68B9
:101AC40003F02003002B07D17B681B681A687B682E
:101AD4001B6822F004021A607B681B681A465F4B7D
:101AE4009A4258D97B681B685D4A93424FD07B6801
:101AF4001B685C4A934248D07B681B685A4A9342ED
:101B040040D07B681B68594A934238D07B681B6875
:101B1400574A934230D07B681B68564A934228D078
:101B24007B681B684D4A934220D07B681B68524AED
:101B3400934219D07B681B68504A934212D07B6849
:101B44001B684F4A93420AD07B681B684D4A9342F4
:101B540002D14FF480431BE04FF4802318E04FF48C
:101B6400806315E0402313E0042311E04FF0806309
:101B74000EE04FF480030BE04FF4802308E04FF4B1
:101B8400804305E04FF4806302E0402300E0042337
:101B94003D4A536057E07B681B68314A93424FD0FB
:101BA4007B681B682F4A934248D07B681B682E4A87
:101BB400934240D07B681B682C4A934238D07B68A0
:101BC4001B682B4A934230D07B681B68294A934296
:101BD40028D07B681B68214A934220D07B681B680D
:101BE400254A934219D07B681B68244A934212D039
:101BF4007B681B68224A93420AD07B681B68214A8F
:101C0400934202D14FF480431BE04FF4802318E049
:101C14004FF4806315E0402313E0042311E04FF0F8
:101C240080630EE04FF480030BE04FF4802308E060
:101C34004FF4804305E04FF4806302E0402300E06A
:101C44000423124A53607B68DB6A002B00F0368160
:101C54007B68DB6A7868984730E100BF8000024007
:101C6400080002401C0002403000024044000240D0
:101C7400580002406C000240080402401C04024068
:101C840030040240440402400004024000000240C8
:101C94007B681B6C02229A40FB681340002B00F007
:101CA400DD80BB6803F00203002B00F0D7807B6863
:101CB4001B681B6803F02003002B0BD17B681B6897
:101CC4001A687B681B6822F00A021A607B6801228A
:101CD40083F821207B681B681A467B4B9A4258D9AB
:101CE4007B681B68794A93424FD07B681B68784AAB
:101CF400934248D07B681B68764A934240D07B6805
:101D04001B68754A934238D07B681B68734A9342B8
:101D140030D07B681B68724A934228D07B681B686A
:101D2400694A934220D07B681B686E4A934219D05B
:101D34007B681B686C4A934212D07B681B686B4AB1
:101D440093420AD07B681B68694A934202D14FF4DC
:101D540000531BE04FF4003318E04FF4007315E018
:101D6400202313E0022311E04FF000730EE04FF440
:101D740000130BE04FF4003308E04FF4005305E088
:101D84004FF4007302E0202300E00223594A536019
:101D940057E07B681B684D4A93424FD07B681B68B1
:101DA4004B4A934248D07B681B684A4A934240D0CE
:101DB4007B681B68484A934238D07B681B68474A53
:101DC400934230D07B681B68454A934228D07B6895
:101DD4001B683D4A934220D07B681B68414A93426A
:101DE40019D07B681B68404A934212D07B681B68F9
:101DF4003E4A93420AD07B681B683D4A934202D113
:101E04004FF400531BE04FF4003318E04FF4007319
:101E140015E0202313E0022311E04FF000730EE0DD
:101E24004FF400130BE04FF4003308E04FF4005379
:101E340005E04FF4007302E0202300E002232E4A61
:101E440053607B68002283F820207B689B6A002B08
:101E540034D07B689B6A786898472FE07B681B6C5A
:101E640008229A40FB681340002B28D0BB6803F07B
:101E74000803002B23D07B681B681A687B681B68E7
:101E840022F00E021A607B681A6C7B68DB6B0121FE
:101E940001FA02F25A607B6801229A637B6801228C
:101EA40083F821207B68002283F820207B681B6B49
:101EB400002B04D07B681B6B7868984700BF00BF79
:101EC4001037BD4680BD00BF8000024008000240BC
:101ED4001C0002403000024044000240580002400E
:101EE4006C000240080402401C040240300402401A
:101EF40044040240000402400000024080B48BB05D
:101F040000AF7860396000237B6200233B6279E193
:101F140001227B6A02FA03F3FB613B681B68FA69DE
:101F24001340BB61BA69FB699A4240F068813B681F
:101F34005B68964A93425ED0944A934275D8944A19
:101F4400934258D0924A93426FD8924A934252D0C5
:101F5400904A934269D8904A93424CD08E4A934215
:101F640063D88E4A934246D08C4A93425DD8122B52
:101F74002AD8122B59D801A252F823F0FB1F0008CB
:101F8400D51F0008E71F0008292000082F2000089B
:101F94002F2000082F2000082F2000082F200008E1
:101FA4002F2000082F2000082F2000082F200008D1
:101FB4002F2000082F2000082F2000082F200008C1
:101FC400DD1F0008F11F0008754A934213D02CE06E
:101FD4003B68DB683B6229E03B68DB6804333B62B7
:101FE40024E03B68DB6808333B621FE03B68DB6846
:101FF4000C333B621AE03B689B68002B02D104233C
:102004003B6213E03B689B68012B05D108233B62CC
:102014007B68FA691A6109E008233B627B68FA6904
:102024005A6103E000233B6200E000BFBB69FF2B61
:1020340001D87B6801E07B6804337B61BB69FF2BBB
:1020440002D87B6A9B0002E07B6A083B9B003B61F1
:102054007B691A680F213B6901FA03F3DB431A40D9
:10206400396A3B6901FA03F31A437B691A603B68D6
:102074005B6803F08053002B00F0C180494B9B69DF
:10208400484A43F001039361464B9B6903F0010303
:10209400BB60BB68444A7B6A9B08023352F8233016
:1020A400FB607B6A03F003039B000F2202FA03F335
:1020B400DB43FA681340FB607B683C4A93421FD0C1
:1020C4007B683B4A934219D07B683A4A934213D0C7
:1020D4007B68394A93420DD07B68384A934207D0D3
:1020E4007B68374A934201D105230AE0062308E0BE
:1020F400042306E0032304E0022302E0012300E0BA
:1021040000237A6A02F0030292009340FA681343B0
:10211400FB6025497B6A9B080233FA6841F8232057
:102124003B685B6803F48033002B06D0254B1A68A8
:102134002449BB6913430B6006E0224B1A68BB6950
:10214400DB43204913400B603B685B6803F40033B6
:10215400002B06D01B4B5A681A49BB6913434B60CA
:1021640006E0184B5A68BB69DB43164913404B60C1
:102174003B685B6803F48013002B25D0114B9A68ED
:102184001049BB6913438B6025E000BF0000321087
:102194000000311000002210000021100000121075
:1021A400000011100010024000000140000801402E
:1021B400000C0140001001400014014000180140CF
:1021C400001C014000040140154B9A68BB69DB43C5
:1021D400134913408B603B685B6803F40013002BC6
:1021E40006D00F4BDA680E49BB691343CB6006E097
:1021F4000B4BDA68BB69DB4309491340CB607B6A4C
:1022040001337B623B681A687B6A22FA03F3002B72
:102214007FF47EAE00BF00BF2C37BD4680BC704744
:102224000004014080B485B000AF78600B467B8029
:102234007B689A687B881340002B02D00123FB73D0
:1022440001E00023FB73FB7B18461437BD4680BCBA
:10225400704780B483B000AF78600B467B80134630
:102264007B707B78002B03D07A887B681A6103E04B
:102274007B881A047B681A6100BF0C37BD4680BC9A
:10228400704780B485B000AF78600B467B807B6874
:10229400DB68FB607A88FB6813401A04FB68D94347
:1022A4007B880B401A437B681A6100BF1437BD4614
:1022B40080BC704780B586B000AF78607B68002B27
:1022C40001D1012372E27B681B6803F00103002B38
:1022D40000F08780924B5B6803F00C03042B0CD056
:1022E4008F4B5B6803F00C03082B12D18C4B5B689B
:1022F40003F48033B3F5803F0BD1894B1B6803F49F
:102304000033002B6CD07B685B68002B68D1012301
:102314004CE27B685B68B3F5803F06D1804B1B6859
:102324007F4A43F4803313602EE07B685B68002BA4
:102334000CD17B4B1B687A4A23F480331360784BAF
:102344001B68774A23F4802313601DE07B685B6875
:10235400B3F5A02F0CD1724B1B68714A43F4802350
:1023640013606F4B1B686E4A43F4803313600BE0B9
:102374006B4B1B686A4A23F480331360684B1B68F9
:10238400674A23F4802313607B685B68002B13D0B7
:10239400FFF784F8386108E0FFF780F802463B69EC
:1023A400D31A642B01D9032300E25D4B1B6803F4A9
:1023B4000033002BF0D014E0FFF770F8386108E028
:1023C400FFF76CF802463B69D31A642B01D9032347
:1023D400ECE1534B1B6803F40033002BF0D100E015
:1023E40000BF7B681B6803F00203002B63D04C4BD7
:1023F4005B6803F00C03002B0BD0494B5B6803F0C4
:102404000C03082B1CD1464B5B6803F48033002B70
:1024140016D1434B1B6803F00203002B05D07B68E5
:102424001B69012B01D00123C0E13D4B1B6823F044
:10243400F8027B685B69DB00394913430B603AE0BF
:102444007B681B69002B20D0364B01221A60FFF7F2
:1024540025F8386108E0FFF721F802463B69D31AF2
:10246400022B01D90323A1E12D4B1B6803F00203C6
:10247400002BF0D02A4B1B6823F0F8027B685B69C1
:10248400DB00274913430B6015E0264B00221A603A
:10249400FFF704F8386108E0FFF700F802463B69EB
:1024A400D31A022B01D9032380E11D4B1B6803F0CF
:1024B4000203002BF0D17B681B6803F00803002B98
:1024C4003AD07B689B69002B19D0174B01221A6004
:1024D400FEF7E4FF386108E0FEF7E0FF02463B69DF
:1024E400D31A022B01D9032360E10D4B5B6A03F07D
:1024F4000203002BF0D0012000F0D8FA1CE00A4BB4
:1025040000221A60FEF7CAFF38610FE0FEF7C6FF2B
:1025140002463B69D31A022B08D9032346E100BFC4
:10252400001002400000424280044242924B5B6A27
:1025340003F00203002BE9D17B681B6803F004035A
:10254400002B00F0A6800023FB758B4BDB6903F0A6
:102554008053002B0DD1884BDB69874A43F08053AD
:10256400D361854BDB6903F08053BB60BB680123F7
:10257400FB75824B1B6803F48073002B18D17F4BCF
:102584001B687E4A43F480731360FEF787FF38614B
:1025940008E0FEF783FF02463B69D31A642B01D996
:1025A400032303E1754B1B6803F48073002BF0D005
:1025B4007B68DB68012B06D16F4B1B6A6E4A43F0C4
:1025C400010313622DE07B68DB68002B0CD16A4B9E
:1025D4001B6A694A23F001031362674B1B6A664A4C
:1025E40023F0040313621CE07B68DB68052B0CD129
:1025F400614B1B6A604A43F0040313625E4B1B6A1F
:102604005D4A43F0010313620BE05B4B1B6A5A4AB9
:1026140023F001031362584B1B6A574A23F0040347
:1026240013627B68DB68002B15D0FEF737FF386137
:102634000AE0FEF733FF02463B69D31A41F28832BF
:10264400934201D90323B1E04B4B1B6A03F002030D
:10265400002BEED014E0FEF721FF38610AE0FEF70C
:102664001DFF02463B69D31A41F28832934201D9D5
:1026740003239BE0404B1B6A03F00203002BEED1C3
:10268400FB7D012B05D13C4BDB693B4A23F0805396
:10269400D3617B68DB69002B00F08780364B5B6875
:1026A40003F00C03082B61D07B68DB69022B46D155
:1026B400334B00221A60FEF7F1FE386108E0FEF7A2
:1026C400EDFE02463B69D31A022B01D903236DE0C8
:1026D400294B1B6803F00073002BF0D17B681B6A45
:1026E400B3F5803F08D1244B5B6823F400327B6848
:1026F4009B68214913434B601F4B5B6823F474129E
:102704007B68196A7B685B6A0B431B4913434B6004
:102714001B4B01221A60FEF7C1FE386108E0FEF788
:10272400BDFE02463B69D31A022B01D903233DE0C7
:10273400114B1B6803F00073002BF0D035E0104BF5
:1027440000221A60FEF7AAFE386108E0FEF7A6FE32
:1027540002463B69D31A022B01D9032326E0064B18
:102764001B6803F00073002BF0D11EE07B68DB696B
:10277400012B07D1012319E0001002400070004032
:10278400600042420B4B5B68FB60FB6803F48032E1
:102794007B681B6A9A4206D1FB6803F470127B685B
:1027A4005B6A9A4201D0012300E0002318461837DF
:1027B400BD4680BD0010024080B584B000AF786093
:1027C40039607B68002B01D10123D0E06A4B1B6880
:1027D40003F007033A689A4210D9674B1B6823F049
:1027E400070265493B6813430B60634B1B6803F0A6
:1027F40007033A689A4201D00123B8E07B681B685A
:1028040003F00203002B20D07B681B6803F0040351
:10281400002B05D0594B5B68584A43F4E06353607E
:102824007B681B6803F00803002B05D0534B5B68DF
:10283400524A43F460535360504B5B6823F0F002F8
:102844007B689B684D4913434B607B681B6803F0AE
:102854000103002B40D07B685B68012B07D1474BF9
:102864001B6803F40033002B15D101237FE07B6840
:102874005B68022B07D1414B1B6803F00073002BEC
:1028840009D1012373E03D4B1B6803F00203002BC5
:1028940001D101236BE0394B5B6823F003027B68B1
:1028A4005B68364913434B60FEF7F8FDF8600AE0B5
:1028B400FEF7F4FD0246FB68D31A41F288329342D4
:1028C40001D9032353E02D4B5B6803F00C027B68B2
:1028D4005B689B009A42EBD1274B1B6803F007030C
:1028E4003A689A4210D2244B1B6823F0070222490B
:1028F4003B6813430B60204B1B6803F007033A68E3
:102904009A4201D0012332E07B681B6803F0040380
:10291400002B08D0194B5B6823F4E0627B68DB680A
:10292400164913434B607B681B6803F00803002BB4
:1029340009D0124B5B6823F460527B681B69DB008F
:102944000E4913434B6000F021F802460B4B5B68C1
:102954001B0903F00F030A49CB5C22FA03F3094A6B
:102964001360094B1B681846FEF756FD00231846F2
:102974001037BD4680BD00BF002002400010024059
:1029840084460008000000200400002090B48AB0AF
:1029940000AF294B3C1D0FCB84E80F0040F201230C
:1029A4003B800023FB610023BB6100237B62002387
:1029B4007B6100233B62214B5B68FB61FB6903F095
:1029C4000C03042B02D0082B03D02BE01C4B3B62DE
:1029D4002BE0FB699B0C03F00F0328333B4413F8F3
:1029E400243C7B61FB6903F48033002B12D0134B2E
:1029F4005B685B0C03F0010328333B4413F8283C69
:102A0400BB617B690E4A03FB02F2BB69B2FBF3F3C1
:102A14007B6204E07B690B4A02FB03F37B627B6A03
:102A24003B6202E0064B3B6200BF3B6A1846283714
:102A3400BD4690BC704700BF7446000800100240B9
:102A440000127A0000093D0080B400AF024B1B68FD
:102A54001846BD4680BC70470000002080B500AF1A
:102A6400FFF7F2FF0246054B5B681B0A03F00703FE
:102A74000349CB5C22FA03F3184680BD00100240E0
:102A84009446000880B500AFFFF7DEFF0246054B11
:102A94005B68DB0A03F007030349CB5C22FA03F308
:102AA400184680BD001002409446000880B485B0EA
:102AB40000AF78600A4B1B680A4AA2FB03235B0A37
:102AC4007A6802FB03F3FB6000BFFB685A1EFA60DE
:102AD400002BF9D100BF00BF1437BD4680BC70473E
:102AE40000000020D34D621080B582B000AF786042
:102AF4007B68002B01D101233FE07B6893F83D30D4
:102B0400DBB2002B06D17B68002283F83C20786876
:102B1400FEF7C8FB7B68242283F83D207B681B6892
:102B2400DA687B681B6822F40052DA60786800F087
:102B340085FC7B681B681A697B681B6822F49042D9
:102B44001A617B681B685A697B681B6822F02A0239
:102B54005A617B681B68DA687B681B6842F4005220
:102B6400DA607B6800221A647B68202283F83D20A7
:102B74007B68202283F83E20002318460837BD4690
:102B840080BD80B58AB002AFF860B9603B6013467F
:102B9400FB8000237B61FB6893F83D30DBB2202B84
:102BA4007CD1BB68002B02D0FB88002B01D1012310
:102BB40075E0FB6893F83C30012B01D102236EE0F1
:102BC400FB68012283F83C20FB6800221A64FB683E
:102BD400212283F83D20FEF761FC7861FB68FA88C6
:102BE4009A84FB68FA88DA84FB689B68B3F5805F93
:102BF40008D1FB681B69002B04D10023FB61BB686F
:102C0400BB6103E0BB68FB610023BB61FB6800227E
:102C140083F83C202AE03B6800937B6900228021F2
:102C2400F86800F038FA0346002B01D0032336E09D
:102C3400FB69002B0BD1BB691B881A46FB681B6818
:102C4400C2F308025A60BB690233BB6107E0FB6947
:102C54001A78FB681B685A60FB690133FB61FB68E7
:102C6400DB8C9BB2013B9AB2FB68DA84FB68DB8C99
:102C74009BB2002BCFD13B6800937B69002240219B
:102C8400F86800F008FA0346002B01D0032306E09D
:102C9400FB68202283F83D20002300E0022318462D
:102CA4002037BD4680BD80B584B000AFF860B96000
:102CB4001346FB80FB6893F83E30DBB2202B1DD11A
:102CC400BB68002B02D0FB88002B01D1012316E046
:102CD400FB6893F83C30012B01D102230FE0FB6821
:102CE400012283F83C20FB6800221A63FB881A4601
:102CF400B968F86800F019FA034600E002231846A0
:102D04001037BD4680BD000080B58AB000AF786042
:102D14007B681B681B687B627B681B68DB683B62A3
:102D24007B681B685B69FB610023BB6100237B61DB
:102D34007B6A03F00F03BB61BB69002B0DD17B6A77
:102D440003F02003002B08D03B6A03F02003002B80
:102D540003D0786800F0C9FA7BE1BB69002B00F06E
:102D6400B180FB6903F00103002B05D13B6A03F436
:102D74009073002B00F0A6807B6A03F00103002B04
:102D84000AD03B6A03F48073002B05D07B681B6C6C
:102D940043F001027B681A647B6A03F00403002B8E
:102DA4000AD0FB6903F00103002B05D07B681B6C80
:102DB40043F002027B681A647B6A03F00203002B6F
:102DC4000AD0FB6903F00103002B05D07B681B6C60
:102DD40043F004027B681A647B6A03F00803002B47
:102DE4000FD03B6A03F02003002B04D1FB6903F0EE
:102DF4000103002B05D07B681B6C43F008027B6841
:102E04001A647B681B6C002B00F01E817B6A03F044
:102E14002003002B07D03B6A03F02003002B02D0D1
:102E2400786800F062FA7B681B685B6903F0400312
:102E3400002B14BF01230023DBB27B617B681B6C76
:102E440003F00803002B02D17B69002B31D0786892
:102E540000F0A4F97B681B685B6903F04003002B56
:102E640023D07B681B685A697B681B6822F0400288
:102E74005A617B689B6B002B13D07B689B6B764AF3
:102E84005A637B689B6B1846FEF7F4FC0346002BE1
:102E940016D07B689B6B5B6B7A68926B1046984785
:102EA4000EE0786800F0E3F80AE0786800F0DFF8F4
:102EB40006E0786800F0DBF87B6800221A64C3E05F
:102EC40000BFC1E07B681B6B012B40F0A1807B6AD3
:102ED40003F01003002B00F09B803B6A03F0100307
:102EE400002B00F095800023FB607B681B681B6847
:102EF400FB607B681B685B68FB60FB687B681B6826
:102F04005B6903F04003002B4ED07B689B6B1B680E
:102F14005B683B823B8A002B00F098807B689B8D2A
:102F24003A8A9A4280F092807B683A8ADA857B6892
:102F34009B6B9B69202B2BD07B681B68DA687B68B2
:102F44001B6822F48072DA607B681B685A697B68AC
:102F54001B6822F001025A617B681B685A697B680E
:102F64001B6822F040025A617B68202283F83E20CD
:102F74007B6800221A637B681B68DA687B681B68BD
:102F840022F01002DA607B689B6B1846FEF738FC6F
:102F94007B689A8D7B68DB8D9BB2D31A9BB21946F2
:102FA400786800F06DF851E07B689A8D7B68DB8D62
:102FB4009BB2D31A7B827B68DB8D9BB2002B47D0FC
:102FC4007B8A002B44D07B681B68DA687B681B68AB
:102FD40022F49072DA607B681B685A697B681B680C
:102FE40022F001025A617B68202283F83E207B682C
:102FF40000221A637B681B68DA687B681B6822F00E
:103004001002DA607B8A1946786800F039F81FE00C
:103014007B6A03F08003002B08D03B6A03F0800333
:10302400002B03D0786800F0F9F812E07B6A03F013
:103034004003002B0DD03B6A03F04003002B08D063
:10304400786800F03AF904E000BF02E000BF00E055
:1030540000BF2837BD4680BDF931000880B483B075
:1030640000AF786000BF0C37BD4680BC704780B4A9
:1030740083B000AF786000BF0C37BD4680BC70479A
:1030840080B483B000AF78600B467B8000BF0C3700
:10309400BD4680BC704780B584B000AFF860B960AD
:1030A4003B601346FB712CE0BB69B3F1FF3F28D0B2
:1030B400BB69002B07D0FEF7F1F902463B68D31A2F
:1030C400BA699A421DD2FB681B68DA68FB681B6800
:1030D40022F4D072DA60FB681B685A69FB681B68CB
:1030E40022F001025A61FB68202283F83D20FB682C
:1030F400202283F83E20FB68002283F83C2003232F
:103104000FE0FB681B681A68BB681340BA689A42F0
:103114000CBF01230023DBB21A46FB799A42C3D0C9
:10312400002318461037BD4680BD80B485B000AF7B
:10313400F860B9601346FB80FB68BA689A62FB6862
:10314400FA889A85FB68FA88DA85FB6800221A6493
:10315400FB68222283F83E20FB68002283F83C208F
:10316400FB681B68DA68FB681B6842F48072DA60EB
:10317400FB681B685A69FB681B6842F001025A61CC
:10318400FB681B68DA68FB681B6842F02002DA609F
:10319400002318461437BD4680BC704780B483B002
:1031A40000AF78607B681B68DA687B681B6822F470
:1031B4009072DA607B681B685A697B681B6822F02E
:1031C40001025A617B681B6B012B07D17B681B686A
:1031D400DA687B681B6822F01002DA607B682022C0
:1031E40083F83E207B6800221A6300BF0C37BD467B
:1031F40080BC704780B584B000AF78607B685B6A40
:10320400FB60FB680022DA85FB680022DA84F86838
:10321400FFF72DFF00BF1037BD4680BD80B485B0D9
:1032240000AF78607B6893F83D30DBB2212B3ED150
:103234007B689B68B3F5805F14D17B681B69002BA6
:1032440010D17B681B6AFB60FB681B881A467B688D
:103254001B68C2F308025A607B681B6A9A1C7B686D
:103264001A6208E07B681B6A591C7A6811621A7832
:103274007B681B685A607B68DB8C9BB2013B9BB20A
:103284007A681946D184002B0FD17B681B68DA68F1
:103294007B681B6822F08002DA607B681B68DA684E
:1032A4007B681B6842F04002DA60002300E00223DE
:1032B40018461437BD4680BC704780B582B000AF55
:1032C40078607B681B68DA687B681B6822F04002C0
:1032D400DA607B68202283F83D207868FFF7BEFE21
:1032E400002318460837BD4680BD80B586B000AFC0
:1032F40078607B6893F83E30DBB2222B40F09980F3
:103304007B689B68B3F5805F17D17B681B69002BD2
:1033140013D100237B617B689B6A3B617B681B68DC
:103324005B689BB2C3F308039AB23B691A807B685B
:103334009B6A9A1C7B689A6226E07B689B6A7B6125
:1033440000233B617B689B68B3F5805F07D07B6893
:103354009B68002B0AD17B681B69002B06D17B6814
:103364001B685B68DAB27B691A7008E07B681B68CB
:103374005B68DBB203F07F03DAB27B691A707B68A7
:103384009B6A5A1C7B689A627B68DB8D9BB2013B0B
:103394009BB27A681946D185002B48D17B681B689B
:1033A400DA687B681B6822F02002DA607B681B689D
:1033B400DA687B681B6822F48072DA607B681B68B9
:1033C4005A697B681B6822F001025A617B682022DB
:1033D40083F83E207B681B6B012B23D17B68002282
:1033E4001A637B681B68DA687B681B6822F010022A
:1033F400DA607B681B681B6803F01003102B0AD18A
:103404000023FB607B681B681B68FB607B681B6890
:103414005B68FB60FB687B689B8D19467868FFF7E7
:103424002FFE02E07868FDF7CBFC002302E00023C6
:1034340000E0022318461837BD4680BD80B584B02D
:1034440000AF78607B681B681B6923F440517B687C
:10345400DA687B681B680A431A617B689A687B6830
:103464001B691A437B685B691343BB607B681B68F9
:10347400DB6823F4B05323F00C037A681268B9684C
:103484000B43D3607B681B685B6923F440717B68E2
:103494009A697B681B680A435A617B681B682C4ADB
:1034A400934203D1FFF7EEFAF86002E0FFF7D6FA91
:1034B400F860FA6813469B0013449A001A447B6828
:1034C4005B689B00B2FBF3F3224AA2FB03235B0974
:1034D4001901FA6813469B0013449A001A447B6846
:1034E4005B689B00B2FBF3F21A4BA3FB02035B097C
:1034F400642000FB03F3D31A1B013233154AA2FBE9
:1035040003235B0903F0F0031944FA6813469B0094
:1035140013449A001A447B685B689B00B2FBF3F285
:103524000C4BA3FB02035B09642000FB03F3D31AD7
:103534001B013233074AA2FB03235B0903F00F028A
:103544007B681B680A449A6000BF1037BD4680BD83
:10355400003801401F85EB51014B1868704700BFCC
:103564000C00002070B500260C4D0D4C641BA410FB
:10357400A64209D101F02CF800260A4D0A4C641B1E
:10358400A410A64205D170BD55F8043B98470136F6
:10359400EEE755F8043B98470136F2E73447000854
:1035A40034470008344700083847000803460244FB
:1035B400934200D1704703F8011BF9E70FB40A4B9B
:1035C40013B51C6824B1A36913B9204600F05AFA54
:1035D40005AB2046049AA168019300F05DFC02B09B
:1035E400BDE8104004B070470C00002070B50E46D2
:1035F400054618B183690BB900F044FAAB69AC68AD
:1036040013B9284600F03EFA2C4B9C4220D16C683A
:10361400636EDB0705D4A389980502D4A06D00F07E
:10362400CFFAA38919071DD52369DBB1013EA3682D
:1036340016F8011F013BA36039BB002B38DA224680
:103644000A21284600F048F8013011D00A2511E07B
:103654001B4B9C4201D1AC68DAE71A4B9C4208BF71
:10366400EC68D5E72146284600F088F80028DDD02C
:103674004FF0FF35636EDA0705D4A3899B0502D4A6
:10368400A06D00F09EFA284670BD002B04DAA269F2
:103694009A4206DC0A2904D023685A1C2260197055
:1036A400C5E72246284600F017F80130BFD1DFE70E
:1036B4000A2523685A1C22601D70DBE7C0460008F7
:1036C400E0460008A0460008024B01461868FFF7D0
:1036D4008DBF00BF0C000020F8B50E461446054609
:1036E40018B183690BB900F0CDF9214B9C422BD161
:1036F4006C68A369A360A3891A072FD523696BB3E8
:1037040023692068F6B2C01A63693746834204DC31
:103714002146284600F022F930BBA3680130013B62
:10372400A36023685A1C22601E706369834204D01C
:10373400A389DB0706D50A2E04D12146284600F0CA
:103744000DF988B93846F8BD0A4B9C4201D1AC68E2
:10375400CFE7094B9C4208BFEC68CAE721462846DC
:1037640000F00CF80028CBD04FF0FF37EAE700BF99
:10377400C0460008E0460008A0460008324B70B579
:103784001D6806460C4625B1AB6913B9284600F0FE
:1037940079F92E4B9C420FD16C68A389B4F90C20A3
:1037A40019072CD4DD0611D40923336042F04003F9
:1037B4004FF0FF30A3813EE0254B9C4201D1AC6821
:1037C400EBE7244B9C4208BFEC68E6E7580712D5A8
:1037D400616B41B104F14403994202D0304600F0D8
:1037E40057FA00236363A38923F02403A3810023EE
:1037F400636023692360A38943F00803A3812369D9
:103804004BB9A38903F42073B3F5007F03D0214699
:10381400304600F0FDF9A089B4F90C2010F0010342
:103824000AD00023A36063695B42A361236943B99F
:1038340010F08000BAD170BD810758BF6369A360DE
:10384400F4E70020F7E700BF0C000020C0460008A2
:10385400E0460008A04600088A89F8B50546100726
:103864000C4657D44B68002B04DC0B6C002B01DC9A
:103874000020F8BDE66A002EFAD0002312F480522C
:103884002F682B6032D0606DA3895A0705D5636811
:10389400C01A636B0BB1236CC01A00230246E66A9C
:1038A4002846216AB047431CA38906D129681D29EB
:1038B4002CD8294ACA40D60728D50022626022693A
:1038C400D904226004D5421C01D12B6803B9606578
:1038D400616B2F600029CBD004F14403994202D0DC
:1038E400284600F0D5F900206063C2E7216A01236D
:1038F4002846B047411CC7D12B68002BC4D01D2BD0
:1039040001D0162B01D12F60B2E7A38943F0400305
:10391400A381AEE70F69002FAAD0930718BF002335
:103924000E6808BF4B69F61B0F608B60002E9FDD8D
:1039340033463A462846216AD4F828C0E04700288E
:1039440006DCA3894FF0FF3043F04003A38190E7E6
:103954000744361AEAE700BF0100402038B50B6976
:1039640005460C4613B90025284638BD18B18369AD
:103974000BB900F087F8144B9C421BD16C68B4F966
:103984000C30002BEFD0626ED00704D4990502D41A
:10399400A06D00F015F928462146FFF75DFF636E20
:1039A4000546DA07E0D4A3899B05DDD4A06D00F0B9
:1039B40008F9D9E7054B9C4201D1AC68DFE7044B19
:1039C4009C4208BFEC68DAE7C0460008E0460008FD
:1039D400A0460008002310B50446C0E90033C0E93E
:1039E4000433836081814366C2818361194608225E
:1039F4005C30FFF7DBFD054B24626362044BA3627A
:103A0400044BE362044B236310BD00BF4944000828
:103A14006B440008A3440008C7440008014900F0AF
:103A2400AFB800BF61390008682270B54D1E554318
:103A34000E4605F1740100F093F9044640B10021EB
:103A4400C0E900160C30A06005F16802FFF7AEFD76
:103A5400204670BD014800F0B3B800BF410100200A
:103A6400014800F0AEB800BF41010020014800F059
:103A7400A7B800BF42010020014800F0A2B800BF6F
:103A84004201002010B50446FFF7F0FFA3691BB103
:103A9400BDE81040FFF7F0BFC4E912332365134BB0
:103AA400134A1B68A262A34208BF0123204608BF31
:103AB400A36100F01FF86060204600F01BF8A060CE
:103AC400204600F017F800220421E0606068FFF748
:103AD40081FF01220921A068FFF77CFF0222122145
:103AE400E068FFF777FF0123A361D1E79C46000854
:103AF400213A0008F8B50746FFF7ACFF1E4B1E68D5
:103B0400B36913B93046FFF7BDFF4836D6E901342F
:103B1400013B03D533680BB33668F7E7B4F90C50AF
:103B2400D5B9164B04F15800E360656600F047F818
:103B3400FFF796FF08222946C4E90155C4E9045554
:103B44002560A56104F15C00FFF730FDC4E90D5563
:103B5400C4E912552046F8BD6834D9E70421384633
:103B6400FFF762FF044630600028D5D1FFF778FFE5
:103B74000C233B60EEE700BF9C4600080100FFFFFA
:103B84002DE9F84306468846002700F14804D4E9A5
:103B94000195B9F1010905D52468002CF7D13846FF
:103BA400BDE8F883AB89012B07D9B5F90E30013391
:103BB40003D029463046C04707436835E9E77047D4
:103BC4007047704770B50E46B1F90E1014460029BF
:103BD4001D4696B008DA0022B6F90C302A601A069F
:103BE40010D44FF480630EE06A4600F091FC002884
:103BF400F1DB019A02F47042A2F500535A425A4191
:103C04002A60EEE740230020236016B070BD000058
:103C14008B8973B59D0706460C4607D504F1470307
:103C2400236023610123636102B070BD6A4601AB66
:103C3400FFF7C8FF00990546304600F091F848B9EF
:103C4400B4F90C309A05EFD423F0030343F00203D4
:103C5400A381E3E70D4BB362A389206043F08003A3
:103C6400A381009B20616361019B5BB13046B4F981
:103C74000E1000F05FFC28B1A38923F0030343F086
:103C84000103A381A0890543A581CDE7213A00085A
:103C940038B50546002940D051F8043C0C1F002BD0
:103CA400B8BFE41800F076FC1C4A136833B96360AB
:103CB40014602846BDE8384000F072BCA34208D91D
:103CC400206821188B4201BF19685B6809182160BC
:103CD400EDE71A465B680BB1A342FAD91168501894
:103CE400A0420BD120680144501883421160E0D1F6
:103CF40018685B68014411605360DAE702D90C2349
:103D04002B60D6E7206821188B4201BF19685B68D5
:103D14000918216063605460CBE738BD440100207A
:103D240070B50E4E0C463168054611B900F07AFBA9
:103D340030602146284600F075FB431C0AD0C41CA1
:103D440024F00304A04207D0211A284600F06AFB9D
:103D5400013001D14FF0FF34204670BD48010020EE
:103D64002DE9F041CD1C25F0030508350C2D38BF95
:103D74000C25002D074601DBA94205D90C2300269A
:103D84003B603046BDE8F0812E4E00F003FC336802
:103D94001C4634BB29463846FFF7C2FF431C044681
:103DA4004DD134682646002E40D12368314638462A
:103DB40004EB030800F036FB80453AD12168033553
:103DC4006D1A25F0030508350C2D38BF0C2538462F
:103DD4002946FFF7A5FF01302BD023682B4423602D
:103DE4000EE02268521B1ED40B2A16D96119A34275
:103DF400256018BF5960636808BF316062514B6029
:103E0400384604F10B0600F0CBFB26F00706231D11
:103E1400F21AB6D09B1BA350B3E76268A3420CBF4F
:103E240032605A60ECE723466468B2E73446766849
:103E3400B9E70C2338463B6000F0B2FBA1E72560EC
:103E4400DEE700BF44010020936810B4013B002B5F
:103E5400936007DA9469A34201DB0A2902D110BCFA
:103E6400FFF73ABC1368581C10601970084610BC60
:103E74007047F8B506460F461446D518AC4201D132
:103E8400002007E03A46304614F8011BFFF7DCFF38
:103E9400431CF3D1F8BD00002DE9F04F0D46144644
:103EA400984606469DB018B183690BB9FFF7EAFD41
:103EB400894B9D421BD175686B6ED90705D4AB89BC
:103EC4009A0502D4A86DFFF77BFEAB891B0701D5C9
:103ED4002B69EBB929463046FFF750FCC0B16B6E35
:103EE400DC070ED54FF0FF301DB0BDE8F08F7B4BE3
:103EF4009D4201D1B568DFE7794B9D4208BFF56863
:103F0400DAE7AB899805EDD4A86DFFF75AFEE9E727
:103F14000023099320238DF8293030234FF0010921
:103F2400CDF80C80DFF8BC818DF82A3023469A4600
:103F340013F8012B0AB1252AF9D1BAEB040B0BD0E3
:103F44005B46224629463046FFF793FF013000F0D6
:103F5400AA80099A5A4409929AF80030002B00F07A
:103F6400A28000234FF0FF32CDE905230AF1010AB4
:103F7400049307938DF853301A935446052214F88A
:103F8400011B584800F0F8FA049AD8B9D10644BF86
:103F940020238DF85330130744BF2B238DF853305F
:103FA4009AF800302A2B15D0544600204FF00A0C02
:103FB400079A214611F8013B303B092B4ED9B0B189
:103FC400079214E0A0EB080309FA03F31343A24693
:103FD4000493D2E7039B191D1B680391002BBBBFFD
:103FE4005B4242F0020207930793B8BF049223781E
:103FF4002E2B0CD163782A2B35D1039B02341A1D46
:104004001B680392002BB8BF4FF0FF330593DFF812
:10401400D8A003225046217800F0AEFA40B14023E4
:10402400A0EB0A0003FA00F0049B01340343049359
:1040340014F8011B06222D488DF8281000F09CFA74
:1040440000283FD02A4B1BBB039B073323F00703F5
:1040540008330393099B3B44099367E70C4601200B
:104064000CFB0232A5E700234FF00A0C1946013479
:104074000593204610F8012B303A092A03D9002B66
:10408400C5D00591C3E7044601230CFB0121F0E7E9
:1040940003AB00932A463046164B04A9AFF30080C5
:1040A4000746781CD6D16B6ED90705D4AB899A051F
:1040B40002D4A86DFFF785FDAB895B063FF512AF0F
:1040C400099811E703AB00932A463046094B04A92B
:1040D40000F082F8E4E700BFC0460008E0460008AC
:1040E400A046000800470008064700080A470008E1
:1040F40000000000773E00082DE9F0471646994677
:104104008A680B6907469342B8BF1346336091F837
:1041140043200C46DDF820800AB101333360236864
:10412400990642BF336802333360256815F00605EB
:1041340006D104F1190AE36832689B1AAB4228DC01
:1041440094F84320131E226818BF012392062DD42D
:104154004946384604F14302C047013020D0236861
:10416400E56803F00603042B18BF002532684FF0FE
:104174000006A36808BFAD1A226908BF25EAE575E1
:104184009342C4BF9B1AED181A34B5421AD10020C9
:1041940008E00123524649463846C047013003D15E
:1041A4004FF0FF30BDE8F0870135C4E73020E11857
:1041B40081F843005A1C94F845102244023382F8D3
:1041C4004310C5E70123224649463846C04701301B
:1041D400E6D00136D9E700002DE9FF470F7E91466E
:1041E400782F80460C469A460C9D01F1430207D86D
:1041F400622F0AD8002F00F0D980582F00F0A48035
:1042040004F1420584F842703AE0A7F16303152BE8
:10421400F6D801A151F823F075420008894200083C
:10422400054200080542000805420008054200084E
:1042340089420008054200080542000805420008BA
:104244000542000897430008B94200087943000872
:104254000542000805420008B94300080542000869
:10426400B9420008054200080542000881430008DD
:104274002B681A1D1B682A6004F1420584F8423039
:104284000123A4E020682968060601F104030AD585
:104294000E682B60002E03DA2D23764284F8433017
:1042A4000A235E4819E00E6810F0400F2B6018BF17
:1042B40036B2EFE72B682068191D2960010601D585
:1042C4001E6802E04606FBD51E886F2F0CBF08232C
:1042D4000A235248002184F843106568002DA8BFC2
:1042E4002168A560A4BF21F0040121600EB9002D4E
:1042F4004DD01546B6FBF3F103FB1167C75D05F816
:10430400017D3746BB420E46F4D9082B0BD12368F6
:10431400DE0708D5236961689942DEBF302305F8BA
:10432400013C05F1FF35521B22614B4621464046B4
:10433400CDF800A003AAFFF7DFFE01304CD14FF007
:10434400FF3004B0BDE8F087344881F8457029682F
:10435400236851F8046B29601D0614D5DF0744BF98
:1043640043F0200323601EB9236823F02003236055
:104374001023AFE7236843F0200323607823284801
:1043840084F84530E3E7590648BFB6B2E6E7154678
:10439400BBE72B682668181D6169286035061B6811
:1043A40001D5196002E07006FBD51980002315467B
:1043B4002361BAE72B6800211A1D2A601D68626810
:1043C400284600F0D9F808B1401B60606368236197
:1043D400002384F84330A8E72A4649464046236927
:1043E400D0470130ABD023689B0713D4E068039B0C
:1043F4009842B8BF1846A4E70123324649464046CE
:10440400D04701309BD00135E36803995B1AAB4276
:10441400F2DCEBE7002504F11906F5E71147000883
:104424002247000838B50023054D044608462B6092
:10443400FCF7D2FE431C02D12B6803B1236038BDC4
:104444004C01002010B50C46B1F90E1000F0AEF886
:104454000028ABBF636DA3891B1823F48053ACBF42
:104464006365A38110BD2DE9F0411F468B89054684
:10447400DB050C46164605D502230022B1F90E10C1
:1044840000F068F8A389324623F48053A3812846B8
:104494003B46B4F90E10BDE8F04100F017B810B572
:1044A4000C46B1F90E1000F055F8431CA38915BF52
:1044B400606523F4805343F48053A38118BFA38120
:1044C40010BDB1F90E1000F013B8000038B5044661
:1044D400084611460022054D2A601A46FCF72FFEB5
:1044E400431C02D12B6803B1236038BD4C0100206A
:1044F40038B50023054D044608462B60FCF73BFE07
:10450400431C02D12B6803B1236038BD4C01002049
:1045140038B50023064D0446084611462B60FCF7C7
:1045240035FE431C02D12B6803B1236038BD00BFA4
:104534004C01002038B50023054D044608462B6085
:10454400FCF733FE431C02D12B6803B1236038BD52
:104554004C01002038B50446084611460022054D9A
:104564002A601A46FCF72BFE431C02D12B6803B1C8
:10457400236038BD4C010020034610B5C9B2024483
:104584009342184601D1002003E0047801338C42A1
:10459400F6D110BD0148FFF713BB00BF4001002056
:1045A4000148FFF70EBB00BF4001002038B50446A8
:1045B400084611460022054D2A601A46FCF7A2FD62
:1045C400431C02D12B6803B1236038BD4C01002089
:1045D400F8B500BFF8BC08BC9E467047F8B500BFEC
:0845E400F8BC08BC9E467047BC
:1045EC004D50553932353020494E495420455252A0
:1045FC004F52000070726573733A25640A00000014
:10460C004D50553635303020526561642049443D5B
:10461C003078253032580A00414B38393633205225
:10462C006561642049443D3078253032580A0000D9
:10463C00616363656C3A25642C2025642C20256409
:10464C000A0000006779726F3A25642C2025642CCF
:10465C002025640A000000006D61673A25642C2057
:10466C0025642C2025640A000203040506070809AA
:10467C000A0B0C0D0E0F10100000000000000000C3
:10468C0001020304060708090000000001020304EC
:10469C0010000020000000000000000000000000DE
:1046AC0000000000000000000000000000000000FE
:1046BC0000000000000000000000000000000000EE
:1046CC0000000000000000000000000000000000DE
:1046DC0000000000000000000000000000000000CE
:1046EC0000000000000000000000000000000000BE
:1046FC0000000000232D302B2000686C4C006566F8
:10470C006745464700303132333435363738394116
:10471C00424344454600303132333435363738392C
:08472C00616263646566000030
:04473400090200086E
:04473800E50100088F
:10473C000024F40010000000010000001000002014
:10474C0000000000C0460008E0460008A046000833
:10475C00000000000000000000000000000000004D
:10476C00000000000000000000000000000000003D
:10477C00000000000000000000000000000000002D
:10478C00000000000000000000000000000000001D
:10479C00000000000000000000000000000000000D
:04000005080013A537
:00000001FF
